:100000000C94DC070C9404080C9404080C94040869
:100010000C9404080C9404080C9404080C94040830
:100020000C9404080C9404080C9404080C94E01636
:100030000C9404080C9404080C9404080C94040810
:100040000C9496160C9404080C9404080C94040860
:100050000C9404080C9404080C9404080C940408F0
:100060000C9404080C94040825313653202D2025C7
:10007000530A000A004C4F47204648542030205273
:10008000464D5F54582000636D64203078307825E9
:1000900058206578742030783078255800544553BE
:1000A000540053594E432025750044455343414C59
:1000B00045004F46465345542025640056414C5652
:1000C000455F5345542025750056414C56455F43C6
:1000D0004C4F53450056414C56455F4F50454E00DE
:1000E00053594E435F53455420257500454E4142B8
:1000F0004C455F4C4F575F424154545F5741524EFD
:10010000494E4720004558542000525054200020AA
:1001100068633D272575202575273D2730782558AC
:1001200020307825582720636D644C3D2730783087
:100130007825582720636D64553D27307830782521
:100140005827206578743D27307830782558272047
:10015000006772703D27256427206164723D272562
:1001600075272000272000464C473D270027200008
:10017000434D443D27004C4F4720464854203120F2
:10018000454550524F4D2047726F75703D2725757C
:10019000272068633D272575202575273D27307862
:1001A00025582030782558270A0067726F757073BC
:1001B000206E756D202025750A0067726F75705F5F
:1001C00073697A65202025750A0068656164657227
:1001D0005F73697A652025750A0076657273696FA9
:1001E0006E202020202025750A004C4F47204648CD
:1001F00054203120454550524F4D2048656164657B
:1002000072206D69736D61746368210A000A2A2A7D
:100210002A20454550524F4D20646174612072651B
:10022000706F72743A0A0053455454494E47533A1A
:10023000204648545F465245455A494E475F54450B
:100240004D503D25642C204648545F465245455A42
:10025000494E475F5345545F56414C55453D3078B4
:1002600025582C20465245455A494E475F494E492C
:10027000545F434F554E543D25753B204648545FCF
:1002800050414E49435F54494D454F55543D2575A6
:100290005B7469636B735D2C204648545F50414E1C
:1002A00049435F5345545F56414C55453D30782591
:1002B000580A004C4F4720464854203120524144B0
:1002C000494F204641494C4544207374617475730D
:1002D0002069732025642E0A004C4F47204648545D
:1002E000203120524144494F206F6B0A004C61730A
:1002F00074206B6E6F776E2074656D703A20256484
:100300002F31302C20667265657A696E67206D6FBB
:1003100064653A2025750A00467265657A696E67DC
:10032000212000557074696D65205B7469636B737F
:100330005D3A2025753B206C61737420656E7120D9
:10034000636F6D6D616E642061743A2025750A00DB
:1003500050616E696321200046726565206D656D90
:100360002069732025750A000A2A2A2A2054656309
:10037000686E6963616C207265706F72743A0A000E
:100380000A004C4F472046485420312052464D5FCA
:10039000545120000A2A2A2A204D6573736167652B
:1003A0007320656E7175657565643A0A004E756DEA
:1003B000626572206F662067726F757073206D6161
:1003C00078696D756D3A2020202020202020257529
:1003D0000A004E756D626572206F662067726F75D8
:1003E00070732063757272656E746C7920757365B5
:1003F000643A2025750A000A2A2A2A204375727257
:10040000656E742073657474696E677320726570AD
:100410006F72743A0A00434C492050414E494320C0
:100420004F4646004C4F472046485420302050410C
:100430004E4943204F4646207469636B3D2725751E
:1004400027206C6173745F656E713D2725752720C9
:10045000706F733D272575270A000A004C4F47200F
:1004600046485420302052464D5F545120004C4F96
:10047000472046485420312052464D5F545820535F
:10048000594E432053796E632067726F7570202533
:100490006420636F6D706C6574650A004C4F472073
:1004A00046485420312052464D5F54582053594EEF
:1004B000432057616974696E6720666F72206772A6
:1004C0006F75702025642073796E632E2E2E0A00BE
:1004D0004C4F472046485420312052464D5F5458D7
:1004E0002053594E432053796E63206F6620616C10
:1004F0006C2067726F75707320636F6D706C6574BC
:10050000650A004C4F472046485420312052464D42
:100510005F54582053594E432057616974696E6780
:1005200020666F7220414C4C2067726F757073208B
:1005300073796E632E2E2E0A00256C642E256C6452
:1005400000756E6B6E6F776E004D534720564343B8
:10055000204C4F43414C2076616C75653D27256CDE
:10056000642720756E69743D276D56272064657673
:100570005F747970653D276D333238270A00272074
:10058000756E69743D274327206465765F747970C2
:10059000653D276D333238270A004D534720544DAF
:1005A00050204C4F43414C2076616C75653D2700CF
:1005B0004C4F4720464854203020465245455A4922
:1005C0004E4720545820656E666F7263696E6720CF
:1005D00067726F75703D272575272076616C76658B
:1005E000206F70656E696E6720746F2030782558B3
:1005F0000A004C4F4720464854203020465245457B
:100600005A494E47204C45415645206C61737454FD
:1006100031303D272564207469636B3D272575279C
:10062000270A004C4F472046485420302046524568
:10063000455A494E4720454E544552206C617374CB
:100640005431303D27256427207469636B3D27258D
:1006500075270A00434C49206668745F7469636BB0
:100660002069676E6F7265642C2020726164696F07
:10067000206E6F7420696E7469616C697A65642E8E
:100680000A00434C492050414E4943204F4E2073AD
:10069000657474696E6720616C6C2067726F757029
:1006A000732076616C766520706F736974696F6E04
:1006B0007320746F2030782558203A206D6573734D
:1006C00061676520656E7175657565642E0A004CFD
:1006D0004F472046485420302050414E4943204F38
:1006E0004E207469636B3D27257527206C617374F8
:1006F0005F656E713D2725752720706F733D272537
:1007000075270A00434C4920436F6D6D616E64206C
:100710006E6F7420737570706F7274656420666F8D
:100720007220414C4C2067726F7570732E20506C94
:100730006561736520737065636966792067726FA0
:100740007570206E756D6265720A00434C492055C4
:100750006E6B6E6F776E2066687420636F6D6D616F
:100760006E642E0A00434C492049444C452E0A0031
:1007700069646C6500696E666F00434C4920526580
:100780007175657374696E672067726F7570202567
:10079000752076616C76652074657374206265657A
:1007A000700A0062656570004C4F4720464854202F
:1007B0003220434C4920506C656173652073657429
:1007C000757020686F6D6520636F64657320666F58
:1007D00072206E65772067726F7570732120436198
:1007E0006C6C3A20666874206863203C67726F7591
:1007F000703E203C6863313E203C6863323E0A0014
:10080000434C49204E756D626572206F66206163AE
:10081000746976652067726F7570732069732073D1
:10082000657420746F2025752E0A00434C492045BD
:1008300072726F723A202575206973206F7574206B
:100840006F66207468652072616E6765205B312C6D
:10085000204648545F47524F5550535F44494D3DE1
:1008600025755D2E0A0067726F75707300434C49E1
:100870002053657474696E672067726F75702025E8
:10088000752076616C7665202575206F66667365C8
:100890007420746F202564203D20307825780A006C
:1008A0006F666673657400434C49205365747469C0
:1008B0006E672067726F75702025752076616C7683
:1008C0006520706F736974696F6E20746F20307863
:1008D00025580A0073657468007365740073657445
:1008E0007000736574680073657400434C4920534D
:1008F000796E63696E672067726F75702025752049
:1009000076616C7665730A0073796E6300434C49B7
:100910002052657175657374696E672067726F75B3
:10092000702025752076616C7665202575207061B4
:100930006972696E670A007061697200434C4920F0
:10094000486F6D6520636F6465206F662067726F06
:100950007570202575207761732073657420746F1E
:1009600020257520257568633D2725752025752769
:100970003D27307825582030782558272E0A0068E2
:100980006368006863680068636400686300434CE0
:100990004920496E76616C69642067726F757020BA
:1009A0006E616D652E0A00434C49204D6973736971
:1009B0006E6720706172616D657465722E0A004603
:1009C000726565206D656D2069732025750A0023A9
:1009D000205061636B657420746F6F206C61726767
:1009E000650A002720756E69743D274327207261D0
:1009F000773D27257827206465765F747970653D9B
:100A0000277369343433270A004D534720544D501F
:100A1000204C4F43414C2076616C75653D27002585
:100A2000642E256400756E6B6E6F776E0025303214
:100A300058004C4F4720544D5020302044616C6C7E
:100A400061732064657669636520696E64657820EA
:100A50002575206973206E6F7420617661696C6101
:100A6000626C652E0A00270A002720756E69743DA6
:100A7000274327207261773D2725782720646576F4
:100A80005F747970653D27445331387832302720C0
:100A90006465765F696E6465783D272575272064F7
:100AA00065765F616464726573733D27004D5347DB
:100AB00020544D50204C4F43414C2076616C75655D
:100AC0003D270000000000250028002B000000004A
:100AD00000240027002A000000000023002600292F
:100AE00000040404040404040402020202020203D7
:100AF00003030303030102040810204080010204E1
:100B0000081020010204081020005EBCE2613FDDF5
:100B100083C29C7E20A3FD1F41009D23BE46DB6552
:100B2000F88C11AF32CA57E9744C4F4720464854ED
:100B3000203220524144494F20446F6E650A004CD8
:100B40004F4720464854203220524144494F2052BA
:100B50006573657474696E6720726164696F2E2EA7
:100B60002E0A004C4F472046485420312052414421
:100B7000494F204552524F523A20556E737570704E
:100B80006F727465642F6D697373696E672072612B
:100B900064696F0A004C4F47204648542031205268
:100BA0004144494F20466F756E64206465766963E1
:100BB0006520747970652025642076657273696F8D
:100BC0006E2025640A004C4F4720464854203120AF
:100BD000454550524F4D2047726F75702025642057
:100BE0004843206973202564202564203D20307807
:100BF000255820307825582E0A00436F6E666967A5
:100C0000206C6F616465642066726F6D206565702D
:100C1000726F6D2C2025642067726F75707320666B
:100C20006F756E642E0A004C4F47204648542031A1
:100C300020454550524F4D20696E636F7369737440
:100C4000656E7420636F6E66696775726174696F33
:100C50006E20646174612066726F6D20454550524C
:100C60004F4D2069676E6F7265640A004C6973743A
:100C700020617661696C61626C6520636F6D6D6186
:100C80006E64730068656C7000434C492053657452
:100C900074696E6720616C6C2067726F7570207666
:100CA000616C76657320746F20307825582E2E2E57
:100CB0000A00434C492053796E6320646F6E652EA1
:100CC0000A00434C492053796E63696E6720616C5A
:100CD0006C2067726F75702076616C7665732E2E4E
:100CE0002E0A006D656D202D206765742066726583
:100CF00065206D656D6F727920696E666F006D6538
:100D00006D00746D70202D207265616420746865BB
:100D10002074656D70657261747572657300746DB1
:100D200070006668742067726F757073203C6E7512
:100D30006D5F6F665F67726F7570733E207C2068B1
:100D400063203C6772703E203C6863313E203C6803
:100D500063323E207C2070616972203C6772703E75
:100D6000205B3C76616C76653E5D207C2073796EFD
:100D700063205B3C6772703E5D207C206F6666730B
:100D8000657420203C6772703E203C76616C76650D
:100D90003E203C76616C75653E207C207365742036
:100DA0003C6772703E203C706F733E207C20626511
:100DB0006570203C6772703E207C20696E666F20F3
:100DC0000066687400464854004C4F47204648541B
:100DD000203120524144494F204F4B0A0A004C4FCA
:100DE0004720464854203120524144494F20464133
:100DF000494C45440A004C4F472046485420322075
:100E0000524144494F20456E61626C696E672072A1
:100E10006164696F2E2E2E0A00526573657420730B
:100E20007461747573203D20307825580A00537919
:100E30007374656D20636C6F636B203D20256C754A
:100E400020487A0A000A0A4648542076616C766582
:100E500020636F6D6D756E69636174696F6E206577
:100E600078616D706C6520666F722052464D32322B
:100E70002F32330A2843292032303133204D696B19
:100E80006520537469726C696E670A687474703A8D
:100E90002F2F7777772E6D696B65737469726C6924
:100EA0006E672E636F2E756B0A0A28432920323035
:100EB00031332048796E656B20426172616E0A6839
:100EC000747470733A2F2F6769746875622E636F3C
:100ED0006D2F48796E656B426172616E2F46485482
:100EE00038560A0A536B6574636820646174652020
:100EF000616E642074696D654A616E2032352032FE
:100F00003032302031333A30323A32360A004465DA
:100F1000627567206C6576656C203D2025750A003A
:100F200044616C6C61732073656E736F72732073B0
:100F300065742075702C202575206465766963655D
:100F40007320666F756E642E0A0044616C6C617369
:100F50002054656D70657261747572653A205365D1
:100F60007474696E672075702073656E736F727329
:100F70002E2E2E0A00556E6B6E6F776E20636F6D8E
:100F80006D616E640A004572726F722025640A00FA
:100F90003E2000434C492052656164790A0A0043AF
:100FA0006F6D6D616E64207265676973747279200C
:100FB00066756C6C0A00D21D11241FBECFEFD8E0FD
:100FC000DEBFCDBF11E0A0E0B1E0EEE9F9E402C080
:100FD00005900D92AC33B107D9F723E0ACE3B1E053
:100FE00001C01D92A630B207E1F717E0CCEDD7E0C3
:100FF00004C02197FE010E94C724CB3DD107C9F749
:101000000E9498180C94CD240C9400003FB7F894DB
:101010008091600190916101A0916201B0916301A2
:1010200026B5A89B05C02F3F19F00196A11DB11D43
:101030003FBFBA2FA92F982F8827BC01CD01620F7F
:10104000711D811D911D43E0660F771F881F991F39
:101050004A95D1F708958F929F92AF92BF92CF9207
:10106000DF92EF92FF926B017C010E9406084B0118
:101070005C01C114D104E104F104B9F00E94060836
:10108000681979098A099B09683E734081059105B1
:1010900080F321E0C21AD108E108F10888EE880E39
:1010A00083E0981EA11CB11CE4CFFF90EF90DF906D
:1010B000CF90BF90AF909F908F900895DC0180E01B
:1010C000615090F09D919827E92FEF70F0E0E75F75
:1010D000F44F2491E92FE295EF70F0E0E75EF44FD2
:1010E000E491822F8E27ECCF0895DC012C9111968C
:1010F000ED91FC91F8948181822B81839281322F32
:1011000030959323928382E090E00197F1F78181FB
:101110008323818380E190E00197F1F790817894B7
:10112000E6E6F0E03197F1F7922381E009F480E000
:101130000895FC0190810180F281E02D292F2095F6
:1011400060FF14C0F8948281822382838181892B7D
:101150008183A0E1B0E01197F1F78281982B92830F
:1011600078948AE690E00197F1F70895F8948281E7
:10117000822382838181892B8183AEE7B0E011973E
:10118000F1F78281982B9283789486E090E0EBCF00
:10119000DF92EF92FF920F931F93CF93DF93EC01B7
:1011A000D62EE42E08E010E0FF24F39461E08D2DAC
:1011B0008F2109F460E0CE010E949908FF0C0150D4
:1011C0001109A1F7E11010C0F894E981FA81918129
:1011D0008881809589238183E981FA819281888140
:1011E0008095892382837894DF91CF911F910F910D
:1011F000FF90EF90DF900895EF92FF920F931F936F
:10120000CF93DF938C017B0140E065E50E94C80825
:10121000E70188E0E80EF11C699140E0C8010E94F6
:10122000C808CE15DF05C1F7DF91CF911F910F914F
:10123000FF90EF900895CF93DF9300D0CDB7DEB746
:101240002091FA023091FB02CE0101962115310561
:1012500059F4865093409A83898389819A810F90AB
:101260000F90DF91CF910895821B930BE091FC02C8
:10127000F091FD0230E020E0309751F02E5F3F4FBB
:1012800040815181240F351F0280F381E02DF4CF7E
:10129000820F931FE0CF8EBD0DB407FEFDCF8EB53C
:1012A0000895CF93DF932A9883E00E944B0980E052
:1012B0000E944B09C82FD0E0DC2FCC2780E00E9491
:1012C0004B092A9A9E01282BC901DF91CF910895DD
:1012D0002A980E944B0980E00E944B092A9A08959F
:1012E000CF93DF93EB012A9880680E944B098D2FE2
:1012F0000E944B098C2F0E944B092A9ADF91CF91B3
:101300000895CF93C62F2A9880680E944B098C2F8E
:101310000E944B092A9ACF91089560E087E00E94CD
:10132000810962E088E00E94810960E088E00E9413
:10133000810961E088E00E94810960E088E00E9404
:1013400081090E94510970E060E085E00C94700909
:1013500088EC80937C0065E070E080E090E00E9483
:101360002B0880917A00806480937A0080917A00C3
:1013700086FDFCCF809178002091790030E0322FFB
:101380002227032E000C440B550B282B2D57310917
:1013900041095109A3E3B4E00E94FE220895CF93CE
:1013A000DF93C0910201D09103010E94A80928EEA9
:1013B00033E040E050E00E94A824C901C0382DEF7E
:1013C000D20721F0C817D9070CF4CE01DF91CF91D5
:1013D00008950F931F930091470110914801409188
:1013E000490150914A0160914B0170914C0130E0EC
:1013F00020E0485F584F6F4F7F4F81E090E0041727
:1014000015072607370710F490E080E01F910F9131
:101410000895CF93DF93DB014CE024E030E0892B8B
:1014200019F048E326E030E080913C01C8E0D0E0CC
:1014300050E090913D01BE01691B7109F9016217ED
:1014400073072CF490913D01FE01E91BF1092E1B5D
:101450003F0B0E2E01C0880F0A94EAF7BA01022E44
:1014600002C0759567950A94E2F7862B90913D012D
:10147000E90FE0933D0190913D01983071F4ED91B9
:10148000FC91119780836D917C9111976F5F7F4FD5
:1014900011967C936E9310923D012115310549F60A
:1014A00080933C01DF91CF9108958091C00087FF28
:1014B000FCCF8091C600082E000C990B08958A304D
:1014C00039F49091C00095FFFCCF9DE09093C60049
:1014D0009091C00095FFFCCF8093C60090E080E023
:1014E000089520915202309153022431310559F46C
:1014F0008FE99FE09F938F930E94FE1F0F900F90A4
:101500008FEF9FEF0895F901A3E0EE0FFF1FAA955B
:10151000E1F7E455FE4F97838683558744872F5F15
:101520003F4FD90183E0AA0FBB1F8A95E1F7A4556D
:10153000BE4F6D937C931386128630935302209393
:10154000520290E080E008950E941B099F938F93C0
:101550008FEB99E09F938F930E94FE1F0F900F9047
:101560000F900F9090E080E008959C0120388DEF5F
:10157000380749F485E29AE09F938F930E94FE1FFB
:101580000F900F900895C9016AE070E00E949424C2
:1015900046EF4603C001479F900D1124820F931F11
:1015A0009F938F937F936F938FE19AE09F938F9395
:1015B0000E94FE1F0F900F900F900F900F900F90B2
:1015C0000895CF93DF93F89460E78FE00E9481093C
:1015D00060E282E10E94810960E88FE00E94810957
:1015E0008FE00E94680981E10E9468097894C0E850
:1015F000DDEF8F3F31F095E0899FE0011124C05865
:10160000D24089E09AE09F938F930E94FE1FCE0103
:101610000E94B50ADF93CF9383EE99E09F938F9357
:101620000E94FE1F0F900F900F900F900F900F9041
:10163000CE01DF91CF910895FF920F931F93CF9327
:10164000DF93F82ED92FC62F613480F08FEC99E00C
:101650009F938F930E94FE1F0F900F908FEF9FEF2D
:10166000DF91CF911F910F91FF9008950E948D09F6
:101670002A988FEF0E944B090F2D1D2FC15098F40F
:101680002A9A60E074E085E00E9470090E94510986
:1016900069E087E00E9481091999FECF0E948D09B7
:1016A00090E080E0DDCFF80181918F010E944B092D
:1016B000E5CFCF92DF92EF92FF920F931F93CF93DC
:1016C000DF930E94A8096B017C018EE480937C006B
:1016D00065E070E080E090E00E942B0880917A0045
:1016E000806480937A0080917A0086FDFCCF80919F
:1016F00078002091790030E0322F2227032E000C51
:10170000440B550B282B60E070E381E190E00E94D0
:10171000A824E901142F052F8AE995E09F938F9360
:101720000E94FE1F0F900F9080E8C8168DEFD8061C
:101730008FEFE806F80649F581E495E09F938F93D3
:101740000E94FE1F0F900F908EE795E09F938F935E
:101750000E94FE1F0F931F93DF93CF9389E495E0C0
:101760009F938F930E94FE1F8DB79EB708960FB66A
:10177000F8949EBF0FBE8DBFDF91CF911F910F9147
:10178000FF90EF90DF90CF900895C701B60120E160
:1017900037E240E050E00E94A8249F938F937F930C
:1017A0006F935F934F933F932F9389E395E09F93BC
:1017B0008F930E94FE1F8DB79EB70A960FB6F894BE
:1017C0009EBF0FBE8DBFC0CF0F931F93CF93DF93EC
:1017D0008F3F09F468C0F894082F082E000C110BF5
:1017E000F6E08F02E0011124C458DE4F1A828CE229
:1017F0008B831C82F801E15CFE4F81EF808378943B
:101800000F5F1F4F1F930F938CE994E09F938F936B
:101810000E94FE1F0F900F900F900F9023968881CB
:1018200087FFFDCF1F930F938EE694E09F938F93D6
:101830000E94FE1F0F900F900F900F90DF91CF919D
:101840001F910F910895F894282F082E000C330B48
:10185000429FF001439FF00D1124E458FE4F128285
:1018600053831482215C3E4FF901608378948F5F2B
:101870009091220189173CF383E095E09F938F9329
:101880000E94FE1F0F900F9036E020E08091220111
:10189000281774F080ED94E09F938F930E94FE1FB1
:1018A0000F900F90CBCF80E046E05CE261EFE0CF9D
:1018B0002303F0011124E458FE4F838187FFE5CF15
:1018C0002F5FE4CF0E94E909892B49F180914901FA
:1018D00090914A01A0914B01B0914C012091470198
:1018E000309148011F9247EF4F93BF93AF939F935F
:1018F0008F933F932F9384E294E09F938F930E9462
:10190000FE1F86E194E09F938F930E94FE1F8DB788
:101910009EB70C960FB6F8949EBF0FBE8DBF8091F8
:10192000470190914801B0E0A0E080934901909375
:101930004A01A0934B01B0934C015E980895FF9229
:101940000F931F93CF93DF93082FF62E80E791E03C
:101950009F938F930E94FE1FC02F002E000CDD0B63
:1019600086E008028001112404581E4F8C9FF0016C
:101970008D9FF00D1124E458FE4F83818F700F90DE
:101980000F908F3008F0F1C0E82FF0E0E653F34FEE
:101990000C94C724D90C790D820DB50DB50DB50D7C
:1019A000850DB50D930DB50DA10DB50DA40DB50D9E
:1019B000B20D86E08C9FF0018D9FF00D1124E4584C
:1019C000FE4F84811F928F9380EE90E09F938F93C0
:1019D0000E94FE1F0F900F900F900F908DE691E0E8
:1019E0009F938F930E94FE1F87E691E09F938F93B2
:1019F0000E94FE1F0F900F900F900F90F8018381AF
:101A000087FF08C08AE091E09F938F930E94FE1F9A
:101A10000F900F90F801838185FF08C085E091E069
:101A20009F938F930E94FE1F0F900F90F801838168
:101A300084FF08C08CEE90E09F938F930E94FE1F5E
:101A40000F900F9084E691E09F938F930E94FE1F6A
:101A500086E08C9F80018D9F100D112404581E4F2D
:101A6000F80182811F928F932196DF93CF9381E5B6
:101A700091E09F938F930E94FE1FEDB7FEB73896BB
:101A80000FB6F894FEBF0FBEEDBFF1E0FF122BC002
:101A9000F80194818381238161815081418130816A
:101AA0001F929F9390E074E0959587957A95E1F762
:101AB0009F938F932F701F922F931F926F931F925C
:101AC0005F931F924F931F923F938FE091E09F93FC
:101AD0008F930E94FE1F8DB79EB740960FB6F89465
:101AE0009EBF0FBE8DBFDF91CF911F910F91FF90D1
:101AF000089585ED90E09F938F930E94FE1F0F90B5
:101B00000F906CCF89EC90E0F6CF86E08C9FF001CF
:101B10008D9FF00D1124E458FE4F84811F928F9306
:101B20008CEB90E053CF86E08C9FF0018D9FF00D01
:101B30001124E458FE4F84811F928F9382EB90E032
:101B400045CF8AEA90E0D7CF86E08C9FF0018D9F49
:101B5000F00D1124E458FE4F84811F928F9382EA86
:101B600090E034CF8DE990E0C6CF96E09C9FF001E5
:101B70009D9FF00D1124E458FE4F94811F929F9376
:101B80001F928F9387E890E09F938F930E94FE1F90
:101B90000F900F900F900F900F900F901FCF0F93FB
:101BA0001F93CF93DF93D82F062FC42F122F5B9A4A
:101BB0008F3F89F1F89486E0D802F0011124E458AF
:101BC000FE4F6283C062C383248378948CE594E0E3
:101BD0009F938F930E94FE1F60E08D2F0E949F0CA9
:101BE0008AE594E09F938F930E94FE1F0F900F90C1
:101BF0000F900F900BC0212F4C2F602F8D2F0E9424
:101C0000CF0DDF5F80912201D817ACF3DF91CF9128
:101C10001F910F910895D0E0F5CF0F931F93CF93AD
:101C2000DF9300D000D000D0CDB7DEB740912401C3
:101C300050E070E060E0CE0101960E94A42289810C
:101C4000813061F49A8180912401981307C09B81AF
:101C50008091250110E006E09817E1F08EEF9FEFEC
:101C60001FC06B81462F50E01603B00111248A81FA
:101C7000680F711DCE0105960E94A4228E819D8160
:101C80001002F0011124E458FE4FF89490838183F0
:101C900078941F5F8C81181724F3082E000C990B81
:101CA00026960FB6F894DEBF0FBECDBFDF91CF9161
:101CB0001F910F910895CF92DF92EF92FF920F93B1
:101CC0001F93CF93DF9300D000D000D0CDB7DEB705
:101CD00087EF93E09F938F930E94FE1F80912201D4
:101CE000282F082E000C330B3F938F9382ED93E047
:101CF0009F938F930E94FE1F1F9288E08F938DEA1F
:101D000093E09F938F930E94FE1F8DE092E09F933C
:101D10008F930E94FE1F4091240150E070E060E02C
:101D2000CE0101960E94A4220FB6F894DEBF0FBE2A
:101D3000CDBF8981813051F49A818091240198131B
:101D400005C09B8180912501981741F08AEE91E0B2
:101D50009F938F930E94FE1F0F900F9089811F9277
:101D60008F938AED91E09F938F930E94FE1F8A814B
:101D70001F928F938AEC91E09F938F930E94FE1F96
:101D80008B811F928F938AEB91E09F938F930E9498
:101D9000FE1F8C81282F082E000C330B3F938F934E
:101DA0008AEA91E09F938F930E94FE1F0FB6F894EA
:101DB000DEBF0FBECDBF10E026E7E22E21E0F22EFF
:101DC0008C8118170CF4B5C084E993E09F938F932E
:101DD0000E94FE1F0F900F9010E000E082E8E82EB6
:101DE00083E0F82E90E8C92E93E0D92E809122014D
:101DF000082E000C990B081719070CF4C3C088E6CD
:101E000093E09F938F930E94FE1F0E941B099F9354
:101E10008F9388E593E09F938F930E94FE1F0E940B
:101E2000E9090F900F900F900F900F900F90892B52
:101E300041F080E593E09F938F930E94FE1F0F90E7
:101E40000F908091490190914A01A0914B01B0916E
:101E50004C012091470130914801BF93AF939F936C
:101E60008F933F932F9383E293E09F938F930E94EE
:101E7000FE1F80913E010FB6F894DEBF0FBECDBFAE
:101E8000882341F088E193E09F938F930E94FE1F87
:101E90000F900F9010913E010E94CF091F921F9347
:101EA0009F938F938DEE92E09F938F930E94FE1FDE
:101EB0000E94590B80912001909121010F900F9069
:101EC0000F900F900F900F90009709F06EC089ED62
:101ED00092E09F938F930E94FE1F0F900F901F928E
:101EE00087EF8F9387E08F9388E08F931F9285E031
:101EF0008F931F9289EF8F931F928CE08F9387E2CD
:101F000092E09F938F930E94FE1F0FB6F894DEBF5E
:101F10000FBECDBF26960FB6F894DEBF0FBECDBF65
:101F2000DF91CF911F910F91FF90EF90DF90CF90B5
:101F300008956B81462F50E01603B00111248A8169
:101F4000680F711DCE0105960E94A4229E818D818D
:101F50001F929F931F928F931F929F931F928F9315
:101F6000812F012E000C990B01969F938F93FF9266
:101F7000EF920E94FE1F1F5F0FB6F894DEBF0FBEE8
:101F8000CDBF1ECFFF92EF920E94FE1F61E0802F17
:101F90000E949F0CDF92CF920E94FE1F0F5F1F4F87
:101FA0000F900F900F900F9021CF9F938F9383EB03
:101FB00092E09F938F930E94FE1F0F900F900F90BF
:101FC0000F908DCFFC0190810180F281E02DF8947B
:101FD0008181292F20958223818378943DE7315098
:101FE00011F180818923D9F3F8948281822382833D
:101FF0008181892B81837894ACEBB3E01197F1F761
:10200000F894818182238183A8E8B0E01197F1F7E9
:102010008081982381E009F080E07894E0E3F3E0A8
:102020003197F1F7089580E008958F929F92AF92D3
:10203000BF92CF92DF92EF92FF920F931F93CF93B5
:10204000DF938C01EB0180916E0190916F010E94F2
:10205000E20F811102C090E03EC0B80180916E0194
:1020600090916F010E94FC0840E06EEB80916E0140
:1020700090916F010E94C8088E015E0189E0A80E50
:10208000B11C80906E0190906F0188E0C82ED12C19
:10209000F12CEE24E394C4010E9475088111FE28FE
:1020A000EE0CE1E0CE1AD108B1F7F801F1928F0100
:1020B000EA15FB0531F780916E0190916F010E9446
:1020C000E20F813041F668E0CE010E945E0891E0A7
:1020D00028852813C0CF892FDF91CF911F910F91B1
:1020E000FF90EF90DF90CF90BF90AF909F908F9038
:1020F0000895CF93DF93CDB7DEB729970FB6F89445
:10210000DEBF0FBECDBFBE016F5F7F4F0E941510B7
:10211000882331F08D818F33A9F020F48F31A1F025
:1021200080E007C08F3521F08F37D1F78CE001C0F8
:102130008BE029960FB6F894DEBF0FBECDBFDF91BE
:10214000CF9108958AE0F5CF89E0F3CFBF92CF9287
:10215000DF92EF92FF920F931F93CF93DF93EC01E7
:10216000B62EC72E8D85811105C0CE010E94E20FCB
:1021700081110EC01B861D861C8680E0DF91CF91E9
:102180001F910F91FF90EF90DF90CF90BF90089537
:1021900040E060EFCE010E94C80801E0E12CD12CA4
:1021A00011E0CE010E947508F82ECE010E9475083C
:1021B00091E0F91218C0813099F51134D8F2DB861C
:1021C000D11002C081E08D878B81882399F22396FC
:1021D000EB2DFC2DCF01089629912193E817F907E3
:1021E000D9F781E0CBCFEE2DF0E0F8120FC08B8550
:1021F0001817A0F4DE01AE0FBF1F13968C91802339
:1022000079F4F12C193008F41C87D12EEC0FFD1F46
:102210008381902F9095892383830AC08113F1CF06
:10222000FE01EE0DF11D8381802B8383FF24F39447
:102230006F2DCE010E9499081F5F000F11F4E394E7
:1022400001E087E08E1508F0ACCFB7CFFF920F9377
:102250001F93CF93DF938C01F62EE0916E01F091E6
:102260006F011386158614861286118610861782D2
:102270001682158214821382C0E0B80180916E012B
:1022800090916F010E94A610D82F882329F0FC1688
:1022900029F0CF5FFC1688F7D0E008C067E0C801DE
:1022A0000E945E08F80197818913F3CF8D2FDF918B
:1022B000CF911F910F91FF9008952F923F924F92CF
:1022C0005F926F927F928F929F92AF92BF92CF92C6
:1022D000DF92EF92FF920F931F93CF93DF93CDB7CF
:1022E000DEB76C970FB6F894DEBF0FBECDBF20915E
:1022F0006C012A8F10E000E0F0E82F2EADEF3A2EAF
:10230000BDEA4B2EBAE05B2E89E6682E8AE0782E75
:102310004E014AE1840E911C9DE2C92E9AE0D92E0D
:1023200026E6A22E2AE0B22E5A8D051708F0A8C084
:10233000602FCE0142960E9426110B8F1C8F88239E
:1023400009F491C0602FCE010A960E9426118111D6
:1023500043C060E070E08EEF92EC20E030E040E2BD
:1023600051E40E94EB230E944F23F62EE72E262EE7
:10237000372E5F924F920E94FE1F8F2D9E2D0E943E
:10238000B50A2C8D2F934B8D4F93EF92FF927F9236
:102390006F920E94FE1FCE0142967C010FB6F89408
:1023A000DEBF0FBECDBFF70181917F011F928F93DA
:1023B000DF92CF920E94FE1F0F900F900F900F9010
:1023C000E814F90481F7BF92AF920E94FE1F0F90AC
:1023D0000F900F5F1F4FA8CFBE016F5F7F4FCE01E1
:1023E0000A960E941510882309F4B3CF6A8170E021
:1023F000762F6627770F770F770F298188E0289F40
:1024000090011124262B372B8A858031D1F46885E1
:1024100070E08F81FB01E81BF109CF019695982FA1
:102420008827979587950E949424CB014097B901FE
:1024300053E0660F771F5A95E1F760789C01260FED
:10244000371F2138F4EE3F070CF483CFB901330F67
:10245000880B990B0E94872320E030E040E05CE38A
:102460000E94EB237ACF1F930F9342E35AE05F93CE
:102470004F930E94FE1F0F900F900F900F90A9CFC7
:102480002092020130920301C1016C960FB6F894BC
:10249000DEBF0FBECDBFDF91CF911F910F91FF9097
:1024A000EF90DF90CF90BF90AF909F908F907F90F4
:1024B0006F905F904F903F902F9008958F929F92D2
:1024C000AF92BF92CF92DF92EF92FF9280916E0116
:1024D00090916F010E94E20F40E06CEC80916E01E0
:1024E00090916F010E94C8084091680164E4809156
:1024F0006E0190916F010E94C80880916A01882343
:1025000009F441C0E0916901E9506EEE72E0E330F8
:1025100038F4F0E0EE0FFF1FEB5CFE4F608171813D
:1025200080916B018823C1F180916801811134C0D1
:102530008FB7F8948090640190906501A090660137
:10254000B09067018FBF6B01770FEE08FF08809195
:102550006E0190916F010E9475088130A1F02FB734
:10256000F8948091640190916501A0916601B09109
:1025700067012FBF8C199D09AE09BF098815990500
:10258000AA05BB0520F3FF90EF90DF90CF90BF909E
:10259000AF909F908F900895072E000C880B990B99
:1025A000FF90EF90DF90CF90BF90AF909F908F9073
:1025B0000C942B084F925F926F927F928F929F9212
:1025C000AF92BF92CF92DF92EF92FF920F931F9341
:1025D000CF93DF938C014A013901EC01F12CE12CFE
:1025E0002C0186EA480E511C88E6A82E80E0B82E01
:1025F000F20180819181E816F9069CF090E080E07C
:10260000DF91CF911F910F91FF90EF90DF90CF90CE
:10261000BF90AF909F908F907F906F905F904F9002
:102620000895CE80DF8092E08916910464F0A601BF
:102630000D2C000C660B770BF301828193810E94B5
:102640008E18892BB9F48D858F938C858F93DF92AB
:10265000CF92BF92AF92F80185818F9384818F933F
:102660000E94BB1F8DB79EB708960FB6F8949EBF09
:102670000FBE8DBF9FEFE91AF90A2896B9CFF894DB
:102680000E945E1278942FE78FE492E121508040FF
:102690009040E1F700C000000E94590B0E94E10A3F
:1026A0000E945D110E94CF0990E080E008958F9212
:1026B0009F92AF92BF92CF92DF92EF92FF920F93D1
:1026C0001F93CF93DF9300D0CDB7DEB74A015901F6
:1026D00087EA99E0423051050CF4B5C042E0841617
:1026E000910409F4ACC0F501848195810E94501FCA
:1026F000D82EF8E08EE899E0FD1508F4A4C0CC24AB
:10270000CA94CD0CF501E280F3804BE859E0052E28
:10271000000C660B770BC7010E948E18892BB9F04D
:1027200047E859E0052E000C660B770BC7010E94A5
:102730008E18892B61F043E859E0052E000C660BDA
:10274000770BC7010E948E18892B09F08EC002E01A
:1027500010E0F5E08F1691040CF461C0DD2009F45F
:1027600070C04FE759E0052E000C660B770BC701D0
:102770000E948E18F50126813781892B09F06AC0E5
:1027800040E150E070E060E0C9010E94391E162F60
:1027900040E150E070E060E0F501808591850E94A5
:1027A000391E062F8C2D0C2C000C990BF89426E06A
:1027B000289FF001299FF00D1124E458FE4F10834B
:1027C00001837894F8948081898381818A836091E0
:1027D0002501462F50E02C2D2603B0011124C09076
:1027E00024016C0D711DCE0101960E94B4227894D3
:1027F0001F920F931F921F931F920F931F921F936D
:102800001F92DF928CE399E09F938F930E94FE1FAB
:102810000FB6F894DEBF0FBECDBF10E000E0C801D8
:102820000F900F90DF91CF911F910F91FF90EF903C
:10283000DF90CF90BF90AF909F908F900895D12C54
:102840005ECF84E097E09F938F930E94FE1F0F90CE
:102850000F9030C1C9010E94501F182FF5018085CB
:1028600091850E94501F082F9DCF47E359E0052E08
:10287000000C660B770BC7010E948E188C01892B08
:1028800001F5DD20F1F2F501868197810E94501F4C
:102890007C0199279F938F931F92DF928DE099E09F
:1028A0009F938F930E94FE1F20E04FE06E2D8C2D92
:1028B0000E94CF0D0F900F900F900F900F900F90E0
:1028C000AECF48E059E0052E000C660B770BC70130
:1028D0000E948E188C01892B81F41F92DF928BEE5F
:1028E00098E09F938F930E94FE1F8C2D0E94E40B13
:1028F0000F900F900F900F9092CF47EE58E0052E5B
:10290000000C660B770BC7010E948E18892BB9F05B
:1029100042EE58E0052E000C660B770BC7010E94B3
:102920008E18892B61F04DED58E0052E000C660BDA
:10293000770BC7010E948E18892B09F053C0F4E071
:102940008F1691040CF4B6C049ED58E0052E000C2A
:10295000660B770BC7010E948E18F501068117815F
:10296000892BE9F4C8010E94501F182F1F921F9352
:102970001F92DF9287EA98E09F938F930E94FE1F39
:10298000212F46E060E08C2D0E94CF0D0E94620C4A
:102990000F900F900F900F900F900F903ECF44ED3F
:1029A00058E0052E000C660B770BC7010E948E18AD
:1029B000892B49F440E150E070E060E0C8010E94DA
:1029C000391E162FD3CFC8010E94501F24E6AC0138
:1029D000249FC001259F900D11246FEF70E00E948D
:1029E0008024EFCF40EA58E0052E000C660B770BF1
:1029F000C7010E948E188C01892BE1F555E08516E0
:102A000091040CF457C0F501868197810E94501FF4
:102A10007C01F501808591850E94501F282F082E8A
:102A2000000C330BA90137FF04C044275527421B74
:102A3000530BB42E87FF02C06894B7F81F92BF9261
:102A40003F938F93C70199279F938F931F92DF9294
:102A50008DE698E09F938F930E94FE1F2B2D48E0F8
:102A60006E2D8C2D0E94CF0D0FB6F894DEBF0FBED9
:102A7000CDBFD5CE46E658E0052E000C660B770B91
:102A8000C7010E948E188C01892BA9F557E05C15AF
:102A9000A0F41F9288E08F931F921F928BE298E020
:102AA0009F938F930E94FE1F0F900F900F900F9097
:102AB0000F900F9001E010E0B2CED09222018091F1
:102AC0002201809326014091240150E070E060E0F3
:102AD00083E291E00E94B4221F92DF9280E098E0AE
:102AE0009F938F930E94FE1F88EA97E09F938F9396
:102AF0000E94FE1FDFCE43EA57E0052E000C660B56
:102B0000770BC7010E948E188C01892B79F41F92D4
:102B1000DF928AE797E09F938F930E94FE1F20E049
:102B20004EE060E08C2D0E94CF0DE2CE45E757E0ED
:102B3000052E000C660B770BC7010E948E188C01C6
:102B4000892B19F40E945B0E6ACE40E757E0052EF0
:102B5000000C660B770BC7010E948E188C018BE46A
:102B600097E00115110509F06ECE0E94620C85E612
:102B700097E09F938F930E94FE1F0F900F904FCE70
:102B80006F927F928F929F92AF92BF92CF92DF927D
:102B9000EF92FF920F931F93CF93DF93CDB7DEB7E2
:102BA000C254D1090FB6F894DEBF0FBECDBFB82E08
:102BB0005D9ACE0101967C0180E4F70111928A951D
:102BC000E9F7F6E0BF9E8001112404581E4F8CE007
:102BD000F8018583680198012B5F3F4FD9018C91E3
:102BE0009191890F8C93E217F307C9F72396FFAEF3
:102BF000EEAE239710923D0184E090E02AEA2396FE
:102C0000EEADFFAD2397AF014F5F5F4F23965FAFF0
:102C10004EAF23972083019791F79CE0892E912C4A
:102C2000BE016F5B7F4F90E080E00E94090AF1E0F7
:102C30008F1A9108A9F7BE016F5B7F4F81E090E08A
:102C40000E94090A0A5F1F4FF601A1906F0188E0F8
:102C5000682E712C912C812C8A2D8078BE016F5B9F
:102C60007F4F90E00E94090A8A2D881F8827881FBD
:102C70008826AA0CF1E06F1A710871F7BE016F5B2C
:102C80007F4FC4010E94090A0C151D05E9F6BE011B
:102C90006F5B7F4F90E080E00E94090ABE016F5B8E
:102CA0007F4F90E080E00E94090A23960EAD1FAD91
:102CB00023970E191F090F5F1F4F602FC7010E9436
:102CC0001C0B8FE097E20197F1F700C00000602F26
:102CD000C7010E941C0B5D9885E790E09F938F933E
:102CE0000E94FE1F60E08B2D0E949F0C83E790E006
:102CF0009F938F930E94FE1F0F900F900F900F9045
:102D0000CE5BDF4F0FB6F894DEBF0FBECDBFDF91B5
:102D1000CF911F910F91FF90EF90DF90CF90BF90D8
:102D2000AF909F908F907F906F9008951F920F9219
:102D30000FB60F9211242F933F938F939F93AF93CE
:102D4000BF938091640190916501A0916601B0915B
:102D5000670130915F0126E0230F2D3758F5029669
:102D6000A11DB11D20935F018093640190936501C3
:102D7000A0936601B0936701809160019091610119
:102D8000A0916201B09163010196A11DB11D8093D4
:102D9000600190936101A0936201B0936301BF91C0
:102DA000AF919F918F913F912F910F900FBE0F90F8
:102DB0001F90189529E8230F0396A11DB11DD2CFAE
:102DC0001F920F920FB60F9211242F923F924F92A3
:102DD0005F926F927F928F929F92AF92BF92CF92AB
:102DE000DF92EF92FF920F931F932F933F934F9396
:102DF0005F936F937F938F939F93AF93BF93CF9383
:102E0000DF93EF93FF9380914D0190914E01A0913C
:102E10004F01B09150010196A11DB11D80934D014C
:102E200090934E01A0934F01B09350015B9A0E9482
:102E3000E909892B09F440C08091490190914A0128
:102E4000A0914B01B0914C01209147013091480174
:102E50001F92C7EFCF93BF93AF939F938F933F93EF
:102E60002F938FEC96E09F938F930E94FE1F1F92EB
:102E7000CF9382E896E09F938F930E94FE1F27EFE7
:102E800046E060E08FEF0E94CF0D80914701909166
:102E90004801B0E0A0E08093490190934A01A093DB
:102EA0004B01B0934C015E9A8DB79EB70E960FB64C
:102EB000F8949EBF0FBE8DBF80912001909121019B
:102EC000892B09F413C15E9A84E596E09F938F9352
:102ED0000E94FE1F0F900F903AC0E72C072C000CA9
:102EE000FF086E9C80016F9C100D112404581E4F2A
:102EF000F801818193819F70E701C15CDE4F9C30B6
:102F000009F049C0888180FF05C088818483872DAE
:102F10000E94C015888181508883833050F43882A4
:102F20006E9CF0016F9CF00D1124E458FE4F53820B
:102F3000248273948091220178167CF2809147015B
:102F400090914801019690934801809347015B98C6
:102F5000FF91EF91DF91CF91BF91AF919F918F91B1
:102F60007F916F915F914F913F912F911F910F91A1
:102F7000FF90EF90DF90CF90BF90AF909F908F9099
:102F80007F906F905F904F903F902F900F900FBE6B
:102F90000F901F90189593819F709F3041F4188275
:102FA000872D0E94C015F80153821482C2CF87700A
:102FB00090E028812F5F288348819C012E513F4F4C
:102FC0004217130639F47110B4CFF8940E945E12C0
:102FD0007894AFCF48819C012C513F4F4217130684
:102FE00009F074C0711025C00E94590B0E94E10ABB
:102FF0000E945D110E94CF0920913E018937910501
:103000000CF045C0211112C02091470130914801B8
:103010003F932F939F938F939F928F920E94FE1FB7
:103020000F900F900F900F900F900F9040923E01D5
:103030005E9A80913E01882309F47BCF6E9CF0015B
:103040006F9CF00D1124E458FE4F83818F70863001
:1030500009F06FCF8481893F08F06BCF1F92F9EFA1
:10306000FF938FEFE81AF80AFF92EF92DF92CF9268
:103070000E94FE1F29EF46E060E0872D0E94CF0DE1
:103080000F900F900F900F900F900F9052CF213014
:1030900091F420914701309148013F932F939F93E2
:1030A0008F93BF92AF920E94FE1F0F900F900F90D0
:1030B0000F900F900F9080913E01882309F4B9CFB3
:1030C00080913E01815080933E01B3CF28818A5187
:1030D0009F4F2817190609F02CCF1882872D0E94C0
:1030E000C015F80183818068838323CF712C86E02B
:1030F000682E90EBC92E95E0D92E22EFA22E25E066
:10310000B22E35E0432E43E2842E46E0942E50E268
:10311000552E6EED362E74EF272E0CCFFA01DC0102
:103120008D910590801911F40020D1F7990B089525
:10313000CF93DF93CDB7DEB76F970FB6F894DEBFAE
:103140000FBECDBF789484B5826084BD84B58160A4
:1031500084BD85B5826085BD85B5816085BD809162
:103160006E00816080936E001092810080918100DA
:1031700082608093810080918100816080938100D2
:10318000809180008160809380008091B100846094
:103190008093B1008091B00081608093B0008091F5
:1031A0007A00846080937A0080917A0082608093B4
:1031B0007A0080917A008E7F80937A0080917A00E5
:1031C000806880937A001092C10004B714BE86E133
:1031D00085B988E388B98BE68BB98CEE84B98FEF1B
:1031E00087B98EEF8AB912E01093C0001092C10027
:1031F0001092C2008091C20086608093C20080E17C
:103200008093C4001092C50082E191E09093010385
:1032100080930003909303038093020384E091E082
:103220009093FF028093FE0288E18093C1005B9A35
:103230005E9A5D9A1F9281E08F938EE09FE09F934C
:103240008F930E94FE1F85E49EE09F938F930E94C0
:10325000FE1F1F928AE78F9382E18F931F928EE267
:103260009EE09F938F930E94FE1F1F920F9389E110
:103270009EE09F938F930E94FE1F0E94590B109215
:1032800080008CE08093810088E09DE3909389002A
:103290008093880010936F00789486EF9DE09F9351
:1032A0008F930E94FE1F8FE59AEE0197F1F700C001
:1032B00000002A9A1CBC1DBC80E58CBD80E00E94E9
:1032C0006809082F0F7181E00E946809182F1F718B
:1032D0001F921F931F920F9385E99BE09F938F93FB
:1032E0000E94FE1F0FB6F894DEBF0FBECDBF0830A0
:1032F00019F4163009F413C183E69BE09F938F9372
:103300000E94FE1F8FEF9FEF909321018093200179
:103310008EED9DE09F938F930E94FE1F0F900F9064
:103320000F900F90CC24CA94DC2CF8940E940D0EC0
:10333000182FE82E082E000CFF087894F7FEA2C183
:1033400087E29CE09F938F930E94FE1F0F900F9047
:103350000E945B0E80910003909101032091FE0278
:103360003091FF023093AF012093AE019093B101F1
:103370008093B00185EC9DE09093AD018093AC010A
:103380004CE65CE06AED72E184E89CE00E94710A20
:1033900042E25DE067E573E181EC9DE00E94710A25
:1033A00042E05DE06FE373E18EE19DE00E94710A0F
:1033B00043EE5CE064EA7AE08EEF9CE00E94710AE2
:1033C000CD2859F58091220118163CF50E94620C17
:1033D00082EC9CE09F938F930E94FE1F8FEF0E94D0
:1033E000E40B82EB9CE09F938F930E94FE1F1F9241
:1033F00084EF8F9389E89CE09F938F930E94FE1F38
:1034000024EF46E060E08FEF0E94CF0D0E94620C37
:103410000FB6F894DEBF0FBECDBF8AE49FE09F9346
:103420008F930E94FE1FE0916E01F0916F01138651
:1034300015861486128611861086178216821582CA
:103440001482138210926C0110926D010F900F90F4
:1034500001E0BE01615F7F4F80916E0190916F012D
:103460000E94A610882309F459C167E0CE010F9687
:103470000E945E089E898913ECCF809168018111BA
:1034800028C080916E0190916F010E94E20FBE01F1
:10349000615F7F4F80916E0190916F010E94FC08E7
:1034A00040E064EB80916E0190916F010E94C8082A
:1034B00080916E0190916F010E947508182F809184
:1034C0006E0190916F010E94E20F111102C00093F2
:1034D0006801109169018F85803109F45FC3CE01C5
:1034E0000F960E947910811708F007C18091690139
:1034F0008093690180916C018F5F80936C018F854F
:10350000883239F008F003C1803119F0823209F0B5
:10351000A0CF80916D018F5F80936D019ACF8FE373
:103520009BE09F938F930E94FE1F60E887E00E94BC
:1035300081090F900F901999FECF0E94510989E2DD
:103540009BE09F938F930E94FE1F0E948D0960E075
:1035500088E00E94810963E785E70E94810960E0B5
:1035600074E686E70E94700961E08AE70E9481099B
:1035700063E289E70E94810970E060E083E70E94CE
:10358000700961E281E70E94810965EF78E28EE6C9
:103590000E94700960E280E70E9481096FE08DE679
:1035A0000E9481098EE0E7E2F1E0DE0111960190D0
:1035B0000D928A95E1F72A988CE90E944B098E01B9
:1035C0000F5F1F4F7E01FBE0EF0EF11C0F900F907D
:1035D000F80181918F010E944B090E151F05C1F75B
:1035E0002A9A2A988AEA0E944B098B850E944B09E5
:1035F0002A9A2A988CEA0E944B098C850E944B09D2
:103600008D850E944B098E850E944B092A9A60E69F
:1036100089E60E94810960E185E30E94810966E0F4
:1036200083E30E9481092A9886EB0E944B098CEC67
:103630000E944B098CEC0E944B098CEC0E944B09B8
:103640008CEC0E944B092A9A60E080E30E94810979
:1036500065E18BE00E94810962E18CE00E948109B2
:10366000109221011092200189EC9DE09F938F938D
:103670000E94FE1F5B985D985E980F900F90D12C72
:10368000C12C53CEFF928F938AEF9BE09F938F9331
:103690000E94FE1F109322010F900F900F900F9029
:1036A00010E000E0B6E09B2E86ECA82E8BE0B82E52
:1036B0000E151F050CF04CCE909EF001919EF00D62
:1036C0001124E458FE4F31812081918180810F5F68
:1036D0001F4F1F923F931F922F931F929F931F92F2
:1036E0008F931F930F93BF92AF920E94FE1F0FB64E
:1036F000F894DEBF0FBECDBFDBCF8F85803111F4D4
:103700008CE0F6CECE010F960E947910F1CE8B336D
:1037100009F4FFCE823409F09CCEFBCE8CE080937E
:103720006901F12CE12C0FE5EFE7DE2EFFE1CF2E52
:10373000AFE3BA2E80916C0190E0E816F9060CF028
:10374000A2C06E2DCE0148960E94261110916901EB
:103750001D3018F11CE0888D803119F1CE0148969A
:103760000E947910811709F486C0BE01615F7F4F06
:10377000CE0148960E941510882309F47CC0888DDC
:10378000803109F478C01B3009F479C01C3059F03D
:103790001A3009F076C0BB8A07C01930E0F619E08C
:1037A000DACF8CE0DFCFDB8A80916E0190916F01E0
:1037B0000E94E20FBE01685E7F4F80916E01909182
:1037C0006F010E94FC0840E06EE480916E019091D0
:1037D0006F010E94C80840E0698980916E01909154
:1037E0006F010E94C80840E06A8980916E01909143
:1037F0006F010E94C808888D803141F040E06B89DC
:1038000080916E0190916F010E94C80880916E01B5
:1038100090916F010E94E20FBE01685E7F4F809120
:103820006E0190916F010E94FC084091680168E46C
:1038300080916E0190916F010E94C80864E170E070
:1038400080E090E00E942B0880916801882331F08D
:103850006AE070E080E090E00E942B0880916E01A9
:1038600090916F010E94E20F80916901811708F425
:10387000812F80936901FFEFEF1AFF0A5BCF0B8B5B
:1038800093CFCB8A91CF9F938F9380E29FE09F93BA
:103890008F930E94FE1F83E99FE09F938F930E9466
:1038A000FE1F0F900F900F900F900F900F9054E508
:1038B000452E52E0552ECC24C394D12C76E8672EA9
:1038C0007FE0772E6091B0017091B1018091AC01E1
:1038D0009091AD010E94D61F6091B0017091B1012D
:1038E00080E99FE00E94D61F5092DB024092DA02EC
:1038F000D092D902C092D8021092D5021092D4026E
:103900008091AE019091AF010E947F1FF82E00912F
:10391000D6021091D7020115110541F42AE0821751
:1039200009F4B6C08DE0F81609F4B2C098E0F916B3
:1039300009F45CC0EFE1EF150CF455C0FAE0FF129A
:10394000DFCF8091D4029091D5028F379105C1F2DB
:103950008091D8029091D902409791F26091B00184
:103960007091B1018F2D0F2C000C990B0E94162223
:103970008091D6029091D702892B09F081C0F0E2A4
:10398000FF1204C1F12C8091D4029091D5029C01C8
:1039900024553E4FF901E855FF4FF0820097E9F0BA
:1039A000FF20D9F029553F4FF9012081211115C081
:1039B0002091D8023091D902A9014F5F5F4F5093F7
:1039C000D9024093D802220F331FF901E652FD4F6E
:1039D0009C012C5A3D4F3183208301969093D50250
:1039E0008093D4028DCF2FE7F212ABCF8091D40217
:1039F0009091D502892B09F483CF6091B001709129
:103A0000B10188E090E00E9416226091B0017091AF
:103A1000B10180E290E00E9416226091B0017091A5
:103A2000B10188E090E00E9416222091D4023091EA
:103A3000D502A901415051095093D5024093D402B7
:103A4000CA0184559E4F452BB1F0FC01E855FF4F4C
:103A50004081442381F02E5A3D4FF90120812111EC
:103A60000AC02091D8023091D902215031093093F7
:103A7000D9022093D80288559F4FFC01108240CF75
:103A800022E2F21280CF1092D7021092D6027ACFA1
:103A9000E091D402F091D502EC5AFD4F1082609172
:103AA000B0017091B1018AE090E00E9416228091ED
:103AB000D4029091D502892B09F404CFA090520230
:103AC000B09053028090DA029090DB022CEAE22E52
:103AD00021E0F22E0A151B050CF045C0F7014681C6
:103AE0005781052E000C660B770BC4010E948E18BF
:103AF000F8E0EF0EF11C98012F5F3F4F892B09F082
:103B000043C04091D8025091D902F80183E0EE0FF2
:103B1000FF1F8A95E1F7E455FE4F6285738593E0B8
:103B2000220F331F9A95E1F7F901E455FE4F0190FA
:103B3000F081E02D2AED32E08CEA91E009950097C2
:103B400091F09F938F937F926F928091B1018F93A9
:103B50008091B0018F930E94BB1F0F900F900F9028
:103B60000F900F900F90809152029091530208177E
:103B7000190709F0A7CE6091B0017091B10185E7F6
:103B80009FE00E94D61F9ECE8901A4CF22E2F212AE
:103B9000FACED092D702C092D602B2CE1D3008F033
:103BA000A5CCAECDCF93DF9347EF5AE0FA016491F5
:103BB00083EE9AE0FC0124912223C1F030E0220F31
:103BC000331FF901E353F54FA591B491F901ED537A
:103BD000F54FC591D4917FB7F8943C91262F20954D
:103BE00032233C933881232328837FBFFA014491F9
:103BF00040935101FC018491E82FF0E0EE0FFF1F8C
:103C0000E952F54F8591949190935301809352011D
:103C100010925C0110925E0110925D0110925B01A6
:103C200010925A01109259011092580110925701A6
:103C300010925601109255011092540181E591E0C5
:103C400090936F0180936E0110926C0110926D0140
:103C50001092680189E08093690181E080936A0194
:103C600080936B0110927B0110927A01DF91CF91CA
:103C70000895B0E0A0E0EFE3FEE10C940A235C01BC
:103C80006B017A016115710519F0FB019183808345
:103C9000E114F10451F0C7010297839730F040E03E
:103CA00030E020E090E072C05E01E5012196F50170
:103CB0001081812F90E00E946E1F892BA9F71D3281
:103CC00001F52196F501118101E0E114F10409F4F7
:103CD000DAC0F0E1EF16F10409F082C0103359F4B4
:103CE00088818F7D883509F076C01981229602601F
:103CF000F0E1EF2EF12C812C912CA12C88E0B82E34
:103D00008CC01B3221F4E5012296F501118100E0FF
:103D1000DCCFEAE0EE16F10409F4BBC0F0E1EF16E7
:103D2000F10409F06DC0E7CF78E0E72EF12C812C8B
:103D3000912CA12C60E1B62E70C03FE9310F3A31D1
:103D400028F439EA332E80C021E09AC0302F317038
:103D5000C114D10431F0222309F12197F601D18356
:103D6000C08327FF21C060E070E080E090E831115F
:103D700004C06FEF7FEF8FEF9FE722E230E03093D8
:103D8000050320930403462F372F282F642F732F0A
:103D9000822FCDB7DEB7E1E10C94262301FF04C0EA
:103DA0002297F601D183C083332341F0909580950B
:103DB000709561957F4F8F4F9F4FE5CF97FFE3CF72
:103DC00082E290E090930503809304036FEF7FEF0E
:103DD0008FEF9FE7D8CF10E3E114F10409F4A4CFEB
:103DE00028E0E216F10409F4A2CF0CF092CF812C66
:103DF000912CA12CE0E4BE2E82E0E816F10469F0DB
:103E000060E070E080E090E897010F2C000C440B1C
:103E1000550B0E94DC2249015A0120E060E070E06D
:103E2000CB0127010F2C000C66087708FE0150ED2E
:103E3000352E310E39E0331540F43FEB310F3A3176
:103E400008F07BCF49EC342E310E3E141F040CF0E9
:103E50007DCF27FD15C086169706A806B90678F00F
:103E6000A30192010E94CC22630D711D811D911D41
:103E700061307105810520E8920708F465CF2FEFC6
:103E800021961081D3CF103309F42ACF2AE0E22EF5
:103E9000F12C9CEC892E982CA82C9CE0B92EBDCF3F
:103EA000FC0188279927E89421912032E9F32930F1
:103EB00010F02E30C8F32B3241F02D3239F46894D3
:103EC00004C00E94771F820F911D219120532A3038
:103ED000C0F31EF4909581959F4F089591110C9415
:103EE000FD21803219F089508550C8F708957AE095
:103EF000979F902D879F802D910D11240895CF932A
:103F0000DF93EC012B8120FF1AC026FF0CC02F7B12
:103F10002B838E819F8101969F838E838A8190E07F
:103F2000DF91CF91089522FF18C0E881F981808147
:103F3000082E000C990B009729F420622B838FEF39
:103F40009FEFEECF3196F983E8832E813F812F5F7B
:103F50003F4F3F832E839927E3CFEA85FB85099561
:103F600097FFF3CF2B81019621F080E2822B8B8388
:103F7000E6CF80E1FBCFB0E0A0E0E1ECFFE10C9404
:103F800017230F811885F801838188608383AE0130
:103F9000455F5F4F69857A85C8010E942320F8013B
:103FA0002381277F2383E4E00C943323EF92FF9255
:103FB0000F931F93CF93DF938C017B01DB0113964B
:103FC0008C91D0E0C0E081FD0FC0CFEFDFEF10C0DB
:103FD000D7011896ED91FC91B7010995892B11F045
:103FE000CFEFDFEF0F5F1F4FF80184918111F0CF0A
:103FF000CE01CDB7DEB7E6E00C943123B0E0A0E00F
:10400000E4E0F0E20C941723AE01495F5F4FDA0160
:104010006D917D91AD010EEF12E0F80182819381E7
:10402000DC0113962C911397286013962C930E9411
:104030002320D8011296ED91FC912381277F2383C1
:10404000E4E00C943323ABE0B0E0E9E2F0E20C945E
:1040500009237C013B018A01FC01178216828381BE
:1040600081FFC8C1CE0101965C01F7019381F30184
:1040700093FD859193FF81913F01882309F453C1FA
:10408000853239F493FD859193FF81913F0185320B
:1040900029F4B70190E00E941622E7CF912C212C41
:1040A000312CFFE1F31538F08B3211F190F48032AE
:1040B00009F1833229F137FC3CC020ED280F2A306A
:1040C00050F536FE20C08AE0989E200D1124922ED5
:1040D00006C08D3291F0803371F7689430F8F301A7
:1040E00093FD859193FF81913F018111DACF21C02A
:1040F000689431F8689432F8F2CF689433F8EFCFCF
:10410000689434F8ECCFEAE02E9E200D1124222E84
:10411000689435F8E4CF8E3229F436FC04C16894F3
:1041200036F8DDCF8C3619F4689437F8D8CF883656
:10413000B1F2982F9F7D95549330E0F08336A1F132
:104140008337C1F1833509F063C02801F2E04F0ED7
:10415000511CF801C080D180692D70E036FC02C08E
:104160006FEF7FEFC6010E9400224C01689437F880
:1041700082010AC00C5F1F4FFFE3F98388248394F8
:10418000912C6501E89437F833FE2DC0522C811430
:10419000910471F5552009F468CFB70180E290E0F1
:1041A0000E9416225A94F6CFF801808189830E5F0F
:1041B0001F4FE4CF2801F2E04F0E511CF801C080E0
:1041C000D180692D70E036FC02C06FEF7FEFC60131
:1041D0000E940B224C018201D5CFB70180E290E012
:1041E0000E9416222A942814190409F0B0F7CECFA1
:1041F000F60137FC859137FE81916F01B70190E0A0
:104200000E94162251105A94F1E08F1A9108BFCFE4
:10421000843619F0893609F077C0F80137FE6BC093
:1042200060817181828193810C5F1F4FF32DFF7636
:104230003F2E97FF09C090958095709561957F4FAF
:104240008F4F9F4F689437F82AE030E0A5010E9415
:104250004622C82ECA188C2C432C36FE0CC0E8947B
:1042600040F8C91440F434FE05C032FC03C0F32DFD
:10427000FE7E4F2E892C44FE95C0FE01EC0DF11DF3
:104280008081803309F087C0242D297E422E842D21
:104290008870582E43FC95C040FE8FC09C2C821421
:1042A00018F42C0C922C981844FE91C0B70180E3AE
:1042B00090E00E94162242FE09C088E790E041FE8D
:1042C00002C088E590E0B7010E941622C91408F4E4
:1042D0008AC0CA94D12C9FEFC91AD90ACA0CDB1C18
:1042E000F60182916F01B70190E00E941622AC1492
:1042F000BD04B1F74FCF60817181072E000C880B90
:10430000990B0E5F1F4F92CFD32CE894D4F82AE07C
:1043100030E0853739F1232D297FD22E8F3601F1F8
:1043200048F48835A9F0F701868197812B96E2E160
:104330000C942523803749F08837A9F7D4FE02C0B2
:104340006894D2F820E130E00DC06894D4F8F6CF3C
:1043500034FE03C0822F8660D82E20E132E002C0F6
:1043600028E030E0F801D7FE0FC0608171818281C2
:1043700093810C5F1F4FA5010E944622C82ECA18C8
:104380003D2CE89437F867CF6081718190E080E040
:104390000E5F1F4FF0CF42FC02C0839478CF83940E
:1043A000839475CF842D867809F471CFF6CFB70149
:1043B00080E290E00E94162283948214C0F3512C74
:1043C00073CF522C5818821408F46ECFF8CF842D76
:1043D000867809F47BCF8BE241FE80E247FC8DE2D8
:1043E000B70190E071CFB70180E390E00E94162200
:1043F0009A946CCF8FEF9FEF99CF992788270895D4
:10440000FC010590615070400110D8F7809590959F
:104410008E0F9F1F0895FC016150704001900110A4
:10442000D8F7809590958E0F9F1F08950F931F9337
:10443000CF93DF93182F092FEB018B8181FD09C0EA
:104440001FEF0FEF812F902FDF91CF911F910F91D1
:10445000089582FF14C02E813F818C819D81281791
:1044600039073CF4E881F981CF010196998388836B
:1044700010838E819F8101969F838E83E3CFE88591
:10448000F985812F0995892BA1F3DACFFA01AA27A3
:10449000283051F1203181F1E8946F936E7F6E5F87
:1044A0007F4F8F4F9F4FAF4FB1E03ED0B4E03CD035
:1044B000670F781F891F9A1FA11D680F791F8A1F18
:1044C000911DA11D6A0F711D811D911DA11D20D07F
:1044D00009F468943F912AE0269F11243019305D39
:1044E0003193DEF6CF010895462F4770405D41932A
:1044F000B3E00FD0C9F7F6CF462F4F70405D4A3377
:1045000018F0495D31FD4052419302D0A9F7EACF3E
:10451000B4E0A6959795879577956795BA95C9F76D
:1045200000976105710508959B01AC010A2E069460
:104530005795479537952795BA95C9F7620F731F19
:10454000841F951FA01D0895DC01CB01FC01F99982
:10455000FECF06C0F2BDE1BDF89A319600B40D92CF
:1045600041505040B8F70895DC01CB0103C02D91B4
:104570000E94BF2241505040D0F70895262FF9994C
:10458000FECF1FBA92BD81BD20BD0FB6F894FA9A36
:10459000F99A0FBE01960895DB018F939F930E94B5
:1045A000FE22BF91AF91A29F800D911DA39F900D00
:1045B000B29F900D11240895A1E21A2EAA1BBB1BD5
:1045C000FD010DC0AA1FBB1FEE1FFF1FA217B307DF
:1045D000E407F50720F0A21BB30BE40BF50B661FF5
:1045E000771F881F991F1A9469F7609570958095B9
:1045F00090959B01AC01BD01CF0108950E9440231D
:10460000A59F900DB49F900DA49F800D911D112426
:1046100008952F923F924F925F926F927F928F9266
:104620009F92AF92BF92CF92DF92EF92FF920F9341
:104630001F93CF93DF93CDB7DEB7CA1BDB0B0FB64B
:10464000F894DEBF0FBECDBF09942A883988488808
:104650005F846E847D848C849B84AA84B984C8849E
:10466000DF80EE80FD800C811B81AA81B981CE0F95
:10467000D11D0FB6F894DEBF0FBECDBFED0108957A
:10468000A29FB001B39FC001A39F700D811D112493
:10469000911DB29F700D811D1124911D08950E94DE
:1046A00056236894B1110C94E52308950E94CA23FF
:1046B00088F09F5798F0B92F9927B751B0F0E1F0E3
:1046C000660F771F881F991F1AF0BA95C9F714C093
:1046D000B13091F00E94E423B1E008950C94E423FA
:1046E000672F782F8827B85F39F0B93FCCF38695CC
:1046F00077956795B395D9F73EF490958095709529
:1047000061957F4F8F4F9F4F0895E89409C097FBA5
:104710003EF490958095709561957F4F8F4F9F4F98
:104720009923A9F0F92F96E9BB279395F6958795DC
:1047300077956795B795F111F8CFFAF4BB0F11F49F
:1047400060FF1BC06F5F7F4F8F4F9F4F16C0882346
:1047500011F096E911C0772321F09EE8872F762F7C
:1047600005C0662371F096E8862F70E060E02AF0BD
:104770009A95660F771F881FDAF7880F96958795A9
:1047800097F9089557FD9058440F551F59F05F3F12
:1047900071F04795880F97FB991F61F09F3F79F063
:1047A00087950895121613061406551FF2CF4695E5
:1047B000F1DF08C0161617061806991FF1CF869567
:1047C0007105610508940895E894BB27662777274B
:1047D000CB0197F908950E94FE230C946F240E9448
:1047E000612438F00E94682420F0952311F00C9485
:1047F00058240C945E2411240C94E5230E94C223B7
:1048000070F3959FC1F3950F50E0551F629FF00123
:10481000729FBB27F00DB11D639FAA27F00DB11D3C
:10482000AA1F649F6627B00DA11D661F829F2227C5
:10483000B00DA11D621F739FB00DA11D621F839F4C
:10484000A00D611D221F749F3327A00D611D231F22
:10485000849F600D211D822F762F6A2F11249F5770
:1048600050409AF0F1F088234AF0EE0FFF1FBB1F73
:10487000661F771F881F91505040A9F79E3F510532
:1048800080F00C9458240C94E5235F3FE4F3983EA9
:10489000D4F3869577956795B795F795E7959F5FDC
:1048A000C1F7FE2B880F911D9695879597F908956E
:1048B00097F99F6780E870E060E008959FEF80ECD3
:1048C000089500240A941616170618060906089576
:1048D00000240A9412161306140605060895092EDC
:1048E0000394000C11F4882352F0BB0F40F4BF2B4B
:1048F00011F460FF04C06F5F7F4F8F4F9F4F08958B
:10490000AA1BBB1B51E107C0AA1FBB1FA617B707F5
:1049100010F0A61BB70B881F991F5A95A9F7809511
:104920009095BC01CD01089597FB072E16F40094D5
:1049300007D077FD09D00E94802407FC05D03EF403
:10494000909581959F4F0895709561957F4F08953B
:10495000052E97FB1EF400940E94BF2457FD07D03C
:104960000E94DC2207FC03D04EF40C94BF24509527
:104970004095309521953F4F4F4F5F4F089590954B
:104980008095709561957F4F8F4F9F4F0895EE0FE3
:0E499000FF1F0590F491E02D0994F894FFCFDD
:10499E00010180FD00000001000000000000550A2A
:1049AE00000000000002000000005F0A000000008E
:1049BE0001000101040208C1400A039600DA7400E6
:0C49CE00DC2428FA295E00BC0077010000
:00000001FF
