:100000000C94CD070C94F5070C94F5070C94F507A8
:100010000C94F5070C94F5070C94F5070C94F50770
:100020000C94F5070C94F5070C94F5070C94BE1688
:100030000C94F5070C94F5070C94F5070C94F50750
:100040000C9474160C94F5070C94F5070C94F507B2
:100050000C94F5070C94F5070C94F5070C94F50730
:100060000C94F5070C94F50725313653202D2025E7
:10007000530A000A004C4F47204648542030205273
:10008000464D5F54582000636D64203078256875B4
:1000900020657874203078256875005445535400E5
:1000A00053594E432025750044455343414C450068
:1000B0004F46465345542025640056414C56455FF3
:1000C0005345542025750056414C56455F434C4FCF
:1000D00053450056414C56455F4F50454E005359CD
:1000E0004E435F53455420257500454E41424C45D3
:1000F0005F4C4F575F424154545F5741524E494EF7
:100100004720004558542000525054200020686376
:100110003D27257525752720636D644C3D27307874
:100120002568752720636D64553D273078256875EF
:1001300027206578743D273078256875272000676B
:1001400072703D27256427206164723D272575273D
:100150002000272000464C473D2700272000434D24
:10016000443D27004C4F4720464854203120454508
:1001700050524F4D2047726F75703D2725752720CF
:1001800068633D2725752575270A0067726F7570AE
:1001900073206E756D202025750A0067726F75706B
:1001A0005F73697A65202025750A0068656164655A
:1001B000725F73697A652025750A007665727369C6
:1001C0006F6E202020202025750A004C4F472046C6
:1001D0004854203120454550524F4D2048656164B8
:1001E0006572206D69736D61746368210A000A2A63
:1001F0002A2A20454550524F4D2064617461207277
:1002000065706F72743A0A000A000A0025582000CF
:100210003000302558203A20002020202020303087
:10022000203031203032203033203034203035201F
:1002300030362030372030382030392030412030DF
:10024000422030432030442030452030460A0053BD
:10025000455454494E47533A204648545F46524508
:10026000455A494E475F54454D503D25642C204624
:1002700048545F465245455A494E475F5345545F7F
:1002800056414C55453D307825582C204652454521
:100290005A494E475F494E49545F434F554E543D6E
:1002A00025753B204648545F50414E49435F5449B1
:1002B0004D454F55543D25752C204648545F5041BF
:1002C0004E49435F5345545F56414C55453D307848
:1002D00025580A004C4F47204648542031205241AF
:1002E00044494F204641494C45442073746174751C
:1002F000732069732025642E0A004C4F472046481E
:1003000054203120524144494F206F6B0A004C6108
:100310007374206B6E6F776E2074656D703A202554
:10032000642F31302C20667265657A696E67206DA6
:100330006F64653A2025750A00467265657A696EB4
:1003400067210A00557074696D6520696E207469B3
:10035000636B733A2025753B206C61737420656E66
:100360007120636F6D6D616E642061743A20257534
:100370000A0050616E6963210A0046726565206D4E
:10038000656D2069732025750A000A2A2A2A2054DF
:100390006563686E6963616C207265706F72743A30
:1003A0000A000A004C4F472046485420312052464C
:1003B0004D5F545120000A2A2A2A204D657373612B
:1003C00067657320656E7175657565643A0A004EE0
:1003D000756D626572206F662067726F757073202D
:1003E0006D6178696D756D3A2020202020202020D5
:1003F00025750A004E756D626572206F6620677202
:100400006F7570732063757272656E746C79207588
:100410007365643A2025750A000A2A2A2A20437542
:100420007272656E742073657474696E677320727E
:1004300065706F72743A0A00434C492050414E492E
:1004400043204F4646004C4F47204648542030201A
:1004500050414E4943204F4646207469636B3D2707
:10046000257527206C6173745F656E713D27257556
:100470002720706F733D272575270A000A004C4F0F
:10048000472046485420302052464D5F54512000AA
:100490004C4F472046485420312052464D5F545817
:1004A0002053594E432053796E632067726F7570E5
:1004B00020256420636F6D706C6574650A004C4F75
:1004C000472046485420312052464D5F545820530F
:1004D000594E432057616974696E6720666F7220B8
:1004E00067726F75702025642073796E632E2E2ECF
:1004F0000A004C4F472046485420312052464D5F59
:1005000054582053594E432053796E63206F662010
:10051000616C6C2067726F75707320636F6D706CA7
:100520006574650A004C4F472046485420312052DC
:10053000464D5F54582053594E43205761697469A2
:100540006E6720666F7220414C4C2067726F757029
:10055000732073796E632E2E2E0A00256C642E256F
:100560006C6400756E6B6E6F776E004D534720564E
:100570004343204C4F43414C2076616C75653D27C9
:10058000256C642720756E69743D276D562720649D
:1005900065765F747970653D276D333238270A00C0
:1005A0002720756E69743D274327206465765F7444
:1005B0007970653D276D333238270A004D53472047
:1005C000544D50204C4F43414C2076616C75653D35
:1005D00027004C4F4720464854203020465245457E
:1005E0005A494E4720545820656E666F7263696E93
:1005F000672067726F75703D272575272076616CBF
:100600007665206F70656E696E6720746F20307834
:1006100025580A004C4F4720464854203020465267
:1006200045455A494E47204C45415645206C61731B
:10063000745431303D272564207469636B3D272550
:100640007527270A004C4F47204648542030204643
:100650005245455A494E4720454E544552206C61FB
:1006600073745431303D27256427207469636B3DD2
:10067000272575270A00434C49206668745F746912
:10068000636B2069676E6F7265642C2020726164F1
:10069000696F206E6F7420696E7469616C697A6528
:1006A000642E0A00434C492050414E4943204F4E8E
:1006B0002073657474696E6720616C6C2067726F5B
:1006C0007570732076616C766520706F73697469DC
:1006D0006F6E7320746F2030782558203A206D6536
:1006E000737361676520656E7175657565642E0A43
:1006F000004C4F472046485420302050414E49433B
:10070000204F4E207469636B3D27257527206C614F
:1007100073745F656E713D2725752720706F733D7B
:10072000272575270A00434C4920436F6D6D616E84
:1007300064206E6F7420737570706F7274656420BE
:10074000666F7220414C4C2067726F7570732E205B
:10075000506C6561736520737065636966792067A5
:10076000726F7570206E756D6265720A00434C4938
:1007700020556E6B6E6F776E2066687420636F6DA8
:100780006D616E642E0A00434C492049444C452E4D
:100790000A0069646C6500696E666F00434C49200D
:1007A00052657175657374696E672067726F7570D5
:1007B0002025752076616C766520746573742062DF
:1007C0006565700A0062656570004C4F47204648B9
:1007D00054203220434C4920506C6561736520736E
:1007E0006574757020686F6D6520636F6465732034
:1007F000666F72206E65772067726F757073212047
:1008000043616C6C3A20666874206863203C6772B0
:100810006F75703E203C6863313E203C6863323E19
:100820000A00434C49204E756D626572206F662048
:100830006163746976652067726F75707320697380
:100840002073657420746F2025752E0A00434C496F
:10085000204572726F723A202575206973206F757A
:1008600074206F66207468652072616E6765205B16
:10087000312C204648545F47524F5550535F4449EE
:100880004D3D25755D2E0A0067726F7570730043CC
:100890004C492053657474696E672067726F757078
:1008A0002025752076616C7665202575206F66663B
:1008B00073657420746F202564203D20307825787E
:1008C0000A006F666673657400434C492053657473
:1008D00074696E672067726F757020257520766168
:1008E0006C766520706F736974696F6E20746F2009
:1008F000307825580A0073657400434C49205379B9
:100900006E63696E672067726F757020257520763B
:10091000616C7665730A0073796E6300434C4920FD
:1009200052657175657374696E672067726F757053
:100930002025752076616C766520257520706169AB
:1009400072696E670A007061697200434C49204801
:100950006F6D6520636F6465206F662067726F75C9
:1009600070202575207761732073657420746F2063
:1009700025752025752E0A00686300434C492049DF
:100980006E76616C69642067726F7570206E616D40
:10099000652E0A00434C49204D697373696E6720C8
:1009A000706172616D657465722E0A0046726565CC
:1009B000206D656D2069732025750A002320506124
:1009C000636B657420746F6F206C617267650A00D9
:1009D0002720756E69743D274327207261773D2774
:1009E000257827206465765F747970653D27736983
:1009F000343433270A004D534720544D50204C4F78
:100A000043414C2076616C75653D270025642E2599
:100A10006400756E6B6E6F776E0025303258004C37
:100A20004F4720544D5020302044616C6C6173203E
:100A300064657669636520696E6465782025752034
:100A40006973206E6F7420617661696C61626C6598
:100A50002E0A00270A002720756E69743D27432758
:100A6000207261773D27257827206465765F747949
:100A700070653D27445331387832302720646576DD
:100A80005F696E6465783D27257527206465765F0C
:100A9000616464726573733D27004D534720544D64
:100AA00050204C4F43414C2076616C75653D2700CA
:100AB00000000000250028002B000000000024009A
:100AC00027002A000000000023002600290004045B
:100AD00004040404040402020202020203030303E6
:100AE00003030102040810204080010204081020C2
:100AF000010204081020005EBCE2613FDD83C29C5D
:100B00007E20A3FD1F41009D23BE46DB65F88C11AE
:100B1000AF32CA57E9744C4F472046485420322020
:100B2000524144494F20446F6E650A004C4F4720A4
:100B3000464854203220524144494F205265736543
:100B40007474696E6720726164696F2E2E2E0A00BC
:100B50004C4F4720464854203120524144494F20B1
:100B60004552524F523A20556E737570706F7274C1
:100B700065642F6D697373696E6720726164696F54
:100B80000A004C4F472046485420312052414449E6
:100B90004F20466F756E64206465766963652074C6
:100BA0007970652025642076657273696F6E2025E3
:100BB000640A004C4F472046485420312045455098
:100BC000524F4D2047726F75702025642048432096
:100BD00069732025642025642E0A00436F6E6669C0
:100BE00067206C6F616465642066726F6D20656557
:100BF00070726F6D2C2025642067726F7570732082
:100C0000666F756E642E0A004C4F4720464854208C
:100C10003120454550524F4D20696E636F736973A3
:100C200074656E7420636F6E66696775726174694E
:100C30006F6E20646174612066726F6D204545504F
:100C4000524F4D2069676E6F7265640A004C69737C
:100C50007420617661696C61626C6520636F6D6D93
:100C6000616E64730068656C7000434C4920536585
:100C70007474696E6720616C6C2067726F75702088
:100C800076616C76657320746F20307825582E2E2F
:100C90002E0A00434C492053796E6320646F6E65C1
:100CA0002E0A00434C492053796E63696E672061B8
:100CB0006C6C2067726F75702076616C7665732E30
:100CC0002E2E0A006D656D202D20676574206672DA
:100CD0006565206D656D6F727920696E666F006D58
:100CE000656D00746D70202D2072656164207468DC
:100CF000652074656D7065726174757265730074DA
:100D00006D70006668742067726F757073203C6E3A
:100D1000756D5F6F665F67726F7570733E207C20C4
:100D20006863203C6772703E203C6863313E203C23
:100D30006863323E207C2070616972203C6772706B
:100D40003E205B3C76616C76653E5D207C2073794D
:100D50006E63205B3C6772703E5D207C206F666630
:100D600073657420203C6772703E203C76616C761F
:100D7000653E203C76616C75653E207C2073657411
:100D8000203C6772703E203C706F733E207C206276
:100D9000656570203C6772703E207C20696E666FCE
:100DA000200066687400464854004C4F472046486F
:100DB00054203120524144494F204F4B0A0A004CE5
:100DC0004F4720464854203120524144494F204645
:100DD00041494C45440A004C4F4720464854203274
:100DE00020524144494F20456E61626C696E672014
:100DF000726164696F2E2E2E0A005265736574202D
:100E0000737461747573203D20307825580A00533F
:100E1000797374656D20636C6F636B203D20256C66
:100E20007520487A0A000A0A4648542076616C7692
:100E30006520636F6D6D756E69636174696F6E2097
:100E40006578616D706C6520666F722052464D3218
:100E5000322F32330A2843292032303133204D6972
:100E60006B6520537469726C696E670A687474707C
:100E70003A2F2F7777772E6D696B65737469726C73
:100E8000696E672E636F2E756B0A0A28432920321C
:100E90003031332048796E656B20426172616E0A91
:100EA00068747470733A2F2F6769746875622E6363
:100EB0006F6D2F48796E656B426172616E2F464887
:100EC0005438560A0A536B6574636820646174650C
:100ED00020616E642074696D654A616E2032342031
:100EE000323032302032333A33323A32320A00442E
:100EF00065627567206C6576656C203D2025750AF6
:100F00000044616C6C61732073656E736F72732043
:100F10007365742075702C2025752064657669636F
:100F2000657320666F756E642E0A0044616C6C6197
:100F3000732054656D70657261747572653A2053E3
:100F4000657474696E672075702073656E736F7257
:100F5000732E2E2E0A00556E6B6E6F776E20636FA8
:100F60006D6D616E640A004572726F722025640AAD
:100F7000003E2000434C492052656164790A0A0012
:100F8000436F6D6D616E6420726567697374727909
:100F90002066756C6C0A0000AA1D11241FBECFEFDD
:100FA000D8E0DEBFCDBF11E0A0E0B1E0E8EEF6E4AE
:100FB00002C005900D92AC33B107D9F723E0ACE342
:100FC000B1E001C01D92A430B207E1F717E0CDEC0B
:100FD000D7E004C02197FE010E941C23CC3CD1071E
:100FE000C9F70E9476180C9472230C9400003FB746
:100FF000F8948091600190916101A0916201B0919B
:10100000630126B5A89B05C02F3F19F00196A11DCD
:10101000B11D3FBFBA2FA92F982F8827BC01CD0142
:10102000620F711D811D911D43E0660F771F881FA0
:10103000991F4A95D1F708958F929F92AF92BF92D0
:10104000CF92DF92EF92FF926B017C010E94F70733
:101050004B015C01C114D104E104F104B9F00E9418
:10106000F707681979098A099B09683E7340810569
:10107000910580F321E0C21AD108E108F10888EE59
:10108000880E83E0981EA11CB11CE4CFFF90EF9066
:10109000DF90CF90BF90AF909F908F900895DC012C
:1010A00080E0615090F09D919827E92FEF70F0E07B
:1010B000EA50F54F2491E92FE295EF70F0E0EA5FF6
:1010C000F44FE491822F8E27ECCF0895DC012C9110
:1010D0001196ED91FC91F8948181822B818392810C
:1010E000322F30959323928382E090E00197F1F7BD
:1010F00081818323818380E190E00197F1F79081E2
:101100007894E6E6F0E03197F1F7922381E009F474
:1011100080E00895FC0190810180F281E02D292F6B
:10112000209560FF14C0F89482818223828381819C
:10113000892B8183A0E1B0E01197F1F78281982B90
:10114000928378948AE690E00197F1F70895F894F5
:101150008281822382838181892B8183AEE7B0E003
:101160001197F1F78281982B9283789486E090E032
:10117000EBCFDF92EF92FF920F931F93CF93DF930A
:10118000EC01D62EE42E08E010E0FF24F39461E099
:101190008D2D8F2109F460E0CE010E948A08FF0C9A
:1011A00001501109A1F7E11010C0F894E981FA810A
:1011B00091818881809589238183E981FA81928157
:1011C00088818095892382837894DF91CF911F91C4
:1011D0000F91FF90EF90DF900895EF92FF920F93A1
:1011E0001F93CF93DF938C017B0140E065E50E9464
:1011F000B908E70188E0E80EF11C699140E0C801F8
:101200000E94B908CE15DF05C1F7DF91CF911F917C
:101210000F91FF90EF900895CF93DF9300D0CDB75B
:10122000DEB72091FA023091FB02CE010196211522
:10123000310559F4845093409A83898389819A8136
:101240000F900F90DF91CF910895821B930BE09147
:10125000FC02F091FD0230E020E0309751F02E5F6B
:101260003F4F40815181240F351F0280F381E02DD3
:10127000F4CF820F931FE0CF8EBD0DB407FEFDCFDC
:101280008EB50895CF93DF932A9883E00E943C099E
:1012900080E00E943C09C82FD0E0DC2FCC2780E002
:1012A0000E943C092A9A9E01282BC901DF91CF9107
:1012B00008952A980E943C0980E00E943C092A9ADD
:1012C0000895CF93DF93EB012A9880680E943C0930
:1012D0008D2F0E943C098C2F0E943C092A9ADF9195
:1012E000CF910895CF93C62F2A9880680E943C0919
:1012F0008C2F0E943C092A9ACF91089560E087E0E4
:101300000E94720962E088E00E94720960E088E051
:101310000E94720961E088E00E94720960E088E042
:101320000E9472090E94420970E060E085E00C941E
:10133000610988EC80937C0065E070E080E090E0DB
:101340000E941C0880917A00806480937A008091CA
:101350007A0086FDFCCF809178002091790030E002
:10136000322F2227032E000C440B550B282B2D5710
:10137000310941095109A3E3B4E00E9422230895F1
:10138000CF93DF93C0910201D09103010E9499098C
:1013900028EE33E040E050E00E94FD22C901C03851
:1013A0002DEFD20721F0C817D9070CF4CE01DF9139
:1013B000CF9108950F931F93009147011091480119
:1013C0004091490150914A0160914B0170914C014B
:1013D00030E020E0485F584F6F4F7F4F81E090E052
:1013E000041715072607370710F490E080E01F91D7
:1013F0000F910895CF93DF93DB014CE024E030E0C0
:10140000892B19F048E326E030E080913C01C8E0E8
:10141000D0E050E090913D01BE01691B7109F901D6
:10142000621773072CF490913D01FE01E91BF1094D
:101430002E1B3F0B0E2E01C0880F0A94EAF7BA014B
:10144000022E02C0759567950A94E2F7862B90915B
:101450003D01E90FE0933D0190913D01983071F419
:10146000ED91FC91119780836D917C9111976F5F45
:101470007F4F11967C936E9310923D01211531059B
:1014800049F680933C01DF91CF9108958091C0008F
:1014900087FFFCCF8091C600082E000C990B0895A1
:1014A0008A3039F49091C00095FFFCCF9DE0909375
:1014B000C6009091C00095FFFCCF8093C60090E0DD
:1014C00080E0089520915202309153022431310579
:1014D00059F480E89FE09F938F930E94B61E0F906F
:1014E0000F908FEF9FEF0895F901A3E0EE0FFF1F1C
:1014F000AA95E1F7E455FE4F978386835587448785
:101500002F5F3F4FD90183E0AA0FBB1F8A95E1F7F8
:10151000A455BE4F6D937C9313861286309353026D
:101520002093520290E080E008950E940C099F935E
:101530008F938CEA99E09F938F930E94B61E0F9031
:101540000F900F900F9090E080E008959C0120385C
:101550008DEF380749F482E19AE09F938F930E94C0
:10156000B61E0F900F900895C9016AE070E00E94C6
:10157000E92246EF4603C001479F900D1124820FD8
:10158000931F9F938F937F936F938CE09AE09F9329
:101590008F930E94B61E0F900F900F900F900F9098
:1015A0000F900895CF93DF93F89460E78FE00E9447
:1015B000720960E282E10E94720960E88FE00E9495
:1015C00072098FE00E94590981E10E9459097894BB
:1015D000C0E8DDEF8F3F31F095E0899FE0011124F5
:1015E000C058D24086EF99E09F938F930E94B61E19
:1015F000CE010E94A60ADF93CF9380ED99E09F93DE
:101600008F930E94B61E0F900F900F900F900F9027
:101610000F90CE01DF91CF910895FF920F931F930A
:10162000CF93DF93F82ED92FC62F613480F08CEB47
:1016300099E09F938F930E94B61E0F900F908FEFAB
:101640009FEFDF91CF911F910F91FF9008950E941E
:101650007E092A988FEF0E943C090F2D1D2FC15043
:1016600098F42A9A60E074E085E00E9461090E9483
:10167000420969E087E00E9472091999FECF0E9431
:101680007E0990E080E0DDCFF80181918F010E941A
:101690003C09E5CFCF92DF92EF92FF920F931F9319
:1016A000CF93DF930E9499096B017C018EE48093B4
:1016B0007C0065E070E080E090E00E941C08809172
:1016C0007A00806480937A0080917A0086FDFCCF56
:1016D000809178002091790030E0322F2227032E6C
:1016E000000C440B550B282B60E070E381E190E087
:1016F0000E94FD22E901142F052F8CEB95E09F93AA
:101700008F930E94B61E0F900F9080E8C8168DEF41
:10171000D8068FEFE806F80649F583E695E09F9333
:101720008F930E94B61E0F900F9080EA95E09F93D2
:101730008F930E94B61E0F931F93DF93CF938BE678
:1017400095E09F938F930E94B61E8DB79EB7089623
:101750000FB6F8949EBF0FBE8DBFDF91CF911F9142
:101760000F91FF90EF90DF90CF900895C701B601E1
:1017700020E137E240E050E00E94FD229F938F93EA
:101780007F936F935F934F933F932F938BE595E0F8
:101790009F938F930E94B61E8DB79EB70A960FB681
:1017A000F8949EBF0FBE8DBFC0CF0F931F93CF93F2
:1017B000DF938F3F09F468C0F894082F082E000CBF
:1017C000110BF6E08F02E0011124C458DE4F1A829B
:1017D0008CE28B831C82F801E15CFE4F81EF8083F9
:1017E00078940F5F1F4F1F930F938EEB94E09F939E
:1017F0008F930E94B61E0F900F900F900F9023961C
:10180000888187FFFDCF1F930F9380E994E09F931A
:101810008F930E94B61E0F900F900F900F90DF9144
:10182000CF911F910F910895F894282F082E000C46
:10183000330B429FF001439FF00D1124E458FE4FFB
:10184000128253831482215C3E4FF90160837894A5
:101850008F5F9091220189173CF385E295E09F9379
:101860008F930E94B61E0F900F9036E020E080917B
:101870002201281774F082EF94E09F938F930E94C7
:10188000B61E0F900F90CBCF80E046E05CE261EF98
:10189000E0CF2303F0011124E458FE4F838187FF3A
:1018A000E5CF2F5FE4CF0E94DA09892B49F18091BF
:1018B000490190914A01A0914B01B0914C012091B6
:1018C0004701309148011F9247EF4F93BF93AF9369
:1018D0009F938F933F932F9386E494E09F938F93EE
:1018E0000E94B61E88E394E09F938F930E94B61ED9
:1018F0008DB79EB70C960FB6F8949EBF0FBE8DBFE6
:101900008091470190914801B0E0A0E080934901A7
:1019100090934A01A0934B01B0934C015E980895B7
:10192000FF920F931F93CF93DF93082FF62E8EE530
:1019300091E09F938F930E94B61EC02F002E000C43
:10194000DD0B86E008028001112404581E4F8C9F95
:10195000F0018D9FF00D1124E458FE4F83818F70AC
:101960000F900F908F3008F0EBC0E82FF0E0E554B7
:10197000F34F0C941C23CA0C640D6D0DA00DA00D2B
:10198000A00D700DA00D7E0DA00D8C0DA00D8F0D66
:10199000A00D9D0D86E08C9FF0018D9FF00D112410
:1019A000E458FE4F84811F928F938EED90E09F93B9
:1019B0008F930E94B61E0F900F900F900F908BE5A3
:1019C00091E09F938F930E94B61E85E591E09F93CF
:1019D0008F930E94B61E0F900F900F900F90F801FA
:1019E000838187FF08C088E091E09F938F930E94D6
:1019F000B61E0F900F90F801838185FF08C083E029
:101A000091E09F938F930E94B61E0F900F90F80164
:101A1000838184FF08C08AEE90E09F938F930E9499
:101A2000B61E0F900F9082E591E09F938F930E94D6
:101A3000B61E86E08C9F80018D9F100D11240458E6
:101A40001E4FF80182811F928F932196DF93CF93CF
:101A50008FE391E09F938F930E94B61EEDB7FEB780
:101A600038960FB6F894FEBF0FBEEDBFF1E0FF123F
:101A700025C0F801948183812381418130811F92A7
:101A80009F9390E054E0959587955A95E1F79F9341
:101A90008F932F701F922F931F924F931F923F93FC
:101AA0008DE091E09F938F930E94B61E8DB79EB7F5
:101AB0000C960FB6F8949EBF0FBE8DBFDF91CF91ED
:101AC0001F910F91FF90089583ED90E09F938F9366
:101AD0000E94B61E0F900F9072CF87EC90E0F6CF69
:101AE00086E08C9FF0018D9FF00D1124E458FE4F8D
:101AF00084811F928F938AEB90E059CF86E08C9F70
:101B0000F0018D9FF00D1124E458FE4F84811F9247
:101B10008F9380EB90E04BCF88EA90E0D7CF86E0C0
:101B20008C9FF0018D9FF00D1124E458FE4F8481AD
:101B30001F928F9380EA90E03ACF8BE990E0C6CF76
:101B400096E09C9FF0019D9FF00D1124E458FE4FFC
:101B500094811F929F931F928F9387E890E09F93A9
:101B60008F930E94B61E0F900F900F900F900F90C2
:101B70000F9025CF0F931F93CF93DF93D82F062F6E
:101B8000C42F122F5B9A8F3F89F1F89486E0D80218
:101B9000F0011124E458FE4F6283C062C3832483A2
:101BA00078948EE794E09F938F930E94B61E60E036
:101BB0008D2F0E94900C8CE794E09F938F930E944E
:101BC000B61E0F900F900F900F900BC0212F4C2F2F
:101BD000602F8D2F0E94BA0DDF5F80912201D817F0
:101BE000ACF3DF91CF911F910F910895D0E0F5CF25
:101BF0000F931F93CF93DF9300D000D000D0CDB7C9
:101C0000DEB74091240150E070E060E0CE01019623
:101C10000E9459218981813061F49A818091240147
:101C2000981307C09B818091250110E006E098176A
:101C3000E1F08EEF9FEF1FC06B81462F50E016033F
:101C4000B00111248A81680F711DCE0105960E9492
:101C500059218E819D811002F0011124E458FE4F1C
:101C6000F8949083818378941F5F8C81181724F3F4
:101C7000082E000C990B26960FB6F894DEBF0FBE07
:101C8000CDBFDF91CF911F910F9108955F926F9219
:101C90007F928F929F92AF92BF92CF92DF92EF92FC
:101CA000FF920F931F93CF93DF9300D000D000D00B
:101CB000CDB7DEB789E194E09F938F930E94B61E63
:101CC00080912201282F082E000C330B3F938F9315
:101CD00084EF93E09F938F930E94B61E1F9288E03B
:101CE0008F938FEC93E09F938F930E94B61E8EEE9E
:101CF00091E09F938F930E94B61E4091240150E083
:101D000070E060E0CE0101960E9459210FB6F89470
:101D1000DEBF0FBECDBF8981813051F49A818091A1
:101D20002401981305C09B8180912501981741F0EB
:101D30008BEC91E09F938F930E94B61E0F900F90B3
:101D400089811F928F938BEB91E09F938F930E94D9
:101D5000B61E8A811F928F938BEA91E09F938F9397
:101D60000E94B61E8B811F928F938BE991E09F9307
:101D70008F930E94B61E8C81282F082E000C330BE7
:101D80003F938F938BE891E09F938F930E94B61EB1
:101D90000FB6F894DEBF0FBECDBF10E0E4E6EE2E26
:101DA000E1E0FE2E8C8118170CF41DC186EB93E048
:101DB0009F938F930E94B61E0F900F9010E000E04B
:101DC00064EAE62E63E0F62E72EAC72E73E0D72EA1
:101DD00080912201082E000C990B081719070CF4AA
:101DE00027C18AE893E09F938F930E94B61E0E94BA
:101DF0000C099F938F938AE793E09F938F930E94A0
:101E0000B61E0E94DA090F900F900F900F900F905E
:101E10000F90892B41F082E793E09F938F930E946C
:101E2000B61E0F900F908091490190914A01A091A8
:101E30004B01B0914C012091470130914801BF9373
:101E4000AF939F938F933F932F9384E493E09F935B
:101E50008F930E94B61E80913E010FB6F894DEBFAC
:101E60000FBECDBF882341F089E393E09F938F930A
:101E70000E94B61E0F900F9010913E010E94C00963
:101E80001F921F939F938F938EE093E09F938F9366
:101E90000E94B61E0E944A0B6090200170902101A2
:101EA0000F900F900F900F900F900F90611471048E
:101EB00009F0D6C08AEF92E09F938F930E94B61EDE
:101EC00089E192E09F938F930E94B61E0F900F902E
:101ED0000F900F900CE012E03AE0E32E32E0F32E88
:101EE00040E1C42E42E0D42E52E1A52E52E0B52EA0
:101EF000862D0E945909582E43013FE083229924E0
:101F00008114910409F0A7C0C30124E09595879539
:101F10002A95E1F79F938F93BF92AF920E94B61ECE
:101F20000F900F900F900F908FE0851508F4A5C0CB
:101F3000DF92CF920E94B61E0F900F901F925F9279
:101F40001F930F930E94B61E0F900F900F900F904B
:101F50002FE08216910431F4FF92EF920E94B61E98
:101F60000F900F903FEF631A730A8FE768167104A2
:101F700009F0BECF88E092E09F938F930E94B61E37
:101F80000F900F901F9287EF8F9387E08F9388E0D9
:101F90008F931F9285E08F931F9289EF8F931F92EB
:101FA0008CE08F938FE492E09F938F930E94B61EF4
:101FB0000FB6F894DEBF0FBECDBF26960FB6F894CD
:101FC000DEBF0FBECDBFDF91CF911F910F91FF906C
:101FD000EF90DF90CF90BF90AF909F908F907F90C9
:101FE0006F905F9008956B81462F50E01603B0010B
:101FF00011248A81680F711DCE0105960E94592116
:102000008E811F928F938D811F928F93812F012E2E
:10201000000C990B01969F938F93FF92EF920E9471
:10202000B61E1F5F0FB6F894DEBF0FBECDBFBACE8F
:10203000FF92EF920E94B61E61E0802F0E94900CEA
:10204000DF92CF920E94B61E0F5F1F4F0F900F902E
:102050000F900F90BDCE9FE0981708F46FCF68CF18
:102060007F926F9284ED92E09F938F930E94B61EB1
:102070000F900F900F900F9085CF1F925F921F933C
:102080000F930E94B61E0F900F900F900F906ACF83
:10209000FC0190810180F281E02DF8948181292F4B
:1020A00020958223818378943DE7315011F180811E
:1020B0008923D9F3F8948281822382838181892BB9
:1020C00081837894ACEBB3E01197F1F7F8948181B8
:1020D00082238183A8E8B0E01197F1F780819823EB
:1020E00081E009F080E07894E0E3F3E03197F1F7E4
:1020F000089580E008958F929F92AF92BF92CF9201
:10210000DF92EF92FF920F931F93CF93DF938C0197
:10211000EB0180916E0190916F010E944810811136
:1021200002C090E03EC0B80180916E0190916F01B5
:102130000E94ED0840E06EEB80916E0190916F017E
:102140000E94B9088E015E0189E0A80EB11C809042
:102150006E0190906F0188E0C82ED12CF12CEE24F6
:10216000E394C4010E9466088111FE28EE0CE1E0B0
:10217000CE1AD108B1F7F801F1928F01EA15FB05EB
:1021800031F780916E0190916F010E94481081306B
:1021900041F668E0CE010E944F0891E0288528139F
:1021A000C0CF892FDF91CF911F910F91FF90EF90BA
:1021B000DF90CF90BF90AF909F908F900895CF9376
:1021C000DF93CDB7DEB729970FB6F894DEBF0FBE09
:1021D000CDBFBE016F5F7F4F0E947B10882331F01F
:1021E0008D818F33A9F020F48F31A1F080E007C0FA
:1021F0008F3521F08F37D1F78CE001C08BE0299625
:102200000FB6F894DEBF0FBECDBFDF91CF9108951A
:102210008AE0F5CF89E0F3CFBF92CF92DF92EF92C1
:10222000FF920F931F93CF93DF93EC01B62EC72E2F
:102230008D85811105C0CE010E94481081110EC00C
:102240001B861D861C8680E0DF91CF911F910F9128
:10225000FF90EF90DF90CF90BF90089540E060EF47
:10226000CE010E94B90801E0E12CD12C11E0CE0191
:102270000E946608F82ECE010E94660891E0F912CD
:1022800018C0813099F51134D8F2DB86D11002C024
:1022900081E08D878B81882399F22396EB2DFC2D8D
:1022A000CF01089629912193E817F907D9F781E022
:1022B000CBCFEE2DF0E0F8120FC08B851817A0F4ED
:1022C000DE01AE0FBF1F13968C91802379F4F12CA1
:1022D000193008F41C87D12EEC0FFD1F8381902F3D
:1022E0009095892383830AC08113F1CFFE01EE0DFF
:1022F000F11D8381802B8383FF24F3946F2DCE0106
:102300000E948A081F5F000F11F4E39401E087E048
:102310008E1508F0ACCFB7CFFF920F931F93CF93DA
:10232000DF938C01F62EE0916E01F0916F01138620
:1023300015861486128611861086178216821582DB
:1023400014821382C0E0B80180916E0190916F01F8
:102350000E940C11D82F882329F0FC1629F0CF5F9A
:10236000FC1688F7D0E008C067E0C8010E944F085B
:10237000F80197818913F3CF8D2FDF91CF911F91B2
:102380000F91FF9008952F923F924F925F926F921C
:102390007F928F929F92AF92BF92CF92DF92EF92F5
:1023A000FF920F931F93CF93DF93CDB7DEB76C9758
:1023B0000FB6F894DEBF0FBECDBF20916C012A8FFF
:1023C00010E000E0F0E82F2EADEF3A2EBAE94B2EE8
:1023D000BAE05B2E86E5682E8AE0782E4E014AE14F
:1023E000840E911C9AE1C92E9AE0D92E23E5A22EE3
:1023F0002AE0B22E5A8D051708F0A8C0602FCE0132
:1024000042960E948C110B8F1C8F882309F491C077
:10241000602FCE010A960E948C11811143C060E0AA
:1024200070E08EEF92EC20E030E040E251E40E9458
:1024300054220E94B821F62EE72E262E372E5F92C8
:102440004F920E94B61E8F2D9E2D0E94A60A2C8DA3
:102450002F934B8D4F93EF92FF927F926F920E943A
:10246000B61ECE0142967C010FB6F894DEBF0FBEB9
:10247000CDBFF70181917F011F928F93DF92CF92A1
:102480000E94B61E0F900F900F900F90E814F90461
:1024900081F7BF92AF920E94B61E0F900F900F5F10
:1024A0001F4FA8CFBE016F5F7F4FCE010A960E94DB
:1024B0007B10882309F4B3CF6A8170E0762F6627FA
:1024C000770F770F770F298188E0289F90011124DB
:1024D000262B372B8A858031D1F4688570E08F8177
:1024E000FB01E81BF109CF019695982F8827979556
:1024F00087950E94E922CB014097B90153E0660F0E
:10250000771F5A95E1F760789C01260F371F213815
:10251000F4EE3F070CF483CFB901330F880B990B0E
:102520000E94F02120E030E040E05CE30E94542271
:102530007ACF1F930F934FE15AE05F934F930E941E
:10254000B61E0F900F900F900F90A9CF209202010E
:1025500030920301C1016C960FB6F894DEBF0FBE36
:10256000CDBFDF91CF911F910F91FF90EF90DF9042
:10257000CF90BF90AF909F908F907F906F905F9023
:102580004F903F902F9008958F929F92AF92BF925D
:10259000CF92DF92EF92FF9280916E0190916F0146
:1025A0000E94481040E06CEC80916E0190916F01A8
:1025B0000E94B9084091680164E480916E01909195
:1025C0006F010E94B90880916A01882309F441C013
:1025D000E0916901E9506EEE72E0E33038F4F0E02A
:1025E000EE0FFF1FEB5CFE4F6081718180916B01EC
:1025F0008823C1F180916801811134C08FB7F894AC
:102600008090640190906501A0906601B090670190
:102610008FBF6B01770FEE08FF0880916E019091DC
:102620006F010E9466088130A1F02FB7F894809165
:10263000640190916501A0916601B09167012FBF7F
:102640008C199D09AE09BF0988159905AA05BB0516
:1026500020F3FF90EF90DF90CF90BF90AF909F90CE
:102660008F900895072E000C880B990BFF90EF9028
:10267000DF90CF90BF90AF909F908F900C941C08EC
:102680004F925F926F927F928F929F92AF92BF9282
:10269000CF92DF92EF92FF920F931F93CF93DF932E
:1026A0008C014A013901EC01F12CE12C2C0186EA64
:1026B000480E511C88E6A82E80E0B82EF2018081D9
:1026C0009181E816F9069CF090E080E0DF91CF91CF
:1026D0001F910F91FF90EF90DF90CF90BF90AF9040
:1026E0009F908F907F906F905F904F900895CE80D5
:1026F000DF8092E08916910464F0A6010D2C000C95
:10270000660B770BF301828193810E946C18892BF1
:10271000B9F48D858F938C858F93DF92CF92BF9282
:10272000AF92F80185818F9384818F930E94731EED
:102730008DB79EB708960FB6F8949EBF0FBE8DBF9B
:102740009FEFE91AF90A2896B9CFF8940E94C412AB
:1027500078942FE78FE492E1215080409040E1F798
:1027600000C000000E944A0B0E94D20A0E94C311BE
:102770000E94C00990E080E008958F929F92AF92EE
:10278000BF92CF92DF92EF92FF920F931F93CF935E
:10279000DF9300D0CDB7DEB74A01590184E999E053
:1027A000423051050CF484C04230510509F47CC01C
:1027B000F501848195810E94111EF82EF8E08BE7C7
:1027C00099E0FF1508F474C0EE24EA94EF0CF501CB
:1027D000C280D38048E759E0052E000C660B770BCA
:1027E000C6010E946C188C01892B09F068C0F5E0C5
:1027F0008F1691040CF49FC1FF2009F457C0F50116
:10280000868197810E94111E6C01F501808591855A
:102810000E94111E5C018E2D0E2C000C990BF89459
:1028200026E0289FF001299FF00D1124E458FE4F67
:10283000C082A1827894F8948081898381818A837F
:1028400060912501462F50E02E2D2603B001112462
:10285000E09024016E0D711DCE0101960E94692148
:102860007894BB24BF92AF92DD24DF92CF921F9267
:10287000FF928BE499E09F938F930E94B61E0FB650
:10288000F894DEBF0FBECDBFC8010F900F90DF914F
:10289000CF911F910F91FF90EF90DF90CF90BF905D
:1028A000AF909F908F900895F12C8ECF86E297E0A5
:1028B0009F938F930E94B61E0F900F90D6C046E450
:1028C00059E0052E000C660B770BC6010E946C18B0
:1028D0008C01892B01F5FF2049F3F5018681978151
:1028E0000E94111E6C0199279F938F931F92FF9254
:1028F0008CE199E09F938F930E94B61E20E04FE0F9
:102900006C2D8E2D0E94BA0D0F900F900F900F908E
:102910000F900F90B9CF47E159E0052E000C660BE0
:10292000770BC6010E946C188C01892B81F41F92D1
:10293000FF928AEF98E09F938F930E94B61E8E2D90
:102940000E94D50B0F900F900F900F909DCF46EFE8
:1029500058E0052E000C660B770BC6010E946C1820
:102960008C01892BF9F4F4E08F1691040CF47DC0EE
:10297000F501868197810E94111E6C0199279F9312
:102980008F931F92FF9289EC98E09F938F930E9400
:10299000B61E2C2D46E060E08E2D0E94BA0D0E94DE
:1029A000530CB2CF42EC58E0052E000C660B770BAF
:1029B000C6010E946C188C01892BB9F5F5E08F16C1
:1029C00091040CF452C0F501868197810E94111E7A
:1029D0006C01F501808591850E94111E282F082E1B
:1029E000000C330BA90137FF04C044275527421BB5
:1029F000530BB42E87FF02C06894B7F81F92BF92A2
:102A00003F938F93C60199279F938F931F92FF92B5
:102A10008FE898E09F938F930E94B61E2B2D48E07D
:102A20006C2D8E2D0E94BA0D2ACF48E858E0052E55
:102A3000000C660B770BC6010E946C188C01892B69
:102A4000A9F597E09E15A0F41F9288E08F931F923E
:102A50001F928DE498E09F938F930E94B61E0F9073
:102A60000F900F900F900F900F9001E010E00CCF9F
:102A7000F09222018091220180932601409124014D
:102A800050E070E060E083E291E00E9469211F92D3
:102A9000FF9282E298E09F938F930E94B61E8AEC89
:102AA00097E09F938F930E94B61E2ECF45EC57E080
:102AB000052E000C660B770BC6010E946C188C016A
:102AC000892B79F41F92FF928CE997E09F938F9363
:102AD0000E94B61E20E04EE060E08E2D0E94BA0DEE
:102AE00031CF47E957E0052E000C660B770BC60186
:102AF0000E946C188C01892B19F40E94460EC4CEDA
:102B000042E957E0052E000C660B770BC6010E94C8
:102B10006C188C018DE697E00115110509F0C8CEFF
:102B20000E94530C87E897E09F938F930E94B61EF4
:102B30000F900F90A9CE02E010E0A6CE6F927F9288
:102B40008F929F92AF92BF92CF92DF92EF92FF92BD
:102B50000F931F93CF93DF93CDB7DEB7C254D10944
:102B60000FB6F894DEBF0FBECDBFB82E5D9ACE0172
:102B700001967C0180E4F70111928A95E9F7F6E06D
:102B8000BF9E8001112404581E4F8CE0F8018583FC
:102B9000680198012B5F3F4FD9018C919191890F6A
:102BA0008C93E217F307C9F72396FFAEEEAE239797
:102BB00010923D0184E090E02AEA2396EEADFFAD4D
:102BC0002397AF014F5F5F4F23965FAF4EAF2397C1
:102BD0002083019791F79CE0892E912CBE016F5BB9
:102BE0007F4F90E080E00E94FA09F1E08F1A91088F
:102BF000A9F7BE016F5B7F4F81E090E00E94FA0968
:102C00000A5F1F4FF601A1906F0188E0682E712CBA
:102C1000912C812C8A2D8078BE016F5B7F4F90E0D4
:102C20000E94FA098A2D881F8827881F8826AA0CE7
:102C3000F1E06F1A710871F7BE016F5B7F4FC4013D
:102C40000E94FA090C151D05E9F6BE016F5B7F4F66
:102C500090E080E00E94FA09BE016F5B7F4F90E038
:102C600080E00E94FA0923960EAD1FAD23970E193E
:102C70001F090F5F1F4F602FC7010E940D0B8FE0D0
:102C800097E20197F1F700C00000602FC7010E9492
:102C90000D0B5D9885E790E09F938F930E94B61E81
:102CA00060E08B2D0E94900C83E790E09F938F93C0
:102CB0000E94B61E0F900F900F900F90CE5BDF4FCB
:102CC0000FB6F894DEBF0FBECDBFDF91CF911F913D
:102CD0000F91FF90EF90DF90CF90BF90AF909F90BB
:102CE0008F907F906F9008951F920F920FB60F9262
:102CF00011242F933F938F939F93AF93BF93809112
:102D0000640190916501A0916601B09167013091D5
:102D10005F0126E0230F2D3758F50296A11DB11D46
:102D200020935F018093640190936501A0936601F5
:102D3000B09367018091600190916101A09162015F
:102D4000B09163010196A11DB11D80936001909324
:102D50006101A0936201B0936301BF91AF919F9114
:102D60008F913F912F910F900FBE0F901F9018954C
:102D700029E8230F0396A11DB11DD2CF1F920F92F8
:102D80000FB60F9211242F923F924F925F926F9243
:102D90007F928F929F92AF92BF92CF92DF92EF92EB
:102DA000FF920F931F932F933F934F935F936F93D4
:102DB0007F938F939F93AF93BF93CF93DF93EF93C3
:102DC000FF9380914D0190914E01A0914F01B091E0
:102DD00050010196A11DB11D80934D0190934E01AC
:102DE000A0934F01B09350015B9A0E94DA09892B9E
:102DF00009F440C08091490190914A01A0914B0192
:102E0000B0914C0120914701309148011F92C7EFCA
:102E1000CF93BF93AF939F938F933F932F9381EF64
:102E200096E09F938F930E94B61E1F92CF9384EAE1
:102E300096E09F938F930E94B61E27EF46E060E0D6
:102E40008FEF0E94BA0D8091470190914801B0E048
:102E5000A0E08093490190934A01A0934B01B09365
:102E60004C015E9A8DB79EB70E960FB6F8949EBF32
:102E70000FBE8DBF8091200190912101892B09F413
:102E800013C15E9A86E796E09F938F930E94B61EC9
:102E90000F900F903AC0E72C072C000CFF086E9C97
:102EA00080016F9C100D112404581E4FF801818180
:102EB00093819F70E701C15CDE4F9C3009F049C0EF
:102EC000888180FF05C088818483872D0E949E159C
:102ED000888181508883833050F438826E9CF00161
:102EE0006F9CF00D1124E458FE4F5382248273949A
:102EF0008091220178167CF28091470190914801DF
:102F0000019690934801809347015B98FF91EF9160
:102F1000DF91CF91BF91AF919F918F917F916F91F1
:102F20005F914F913F912F911F910F91FF90EF90E3
:102F3000DF90CF90BF90AF909F908F907F906F90D9
:102F40005F904F903F902F900F900FBE0F901F906B
:102F5000189593819F709F3041F41882872D0E94AD
:102F60009E15F80153821482C2CF877090E02881A9
:102F70002F5F288348819C012E513F4F4217130633
:102F800039F47110B4CFF8940E94C4127894AFCF82
:102F900048819C012C513F4F4217130609F074C021
:102FA000711025C00E944A0B0E94D20A0E94C311D0
:102FB0000E94C00920913E01893791050CF045C05F
:102FC000211112C020914701309148013F932F9366
:102FD0009F938F939F928F920E94B61E0F900F9097
:102FE0000F900F900F900F9040923E015E9A80914B
:102FF0003E01882309F47BCF6E9CF0016F9CF00D9D
:103000001124E458FE4F83818F70863009F06FCF12
:103010008481893F08F06BCF1F92F9EFFF938FEF08
:10302000E81AF80AFF92EF92DF92CF920E94B61E42
:1030300029EF46E060E0872D0E94BA0D0F900F90B7
:103040000F900F900F900F9052CF213091F420915C
:103050004701309148013F932F939F938F93BF92E5
:10306000AF920E94B61E0F900F900F900F900F908E
:103070000F9080913E01882309F4B9CF80913E01E1
:10308000815080933E01B3CF28818A519F4F2817EA
:10309000190609F02CCF1882872D0E949E15F80181
:1030A00083818068838323CF712C86E0682E92ED24
:1030B000C92E95E0D92E24E1A22E26E0B22E35E0CD
:1030C000432E45E4842E46E0942E50E2552E6EEDBC
:1030D000362E74EF272E0CCFFA01DC018D9105906E
:1030E000801911F40020D1F7990B0895CF93DF9345
:1030F000CDB7DEB76F970FB6F894DEBF0FBECDBF6A
:10310000789484B5826084BD84B5816084BD85B5C2
:10311000826085BD85B5816085BD80916E008160CE
:1031200080936E0010928100809181008260809374
:103130008100809181008160809381008091800076
:103140008160809380008091B10084608093B100A1
:103150008091B00081608093B00080917A0084609B
:1031600080937A0080917A00826080937A008091C7
:103170007A008E7F80937A0080917A0080688093B5
:103180007A001092C10004B714BE86E185B988E3C5
:1031900088B98BE68BB98CEE84B98FEF87B98EEF47
:1031A0008AB912E01093C0001092C1001092C200C0
:1031B0008091C20086608093C20080E18093C40049
:1031C0001092C50082E191E0909301038093000387
:1031D000909303038093020384E091E09093FF02B5
:1031E0008093FE0288E18093C1005B9A5E9A5D9AAB
:1031F0001F9281E08F938FEE9EE09F938F930E94AA
:10320000B61E86E29EE09F938F930E94B61E1F9289
:103210008AE78F9382E18F931F928FE09EE09F93C6
:103220008F930E94B61E1F920F938AEF9DE09F938B
:103230008F930E94B61E0E944A0B109280008CE071
:103240008093810088E09DE39093890080938800BB
:1032500010936F00789487ED9DE09F938F930E9469
:10326000B61E8FE59AEE0197F1F700C000002A9A8A
:103270001CBC1DBC80E58CBD80E00E945909082F54
:103280000F7181E00E945909182F1F711F921F931F
:103290001F920F9382E89BE09F938F930E94B61E2C
:1032A0000FB6F894DEBF0FBECDBF083019F416304C
:1032B00009F413C180E59BE09F938F930E94B61E93
:1032C0008FEF9FEF90932101809320018FEB9DE082
:1032D0009F938F930E94B61E0F900F900F900F90A8
:1032E000CC24CA94DC2CF8940E94F80D182FE82EF8
:1032F000082E000CFF087894F7FEA2C188E09CE03D
:103300009F938F930E94B61E0F900F900E94460EBF
:1033100080910003909101032091FE023091FF0201
:103320003093AF012093AE019093B1018093B0012F
:1033300086EA9DE09093AD018093AC014DE45CE0A2
:1033400060E473E185E69CE00E94620A43E05DE090
:103350006DEB73E182EA9DE00E94620A43EE5CE05D
:1033600065EA73E18FEF9CE00E94620A44EC5CE046
:1033700065E97AE08FED9CE00E94620ACD2859F55C
:103380008091220118163CF50E94530C83EA9CE0C0
:103390009F938F930E94B61E8FEF0E94D50B83E9F7
:1033A0009CE09F938F930E94B61E1F9284EF8F9391
:1033B0008AE69CE09F938F930E94B61E24EF46E01E
:1033C00060E08FEF0E94BA0D0E94530C0FB6F89484
:1033D000DEBF0FBECDBF8BE29FE09F938F930E9415
:1033E000B61EE0916E01F0916F011386158614866A
:1033F0001286118610861782168215821482138215
:1034000010926C0110926D010F900F9001E0BE01BF
:10341000615F7F4F80916E0190916F010E940C114E
:10342000882309F453C167E0CE010F960E944F082C
:103430009E898913ECCF80916801811128C0809109
:103440006E0190916F010E944810BE01615F7F4F35
:1034500080916E0190916F010E94ED0840E064EB55
:1034600080916E0190916F010E94B90880916E0168
:1034700090916F010E946608182F80916E019091C3
:103480006F010E944810111102C000936801109151
:1034900069018F85803109F459C3CE010F960E94CE
:1034A000DF10811708F001C18091690180936901E3
:1034B00080916C018F5F80936C018F85883239F029
:1034C00008F0FDC0803119F0823209F0A0CF809160
:1034D0006D018F5F80936D019ACF8CE29BE09F938B
:1034E0008F930E94B61E60E887E00E9472090F90D9
:1034F0000F901999FECF0E94420986E19BE09F93AD
:103500008F930E94B61E0E947E0960E088E00E94B0
:10351000720963E785E70E94720960E074E686E756
:103520000E94610961E08AE70E94720963E289E70B
:103530000E94720970E060E083E70E94610961E225
:1035400081E70E94720965EF78E28EE60E946109C8
:1035500060E280E70E9472096FE08DE60E947209C6
:103560008EE0E7E2F1E0DE01119601900D928A957E
:10357000E1F72A988CE90E943C098E010F5F1F4FEA
:103580007E01FBE0EF0EF11C0F900F90F80181918E
:103590008F010E943C090E151F05C1F72A9A2A982F
:1035A0008AEA0E943C098B850E943C092A9A2A9843
:1035B0008CEA0E943C098C850E943C098D850E9402
:1035C0003C098E850E943C092A9A60E689E60E94A1
:1035D000720960E185E30E94720966E083E30E945C
:1035E00072092A9886EB0E943C098CEC0E943C09E7
:1035F0008CEC0E943C098CEC0E943C098CEC0E94F3
:103600003C092A9A60E080E30E94720965E18BE040
:103610000E94720962E18CE00E94720910922101FD
:10362000109220018AEA9DE09F938F930E94B61E1C
:103630005B985D985E980F900F90D12CC12C53CE63
:10364000FF928F938BED9BE09F938F930E94B61E0A
:10365000109322010F900F900F900F9010E000E058
:10366000B6E09B2E83EBA82E8BE0B82E0E151F051F
:103670000CF04CCE909EF001919EF00D1124E45878
:10368000FE4F918180810F5F1F4F1F929F931F926A
:103690008F931F930F93BF92AF920E94B61E0FB6E7
:1036A000F894DEBF0FBECDBFE1CF8F85803111F41E
:1036B0008CE0FCCECE010F960E94DF10F7CE8B334C
:1036C00009F405CF823409F0A2CE01CF8CE08093BB
:1036D0006901F12CE12C0FE5EFE7DE2EFFE1CF2EA3
:1036E000AFE3BA2E80916C0190E0E816F9060CF079
:1036F000A2C06E2DCE0148960E948C1110916901D6
:103700001D3018F11CE0888D803119F1CE014896EA
:103710000E94DF10811709F486C0BE01615F7F4FF0
:10372000CE0148960E947B10882309F47CC0888DC6
:10373000803109F478C01B3009F479C01C3059F08D
:103740001A3009F076C0BB8A07C01930E0F619E0DC
:10375000DACF8CE0DFCFDB8A80916E0190916F0130
:103760000E944810BE01685E7F4F80916E0190916B
:103770006F010E94ED0840E06EE480916E0190912F
:103780006F010E94B90840E0698980916E019091B3
:103790006F010E94B90840E06A8980916E019091A2
:1037A0006F010E94B908888D803141F040E06B893B
:1037B00080916E0190916F010E94B90880916E0115
:1037C00090916F010E944810BE01685E7F4F80910A
:1037D0006E0190916F010E94ED084091680168E4CC
:1037E00080916E0190916F010E94B90864E170E0D0
:1037F00080E090E00E941C0880916801882331F0ED
:103800006AE070E080E090E00E941C0880916E0108
:1038100090916F010E94481080916901811708F40E
:10382000812F80936901FFEFEF1AFF0A5BCF0B8BAB
:1038300093CFCB8A91CF9F938F9381E09FE09F930B
:103840008F930E94B61E84E79FE09F938F930E9400
:10385000B61E0F900F900F900F900F900F9054E5A1
:10386000452E52E0552ECC24C394D12C77E6672EFA
:103870007FE0772E6091B0017091B1018091AC0131
:103880009091AD010E948E1E6091B0017091B101C6
:1038900081E79FE00E948E1E5092DB024092DA0286
:1038A000D092D902C092D8021092D5021092D402BE
:1038B0008091AE019091AF010E94371EF82E0091C9
:1038C000D6021091D7020115110541F42AE08217A2
:1038D00009F4B6C08DE0F81609F4B2C098E0F91604
:1038E00009F45CC0EFE1EF150CF455C0FAE0FF12EB
:1038F000DFCF8091D4029091D5028F379105C1F22C
:103900008091D8029091D902409791F26091B001D4
:103910007091B1018F2D0F2C000C990B0E94CB20C0
:103920008091D6029091D702892B09F081C0F0E2F4
:10393000FF1204C1F12C8091D4029091D5029C0118
:1039400024553E4FF901E855FF4FF0820097E9F00A
:10395000FF20D9F029553F4FF9012081211115C0D1
:103960002091D8023091D902A9014F5F5F4F509347
:10397000D9024093D802220F331FF901E652FD4FBE
:103980009C012C5A3D4F3183208301969093D502A0
:103990008093D4028DCF2FE7F212ABCF8091D40267
:1039A0009091D502892B09F483CF6091B001709179
:1039B000B10188E090E00E94CB206091B00170914D
:1039C000B10180E290E00E94CB206091B001709143
:1039D000B10188E090E00E94CB202091D402309188
:1039E000D502A901415051095093D5024093D40208
:1039F000CA0184559E4F452BB1F0FC01E855FF4F9D
:103A00004081442381F02E5A3D4FF901208121113C
:103A10000AC02091D8023091D90221503109309347
:103A2000D9022093D80288559F4FFC01108240CFC5
:103A300022E2F21280CF1092D7021092D6027ACFF1
:103A4000E091D402F091D502EC5AFD4F10826091C2
:103A5000B0017091B1018AE090E00E94CB2080918A
:103A6000D4029091D502892B09F404CFA090520280
:103A7000B09053028090DA029090DB022CEAE22EA2
:103A800021E0F22E0A151B050CF045C0F701468116
:103A90005781052E000C660B770BC4010E946C1831
:103AA000F8E0EF0EF11C98012F5F3F4F892B09F0D2
:103AB00043C04091D8025091D902F80183E0EE0F43
:103AC000FF1F8A95E1F7E455FE4F6285738593E009
:103AD000220F331F9A95E1F7F901E455FE4F01904B
:103AE000F081E02D2AED32E08CEA91E00995009713
:103AF00091F09F938F937F926F928091B1018F93FA
:103B00008091B0018F930E94731E0F900F900F90C1
:103B10000F900F900F9080915202909153020817CE
:103B2000190709F0A7CE6091B0017091B10186E547
:103B30009FE00E948E1E9ECE8901A4CF22E2F21247
:103B4000FACED092D702C092D602B2CE1D3008F083
:103B5000ABCCAECDCF93DF9344EE5AE0FA01649143
:103B600080ED9AE0FC0124912223C1F030E0220F85
:103B7000331FF901E654F54FA591B491F901E055D1
:103B8000F54FC591D4917FB7F8943C91262F20959D
:103B900032233C933881232328837FBFFA01449149
:103BA00040935101FC018491E82FF0E0EE0FFF1FDC
:103BB000EC53F54F8591949190935301809352016A
:103BC00010925C0110925E0110925D0110925B01F7
:103BD00010925A01109259011092580110925701F7
:103BE00010925601109255011092540181E591E016
:103BF00090936F0180936E0110926C0110926D0191
:103C00001092680189E08093690181E080936A01E4
:103C100080936B0110927B0110927A01DF91CF911A
:103C20000895FC0188279927E89421912032E9F32F
:103C3000293010F02E30C8F32B3241F02D3239F4F8
:103C4000689404C00E942F1E820F911D2191205361
:103C50002A30C0F31EF4909581959F4F08957AE025
:103C6000979F902D879F802D910D11240895CF93BC
:103C7000DF93EC012B8120FF1AC026FF0CC02F7BA5
:103C80002B838E819F8101969F838E838A8190E012
:103C9000DF91CF91089522FF18C0E881F9818081DA
:103CA000082E000C990B009729F420622B838FEFCC
:103CB0009FEFEECF3196F983E8832E813F812F5F0E
:103CC0003F4F3F832E839927E3CFEA85FB850995F4
:103CD00097FFF3CF2B81019621F080E2822B8B831B
:103CE000E6CF80E1FBCFB0E0A0E0E9E7FEE10C9495
:103CF0008F210F811885F801838188608383AE014D
:103D0000455F5F4F69857A85C8010E94DB1EF80117
:103D10002381277F2383E4E00C94AB21EF92FF9271
:103D20000F931F93CF93DF938C017B01DB011396DD
:103D30008C91D0E0C0E081FD0FC0CFEFDFEF10C06D
:103D4000D7011896ED91FC91B7010995892B11F0D7
:103D5000CFEFDFEF0F5F1F4FF80184918111F0CF9C
:103D6000CE01CDB7DEB7E6E00C94A921B0E0A0E02B
:103D7000ECEBFEE10C948F21AE01495F5F4FDA015D
:103D80006D917D91AD010EEF12E0F801828193817A
:103D9000DC0113962C911397286013962C930E94A4
:103DA000DB1ED8011296ED91FC912381277F23839E
:103DB000E4E00C94AB21ABE0B0E0E1EEFEE10C946A
:103DC00081217C013B018A01FC01178216828381DB
:103DD00081FFC8C1CE0101965C01F7019381F30117
:103DE00093FD859193FF81913F01882309F453C18D
:103DF000853239F493FD859193FF81913F0185329E
:103E000029F4B70190E00E94CB20E7CF912C212C20
:103E1000312CFFE1F31538F08B3211F190F4803240
:103E200009F1833229F137FC3CC020ED280F2A30FC
:103E300050F536FE20C08AE0989E200D1124922E67
:103E400006C08D3291F0803371F7689430F8F30139
:103E500093FD859193FF81913F018111DACF21C0BC
:103E6000689431F8689432F8F2CF689433F8EFCF61
:103E7000689434F8ECCFEAE02E9E200D1124222E17
:103E8000689435F8E4CF8E3229F436FC04C1689486
:103E900036F8DDCF8C3619F4689437F8D8CF8836E9
:103EA000B1F2982F9F7D95549330E0F08336A1F1C5
:103EB0008337C1F1833509F063C02801F2E04F0E6A
:103EC000511CF801C080D180692D70E036FC02C021
:103ED0006FEF7FEFC6010E94B5204C01689437F860
:103EE00082010AC00C5F1F4FFFE3F983882483948B
:103EF000912C6501E89437F833FE2DC0522C8114C3
:103F0000910471F5552009F468CFB70180E290E083
:103F10000E94CB205A94F6CFF801808189830E5FEE
:103F20001F4FE4CF2801F2E04F0E511CF801C08072
:103F3000D180692D70E036FC02C06FEF7FEFC601C3
:103F40000E94C0204C018201D5CFB70180E290E0F1
:103F50000E94CB202A942814190409F0B0F7CECF80
:103F6000F60137FC859137FE81916F01B70190E032
:103F70000E94CB2051105A94F1E08F1A9108BFCFC4
:103F8000843619F0893609F077C0F80137FE6BC026
:103F900060817181828193810C5F1F4FF32DFF76C9
:103FA0003F2E97FF09C090958095709561957F4F42
:103FB0008F4F9F4F689437F82AE030E0A5010E94A8
:103FC000FB20C82ECA188C2C432C36FE0CC0E8945B
:103FD00040F8C91440F434FE05C032FC03C0F32D90
:103FE000FE7E4F2E892C44FE95C0FE01EC0DF11D86
:103FF0008081803309F087C0242D297E422E842DB4
:104000008870582E43FC95C040FE8FC09C2C8214B3
:1040100018F42C0C922C981844FE91C0B70180E340
:1040200090E00E94CB2042FE09C088E790E041FE6C
:1040300002C088E590E0B7010E94CB20C91408F4C3
:104040008AC0CA94D12C9FEFC91AD90ACA0CDB1CAA
:10405000F60182916F01B70190E00E94CB20AC1471
:10406000BD04B1F74FCF60817181072E000C880B22
:10407000990B0E5F1F4F92CFD32CE894D4F82AE00F
:1040800030E0853739F1232D297FD22E8F3601F18B
:1040900048F48835A9F0F701868197812B96E2E1F3
:1040A0000C949D21803749F08837A9F7D4FE02C0CF
:1040B0006894D2F820E130E00DC06894D4F8F6CFCF
:1040C00034FE03C0822F8660D82E20E132E002C089
:1040D00028E030E0F801D7FE0FC060817181828155
:1040E00093810C5F1F4FA5010E94FB20C82ECA18A8
:1040F0003D2CE89437F867CF6081718190E080E0D3
:104100000E5F1F4FF0CF42FC02C0839478CF8394A0
:10411000839475CF842D867809F471CFF6CFB701DB
:1041200080E290E00E94CB2083948214C0F3512C53
:1041300073CF522C5818821408F46ECFF8CF842D08
:10414000867809F47BCF8BE241FE80E247FC8DE26A
:10415000B70190E071CFB70180E390E00E94CB20DF
:104160009A946CCF8FEF9FEF99CFFC01059061502F
:1041700070400110D8F7809590958E0F9F1F08957D
:10418000FC016150704001900110D8F78095909526
:104190008E0F9F1F08950F931F93CF93DF93182FB8
:1041A000092FEB018B8181FD09C01FEF0FEF812FDC
:1041B000902FDF91CF911F910F91089582FF14C02E
:1041C0002E813F818C819D81281739073CF4E8813D
:1041D000F981CF0101969983888310838E819F8115
:1041E00001969F838E83E3CFE885F985812F09951A
:1041F000892BA1F3DACFFA01AA27283051F1203117
:1042000081F1E8946F936E7F6E5F7F4F8F4F9F4F6A
:10421000AF4FB1E03ED0B4E03CD0670F781F891FAC
:104220009A1FA11D680F791F8A1F911DA11D6A0F7A
:10423000711D811D911DA11D20D009F468943F912D
:104240002AE0269F11243019305D3193DEF6CF012C
:104250000895462F4770405D4193B3E00FD0C9F7F2
:10426000F6CF462F4F70405D4A3318F0495D31FD5F
:104270004052419302D0A9F7EACFB4E0A6959795B2
:10428000879577956795BA95C9F700976105710588
:1042900008959B01AC010A2E0694579547953795D2
:1042A0002795BA95C9F7620F731F841F951FA01D2C
:1042B0000895DC01CB01FC01F999FECF06C0F2BDE7
:1042C000E1BDF89A319600B40D9241505040B8F7D4
:1042D0000895DC01CB0103C02D910E94742141504F
:1042E0005040D0F70895262FF999FECF1FBA92BDFE
:1042F00081BD20BD0FB6F894FA9AF99A0FBE0196C7
:1043000008952F923F924F925F926F927F928F9279
:104310009F92AF92BF92CF92DF92EF92FF920F9354
:104320001F93CF93DF93CDB7DEB7CA1BDB0B0FB65E
:10433000F894DEBF0FBECDBF09942A88398848881B
:104340005F846E847D848C849B84AA84B984C884B1
:10435000DF80EE80FD800C811B81AA81B981CE0FA8
:10436000D11D0FB6F894DEBF0FBECDBFED0108958D
:104370000E94BF216894B1110C944E2208950E94AE
:10438000332288F09F5798F0B92F9927B751B0F092
:10439000E1F0660F771F881F991F1AF0BA95C9F7C9
:1043A00014C0B13091F00E944D22B1E008950C94F8
:1043B0004D22672F782F8827B85F39F0B93FCCF3AB
:1043C000869577956795B395D9F73EF49095809546
:1043D000709561957F4F8F4F9F4F0895E89409C066
:1043E00097FB3EF490958095709561957F4F8F4F28
:1043F0009F4F9923A9F0F92F96E9BB279395F6953E
:10440000879577956795B795F111F8CFFAF4BB0FBB
:1044100011F460FF1BC06F5F7F4F8F4F9F4F16C01F
:10442000882311F096E911C0772321F09EE8872FA9
:10443000762F05C0662371F096E8862F70E060E065
:104440002AF09A95660F771F881FDAF7880F9695DE
:10445000879597F9089557FD9058440F551F59F0C7
:104460005F3F71F04795880F97FB991F61F09F3F61
:1044700079F087950895121613061406551FF2CF8A
:104480004695F1DF08C0161617061806991FF1CFDA
:1044900086957105610508940895E894BB27662701
:1044A0007727CB0197F908950E9467220C94D822B0
:1044B0000E94CA2238F00E94D12220F0952311F0E8
:1044C0000C94C1220C94C72211240C944E220E94F9
:1044D0002B2270F3959FC1F3950F50E0551F629FFB
:1044E000F001729FBB27F00DB11D639FAA27F00D4D
:1044F000B11DAA1F649F6627B00DA11D661F829F74
:104500002227B00DA11D621F739FB00DA11D621F58
:10451000839FA00D611D221F749F3327A00D611D75
:10452000231F849F600D211D822F762F6A2F112457
:104530009F5750409AF0F1F088234AF0EE0FFF1F8A
:10454000BB1F661F771F881F91505040A9F79E3FE1
:10455000510580F00C94C1220C944E225F3FE4F38D
:10456000983ED4F3869577956795B795F795E79537
:104570009F5FC1F7FE2B880F911D9695879597F940
:10458000089597F99F6780E870E060E008959FEFD5
:1045900080EC089500240A941616170618060906DA
:1045A000089500240A9412161306140605060895A9
:1045B000092E0394000C11F4882352F0BB0F40F431
:1045C000BF2B11F460FF04C06F5F7F4F8F4F9F4F71
:1045D000089597FB072E16F4009407D077FD09D0B5
:1045E0000E942D2307FC05D03EF4909581959F4FA6
:1045F0000895709561957F4F0895052E97FB1EF4E1
:1046000000940E94142357FD07D00E94412307FC09
:1046100003D04EF40C941423509540953095219579
:104620003F4F4F4F5F4F08959095809570956195DE
:104630007F4F8F4F9F4F0895EE0FFF1F0590F4910E
:10464000E02D09940E946323A59F900DB49F900DC7
:10465000A49F800D911D11240895AA1BBB1B51E13D
:1046600007C0AA1FBB1FA617B70710F0A61BB70BE2
:10467000881F991F5A95A9F780959095BC01CD0187
:104680000895A1E21A2EAA1BBB1BFD010DC0AA1F93
:10469000BB1FEE1FFF1FA217B307E407F50720F0AB
:1046A000A21BB30BE40BF50B661F771F881F991F26
:1046B0001A9469F760957095809590959B01AC016F
:1046C000BD01CF010895A29FB001B39FC001A39F78
:1046D000700D811D1124911DB29F700D811D11243B
:0846E000911D0895F894FFCF2D
:1046E800010180FD00000001000000000000460AF2
:1046F80000000000000200000000500A0000000056
:1047080001000101040208C1400A039600DA74009E
:0C471800DC2428FA295E00BC00770100B8
:00000001FF
