:100000000C9493070C94BB070C94BB070C94BB0790
:100010000C94BB070C94BB070C94BB070C94BB0758
:100020000C94BB070C94BB070C94BB070C940516EF
:100030000C94BB070C94BB070C94BB070C94BB0738
:100040000C94BB150C94BB070C94BB070C94BB071A
:100050000C94BB070C94BB070C94BB070C94BB0718
:100060000C94BB070C94BB0725313653202D20255B
:10007000530A000A004C4F47204648542030205273
:10008000464D5F54582000636D64203078256875B4
:1000900020657874203078256875005445535400E5
:1000A00053594E432025750044455343414C450068
:1000B0004F46465345542025640056414C56455FF3
:1000C0005345542025750056414C56455F434C4FCF
:1000D00053450056414C56455F4F50454E005359CD
:1000E0004E435F53455420257500454E41424C45D3
:1000F0005F4C4F575F424154545F5741524E494EF7
:100100004720004558542000525054200020686376
:100110003D27257525752720636D644C3D27307874
:100120002568752720636D64553D273078256875EF
:1001300027206578743D273078256875272000676B
:1001400072703D27256427206164723D272575273D
:100150002000272000464C473D2700272000434D24
:10016000443D27004C4F4720464854203120454508
:1001700050524F4D2047726F75703D2725752720CF
:1001800068633D2725752575270A0067726F7570AE
:1001900073206E756D202025750A0067726F75706B
:1001A0005F73697A65202025750A0068656164655A
:1001B000725F73697A652025750A007665727369C6
:1001C0006F6E202020202025750A004C4F472046C6
:1001D0004854203120454550524F4D2048656164B8
:1001E0006572206D69736D61746368210A000A2A63
:1001F0002A2A20454550524F4D2064617461207277
:1002000065706F72743A0A000A000A0025582000CF
:100210003000302558203A20002020202020303087
:10022000203031203032203033203034203035201F
:1002300030362030372030382030392030412030DF
:10024000422030432030442030452030460A0053BD
:10025000455454494E47533A204648545F46524508
:10026000455A494E475F54454D503D25642C204624
:1002700048545F465245455A494E475F5345545F7F
:1002800056414C55453D307825582C204652454521
:100290005A494E475F494E49545F434F554E543D6E
:1002A00025753B204648545F50414E49435F5449B1
:1002B0004D454F55543D25752C204648545F5041BF
:1002C0004E49435F5345545F56414C55453D307848
:1002D00025580A004C4F47204648542031205241AF
:1002E00044494F204641494C45442073746174751C
:1002F000732069732025642E0A004C4F472046481E
:1003000054203120524144494F206F6B0A004C6108
:100310007374206B6E6F776E2074656D703A202554
:10032000642F31302C20667265657A696E67206DA6
:100330006F64653A2025750A00557074696D6520F3
:10034000696E207469636B733A2025753B206C617C
:10035000737420656E7120636F6D6D616E642061D2
:10036000743A2025750A000A2A2A2A2054656368EF
:100370006E6963616C207265706F72743A0A000A6C
:10038000004C4F472046485420312052464D5F5480
:100390005120000A2A2A2A204D657373616765730C
:1003A00020656E7175657565643A0A004E756D62FB
:1003B0006572206F662067726F757073206D61784B
:1003C000696D756D3A202020202020202025750A97
:1003D000004E756D626572206F662067726F757072
:1003E000732063757272656E746C792075736564C1
:1003F0003A2025750A000A2A2A2A20437572726556
:100400006E742073657474696E6773207265706FA3
:1004100072743A0A000A004C4F4720464854203074
:100420002052464D5F545120004C4F4720464854BF
:1004300020312052464D5F54582053594E4320538B
:10044000796E632067726F757020256420636F6D0D
:10045000706C6574650A004C4F4720464854203143
:100460002052464D5F54582053594E4320576169DE
:1004700074696E6720666F722067726F75702025D1
:10048000642073796E632E2E2E0A004C4F4720464F
:10049000485420312052464D5F54582053594E4302
:1004A0002053796E63206F6620616C6C2067726FD9
:1004B00075707320636F6D706C6574650A004C4FC6
:1004C000472046485420312052464D5F545820530F
:1004D000594E432057616974696E6720666F7220B8
:1004E000414C4C2067726F7570732073796E632E68
:1004F0002E2E0A00256C642E256C6400756E6B6EC2
:100500006F776E004D534720564343204C4F434175
:100510004C2076616C75653D27256C642720756ECF
:1005200069743D276D5627206465765F7479706520
:100530003D276D333238270A002720756E69743DD8
:10054000274327206465765F747970653D276D3396
:100550003238270A004D534720544D50204C4F430A
:10056000414C2076616C75653D27004C4F47204615
:100570004854203020465245455A494E4720545849
:1005800020656E666F7263696E672067726F757043
:100590003D272575272076616C7665206F70656E26
:1005A000696E6720746F20307825580A004C4F47D9
:1005B00020464854203020465245455A494E47204F
:1005C0004C45415645206C6173745431303D2725AC
:1005D00064207469636B3D27257527270A004C4FFB
:1005E0004720464854203020465245455A494E47F8
:1005F00020454E544552206C6173745431303D2770
:10060000256427207469636B3D272575270A0043FD
:100610004C49206668745F7469636B2069676E6F0C
:100620007265642C2020726164696F206E6F742083
:10063000696E7469616C697A65642E0A00434C497D
:100640002050414E49432073657474696E67206180
:100650006C6C2067726F7570732076616C766520A4
:10066000706F736974696F6E7320746F20307825B2
:1006700058203A206D65737361676520656E7175EA
:10068000657565642E0A004C4F472046485420305B
:100690002050414E4943207469636B3D27257527DF
:1006A000206C6173745F656E713D2725752720701E
:1006B0006F733D272575270A00434C4920436F6D12
:1006C0006D616E64206E6F7420737570706F7274DC
:1006D000656420666F7220414C4C2067726F7570A4
:1006E000732E20506C656173652073706563696655
:1006F000792067726F7570206E756D6265720A0081
:10070000434C4920556E6B6E6F776E20666874207F
:10071000636F6D6D616E642E0A00434C492049443D
:100720004C452E0A0069646C6500696E666F004373
:100730004C492052657175657374696E67206772E4
:100740006F75702025752076616C766520746573F1
:100750007420626565700A0062656570004C4F47E1
:1007600020464854203220434C4920506C65617328
:100770006520736574757020686F6D6520636F64A4
:10078000657320666F72206E65772067726F757073
:1007900073212043616C6C3A206668742068632082
:1007A0003C67726F75703E203C6863313E203C6848
:1007B00063323E0A00434C49204E756D62657220DB
:1007C0006F66206163746976652067726F757073F8
:1007D0002069732073657420746F2025752E0A00BC
:1007E000434C49204572726F723A20257520697317
:1007F000206F7574206F66207468652072616E6763
:1008000065205B312C204648545F47524F5550536A
:100810005F44494D3D25755D2E0A0067726F757006
:100820007300434C492053657474696E6720677286
:100830006F75702025752076616C76652025752092
:100840006F666673657420746F202564203D2030C8
:100850007825780A006F666673657400434C4920FA
:1008600053657474696E672067726F7570202575A3
:100870002076616C766520706F736974696F6E2085
:10088000746F20307825580A0073657400434C4912
:100890002053796E63696E672067726F75702025CB
:1008A000752076616C7665730A0073796E63004318
:1008B0004C492052657175657374696E6720677263
:1008C0006F75702025752076616C76652025752002
:1008D00070616972696E670A007061697200434CE9
:1008E0004920486F6D6520636F6465206F662067DF
:1008F000726F757020257520776173207365742081
:10090000746F2025752025752E0A00686300434CFE
:100910004920496E76616C69642067726F7570203A
:100920006E616D652E0A00434C49204D69737369F1
:100930006E6720706172616D657465722E0A004683
:10094000726565206D656D2069732025750A002329
:10095000205061636B657420746F6F206C617267E7
:10096000650A002720756E69743D27432720726150
:10097000773D27257827206465765F747970653D1B
:10098000277369343433270A004D534720544D50A0
:10099000204C4F43414C2076616C75653D27002506
:1009A000642E256400756E6B6E6F776E0025303295
:1009B00058004C4F4720544D5020302044616C6CFF
:1009C00061732064657669636520696E646578206B
:1009D0002575206973206E6F7420617661696C6182
:1009E000626C652E0A00270A002720756E69743D27
:1009F000274327207261773D272578272064657675
:100A00005F747970653D2744533138783230272040
:100A10006465765F696E6465783D27257527206477
:100A200065765F616464726573733D27004D53475B
:100A300020544D50204C4F43414C2076616C7565DD
:100A40003D270000000000250028002B00000000CA
:100A500000240027002A00000000002300260029AF
:100A60000004040404040404040202020202020357
:100A70000303030303010204081020408001020461
:100A8000081020010204081020005EBCE2613FDD76
:100A900083C29C7E20A3FD1F41009D23BE46DB65D3
:100AA000F88C11AF32CA57E9744C4F47204648546E
:100AB000203220524144494F20446F6E650A004C59
:100AC0004F4720464854203220524144494F20523B
:100AD0006573657474696E6720726164696F2E2E28
:100AE0002E0A004C4F4720464854203120524144A2
:100AF000494F204552524F523A20556E73757070CF
:100B00006F727465642F6D697373696E67207261AB
:100B100064696F0A004C4F472046485420312052E8
:100B20004144494F20466F756E6420646576696361
:100B30006520747970652025642076657273696F0D
:100B40006E2025640A004C4F47204648542031202F
:100B5000454550524F4D2047726F757020256420D7
:100B600048432069732025642025642E0A00436FC2
:100B70006E666967206C6F616465642066726F6D74
:100B800020656570726F6D2C2025642067726F750B
:100B9000707320666F756E642E0A004C4F472046B6
:100BA0004854203120454550524F4D20696E636FA7
:100BB00073697374656E7420636F6E6669677572AE
:100BC0006174696F6E20646174612066726F6D205C
:100BD000454550524F4D2069676E6F7265640A003B
:100BE0004C69737420617661696C61626C65206325
:100BF0006F6D6D616E64730068656C7000434C4985
:100C00002053657474696E6720616C6C2067726F25
:100C100075702076616C76657320746F203078254E
:100C2000582E2E2E0A00434C492053796E632064BF
:100C30006F6E652E0A00434C492053796E63696ECE
:100C40006720616C6C2067726F75702076616C76BE
:100C500065732E2E2E0A006D656D202D206765743C
:100C60002066726565206D656D6F727920696E66AC
:100C70006F006D656D00746D70202D20726561646C
:100C8000207468652074656D706572617475726535
:100C90007300746D70006668742067726F7570738E
:100CA000203C6E756D5F6F665F67726F7570733E27
:100CB000207C206863203C6772703E203C68633172
:100CC0003E203C6863323E207C2070616972203C8B
:100CD0006772703E205B3C76616C76653E5D207C81
:100CE0002073796E63205B3C6772703E5D207C20D0
:100CF0006F666673657420203C6772703E203C7698
:100D0000616C76653E203C76616C75653E207C208A
:100D1000736574203C6772703E203C706F733E2098
:100D20007C2062656570203C6772703E207C206983
:100D30006E666F200066687400464854004C4F474A
:100D400020464854203120524144494F204F4B0AFD
:100D50000A004C4F47204648542031205241444914
:100D60004F204641494C45440A004C4F47204648D5
:100D700054203220524144494F20456E61626C69D3
:100D80006E6720726164696F2E2E2E0A00526573A1
:100D9000657420737461747573203D203078255814
:100DA0000A0053797374656D20636C6F636B203D2B
:100DB00020256C7520487A0A000A0A464854207695
:100DC000616C766520636F6D6D756E6963617469C2
:100DD0006F6E206578616D706C6520666F72205251
:100DE000464D32322F32330A2843292032303133F4
:100DF000204D696B6520537469726C696E670A686F
:100E00007474703A2F2F7777772E6D696B657374D2
:100E100069726C696E672E636F2E756B0A0A2843C0
:100E20002920323031332048796E656B204261725F
:100E3000616E0A68747470733A2F2F6769746875ED
:100E4000622E636F6D2F48796E656B426172616EC1
:100E50002F46485438560A0A536B657463682064F9
:100E600061746520616E642074696D654A616E20ED
:100E7000323220323032302032333A31393A313264
:100E80000A004465627567206C6576656C203D20BC
:100E900025750A0053656E736F7273207365742035
:100EA00075702C20257520646576696365732066EE
:100EB0006F756E642E0A0044616C6C61732054651A
:100EC0006D70657261747572653A205365747469EA
:100ED0006E672075702073656E736F72732E2E2E81
:100EE0000A00556E6B6E6F776E20636F6D6D616E6D
:100EF000640A004572726F722025640A003E200069
:100F0000434C492052656164790A0A00436F6D6D54
:100F1000616E642072656769737472792066756C9E
:100F20006C0A00000F1D11241FBECFEFD8E0DEBFFA
:100F3000CDBF11E0A0E0B1E0E2EBF5E402C0059026
:100F40000D92AC33B107D9F723E0ACE3B1E001C0B7
:100F50001D92A430B207E1F717E0C3E9D7E004C05F
:100F60002197FE010E948122C239D107C9F70E9450
:100F7000C0170C94D7220C9400003FB7F8948091CE
:100F8000600190916101A0916201B091630126B569
:100F9000A89B05C02F3F19F00196A11DB11D3FBFB1
:100FA000BA2FA92F982F8827BC01CD01620F711D80
:100FB000811D911D43E0660F771F881F991F4A9579
:100FC000D1F708958F929F92AF92BF92CF92DF9206
:100FD000EF92FF926B017C010E94BD074B015C0107
:100FE000C114D104E104F104B9F00E94BD076819ED
:100FF00079098A099B09683E73408105910580F350
:1010000021E0C21AD108E108F10888EE880E83E0D9
:10101000981EA11CB11CE4CFFF90EF90DF90CF9001
:10102000BF90AF909F908F900895DC0180E0615059
:1010300090F09D919827E92FEF70F0E0E757F54F7A
:101040002491E92FE295EF70F0E0E756F54FE49137
:10105000822F8E27ECCF0895DC012C911196ED9113
:10106000FC91F8948181822B81839281322F30957B
:101070009323928382E090E00197F1F781818323AB
:10108000818380E190E00197F1F790817894E6E622
:10109000F0E03197F1F7922381E009F480E00895C0
:1010A000FC0190810180F281E02D292F209560FFC5
:1010B00014C0F8948281822382838181892B818369
:1010C000A0E1B0E01197F1F78281982B9283789498
:1010D0008AE690E00197F1F70895F89482818223DF
:1010E00082838181892B8183AEE7B0E01197F1F78C
:1010F0008281982B9283789486E090E0EBCFDF9208
:10110000EF92FF920F931F93CF93DF93EC01D62EB4
:10111000E42E08E010E0FF24F39461E08D2D8F2190
:1011200009F460E0CE010E945008FF0C0150110943
:10113000A1F7E11010C0F894E981FA8191818881CA
:10114000809589238183E981FA81928188818095C4
:10115000892382837894DF91CF911F910F91FF9023
:10116000EF90DF900895EF92FF920F931F93CF932C
:10117000DF938C017B0140E065E50E947F08E70179
:1011800088E0E80EF11C699140E0C8010E947F08E8
:10119000CE15DF05C1F7DF91CF911F910F91FF9021
:1011A000EF9008958EBD0DB407FEFDCF8EB5089566
:1011B000CF93DF932A9883E00E94D20880E00E94B8
:1011C000D208C82FD0E0DC2FCC2780E00E94D208C4
:1011D0002A9A9E01282BC901DF91CF9108952A9860
:1011E0000E94D20880E00E94D2082A9A0895CF93E4
:1011F000DF93EB012A9880680E94D2088D2F0E940D
:10120000D2088C2F0E94D2082A9ADF91CF9108959C
:10121000CF93C62F2A9880680E94D2088C2F0E94F4
:10122000D2082A9ACF91089560E087E00E940809C9
:1012300062E088E00E94080960E088E00E940809F6
:1012400061E088E00E94080960E088E00E940809E7
:101250000E94D80870E060E085E00C94F70888EC04
:1012600080937C0065E070E080E090E00E94E207FF
:1012700080917A00806480937A0080917A0086FD64
:10128000FCCF809178002091790030E0322F222726
:10129000032E000C440B550B282B2D573109410907
:1012A0005109A3E3B4E00E9487220895CF93DF930E
:1012B000C0910201D09103010E942F0928EE33E072
:1012C00040E050E00E946222C901C0382DEFD207F1
:1012D00021F0C817D9070CF4CE01DF91CF91089502
:1012E00080914B0190914C01B0E0A0E080934701C8
:1012F00090934801A0934901B0934A015E980895E4
:10130000CF93DF93DB014CE024E030E0892B19F030
:1013100048E326E030E080913C01C8E0D0E050E0B6
:1013200090913D01BE01691B7109F90162177307B4
:101330002CF490913D01FE01E91BF1092E1B3F0B9E
:101340000E2E01C0880F0A94EAF7BA01022E02C0DD
:10135000759567950A94E2F7862B90913D01E90F08
:10136000E0933D0190913D01983071F4ED91FC9135
:10137000119780836D917C9111976F5F7F4F1196CC
:101380007C936E9310923D012115310549F68093AF
:101390003C01DF91CF9108958091C00087FFFCCF81
:1013A0008091C600082E000C990B08958A3039F4FC
:1013B0009091C00095FFFCCF9DE09093C600909166
:1013C000C00095FFFCCF8093C60090E080E00895B8
:1013D00020915202309153022431310559F48CE0AE
:1013E0009FE09F938F930E941B1E0F900F908FEF93
:1013F0009FEF0895F901A3E0EE0FFF1FAA95E1F713
:10140000E455FE4F97838683558744872F5F3F4F70
:10141000D90183E0AA0FBB1F8A95E1F7A455BE4FFF
:101420006D937C931386128630935302209352025D
:1014300090E080E00895CF93DF9300D0CDB7DEB782
:101440002091FA023091FB02CE010196211531055F
:10145000C9F4845093409A83898389819A819F93A8
:101460008F938FE399E09F938F930E941B1E90E0D0
:1014700080E00F900F900F900F900F900F90DF91E2
:10148000CF910895821B930BE091FC02F091FD0235
:1014900030E020E0309751F02E5F3F4F4081518186
:1014A000240F351F0280F381E02DF4CF820F931FAC
:1014B000D2CF9C0120388DEF380749F485EA99E0B6
:1014C0009F938F930E941B1E0F900F900895C90148
:1014D0006AE070E00E944E2246EF4603C001479F3B
:1014E000900D1124820F931F9F938F937F936F937F
:1014F0008FE999E09F938F930E941B1E0F900F908E
:101500000F900F900F900F900895CF93DF93F89462
:1015100060E78FE00E94080960E282E10E9408090A
:1015200060E88FE00E9408098FE00E94EF0881E1E7
:101530000E94EF087894C0E8DDEF8F3F31F095E02E
:10154000899FE0011124C058D24089E899E09F9317
:101550008F930E941B1ECE010E94590ADF93CF93E6
:1015600083E699E09F938F930E941B1E0F900F902C
:101570000F900F900F900F90CE01DF91CF910895B3
:10158000FF920F931F93CF93DF93F82ED92FC62F7F
:10159000613480F08FE499E09F938F930E941B1E2B
:1015A0000F900F908FEF9FEFDF91CF911F910F91D1
:1015B000FF9008950E9414092A988FEF0E94D20884
:1015C0000F2D1D2FC15098F42A9A60E074E085E039
:1015D0000E94F7080E94D80869E087E00E94080985
:1015E0001999FECF0E94140990E080E0DDCFF80148
:1015F00081918F010E94D208E5CFCF92DF92EF92C6
:10160000FF920F931F93CF93DF930E942F096B01DB
:101610007C018EE480937C0065E070E080E090E0E7
:101620000E94E20780917A00806480937A00809122
:101630007A0086FDFCCF809178002091790030E01F
:10164000322F2227032E000C440B550B282B60E071
:1016500070E381E190E00E946222E901142F052FDE
:1016600085E595E09F938F930E941B1E0F900F902E
:1016700080E8C8168DEFD8068FEFE806F80649F522
:101680008CEF94E09F938F930E941B1E0F900F90FE
:1016900089E395E09F938F930E941B1E0F931F93E6
:1016A000DF93CF9384E095E09F938F930E941B1E5E
:1016B0008DB79EB708960FB6F8949EBF0FBE8DBF2C
:1016C000DF91CF911F910F91FF90EF90DF90CF901E
:1016D0000895C701B60120E137E240E050E00E94E2
:1016E00062229F938F937F936F935F934F933F9368
:1016F0002F9384EF94E09F938F930E941B1E8DB7CE
:101700009EB70A960FB6F8949EBF0FBE8DBFC0CF8E
:101710000F931F93CF93DF938F3F09F468C0F89422
:10172000082F082E000C110BF6E08F02E0011124A7
:10173000C458DE4F1A828CE28B831C82F801E15C74
:10174000FE4F81EF808378940F5F1F4F1F930F939D
:1017500087E594E09F938F930E941B1E0F900F903C
:101760000F900F902396888187FFFDCF1F930F93D3
:1017700089E294E09F938F930E941B1E0F900F901D
:101780000F900F90DF91CF911F910F910895F894D2
:10179000282F082E000C330B429FF001439FF00DC1
:1017A0001124E458FE4F128253831482215C3E4F71
:1017B000F901608378948F5F9091220189173CF33F
:1017C0008EEB94E09F938F930E941B1E0F900F90BF
:1017D00036E020E080912201281774F08BE894E035
:1017E0009F938F930E941B1E0F900F90CBCF80E092
:1017F00046E05CE261EFE0CF2303F0011124E458FE
:10180000FE4F838187FFE5CF2F5FE4CFFF920F93D9
:101810001F93CF93DF93082FF62E8EE591E09F93D1
:101820008F930E941B1EC02F002E000CDD0B86E044
:1018300008028001112404581E4F8C9FF0018D9FD7
:10184000F00D1124E458FE4F83818F700F900F909C
:101850008F3008F0EBC0E82FF0E0EF5CF34F0C9412
:101860008122400CDA0CE30C160D160D160DE60C59
:10187000160DF40C160D020D160D050D160D130D9B
:1018800086E08C9FF0018D9FF00D1124E458FE4FEF
:1018900084811F928F938EED90E09F938F930E948F
:1018A0001B1E0F900F900F900F908BE591E09F9370
:1018B0008F930E941B1E85E591E09F938F930E945A
:1018C0001B1E0F900F900F900F90F801838187FFE0
:1018D00008C088E091E09F938F930E941B1E0F9099
:1018E0000F90F801838185FF08C083E091E09F930A
:1018F0008F930E941B1E0F900F90F801838184FF2D
:1019000008C08AEE90E09F938F930E941B1E0F9059
:101910000F9082E591E09F938F930E941B1E86E0BB
:101920008C9F80018D9F100D112404581E4FF801CB
:1019300082811F928F932196DF93CF938FE391E063
:101940009F938F930E941B1EEDB7FEB738960FB67C
:10195000F894FEBF0FBEEDBFF1E0FF1225C0F80105
:10196000948183812381418130811F929F9390E0F4
:1019700054E0959587955A95E1F79F938F932F7033
:101980001F922F931F924F931F923F938DE091E0F0
:101990009F938F930E941B1E8DB79EB70C960FB618
:1019A000F8949EBF0FBE8DBFDF91CF911F910F9115
:1019B000FF90089583ED90E09F938F930E941B1EEC
:1019C0000F900F9072CF87EC90E0F6CF86E08C9F5F
:1019D000F0018D9FF00D1124E458FE4F84811F9279
:1019E0008F938AEB90E059CF86E08C9FF0018D9F1A
:1019F000F00D1124E458FE4F84811F928F9380EBE9
:101A000090E04BCF88EA90E0D7CF86E08C9FF00142
:101A10008D9FF00D1124E458FE4F84811F928F9307
:101A200080EA90E03ACF8BE990E0C6CF96E09C9FA9
:101A3000F0019D9FF00D1124E458FE4F94811F92F8
:101A40009F931F928F9387E890E09F938F930E94BC
:101A50001B1E0F900F900F900F900F900F9025CF9F
:101A60000F931F93CF93DF93D82F062FC42F122FDE
:101A70008F3F89F1F89486E0D802F0011124E458F0
:101A8000FE4F6283C062C3832483789487E194E02D
:101A90009F938F930E941B1E60E08D2F0E94060C67
:101AA00085E194E09F938F930E941B1E0F900F90EF
:101AB0000F900F900BC0212F4C2F602F8D2F0E9465
:101AC000300DDF5F80912201D817ACF3DF91CF9109
:101AD0001F910F910895D0E0F5CF0F931F93CF93EF
:101AE000DF9300D000D000D0CDB7DEB74091240105
:101AF00050E070E060E0CE0101960E94BE20898136
:101B0000813061F49A8180912401981307C09B81F0
:101B10008091250110E006E09817E1F08EEF9FEF2D
:101B20001FC06B81462F50E01603B00111248A813B
:101B3000680F711DCE0105960E94BE208E819D8189
:101B40001002F0011124E458FE4FF8949083818331
:101B500078941F5F8C81181724F3082E000C990BC2
:101B600026960FB6F894DEBF0FBECDBFDF91CF91A2
:101B70001F910F9108955F926F927F928F929F9223
:101B8000AF92BF92CF92DF92EF92FF920F931F938B
:101B9000CF93DF9300D000D000D0CDB7DEB786EF73
:101BA00093E09F938F930E941B1E80912201282F08
:101BB000082E000C330B3F938F9381ED93E09F939E
:101BC0008F930E941B1E1F9288E08F938CEA93E0F4
:101BD0009F938F930E941B1E8EEE91E09F938F9395
:101BE0000E941B1E4091240150E070E060E0CE0195
:101BF00001960E94BE200FB6F894DEBF0FBECDBF87
:101C00008981813051F49A8180912401981305C013
:101C10009B8180912501981741F08BEC91E09F9377
:101C20008F930E941B1E0F900F9089811F928F939C
:101C30008BEB91E09F938F930E941B1E8A811F92D2
:101C40008F938BEA91E09F938F930E941B1E8B8151
:101C50001F928F938BE991E09F938F930E941B1E9D
:101C60008C81282F082E000C330B3F938F938BE829
:101C700091E09F938F930E941B1E0FB6F894DEBFD6
:101C80000FBECDBF10E0E4E6EE2EE1E0FE2E8C812B
:101C900018170CF4EFC083E993E09F938F930E9491
:101CA0001B1E0F900F9010E000E061E8E62E63E04D
:101CB000F62E7FE7C72E73E0D72E80912201082EE3
:101CC000000C990B081719070CF4F9C087E693E08C
:101CD0009F938F930E941B1E809147019091480112
:101CE000A0914901B0914A0120914B0130914C01E2
:101CF000BF93AF939F938F933F932F9389E393E089
:101D00009F938F930E941B1E10913E010E945609C3
:101D10001F921F939F938F938EE093E09F938F93D7
:101D20000E941B1E0E94FD0A6090200170902101FC
:101D30000FB6F894DEBF0FBECDBF6114710409F079
:101D4000D6C08AEF92E09F938F930E941B1E89E179
:101D500092E09F938F930E941B1E0F900F900F9005
:101D60000F900CE012E03AE0E32E32E0F32E40E177
:101D7000C42E42E0D42E52E1A52E52E0B52E862D7F
:101D80000E94EF08582E43019FE089229924811474
:101D9000910409F0A7C0C30124E0959587952A9581
:101DA000E1F79F938F93BF92AF920E941B1E0F90FB
:101DB0000F900F900F908FE0851508F4A5C0DF926B
:101DC000CF920E941B1E0F900F901F925F921F9345
:101DD0000F930E941B1E0F900F900F900F908FE09B
:101DE0008816910431F4FF92EF920E941B1E0F900F
:101DF0000F909FEF691A790A8FE76816710409F04E
:101E0000BECF88E092E09F938F930E941B1E0F909D
:101E10000F901F9287EF8F9387E08F9388E08F93C7
:101E20001F9285E08F931F9289EF8F931F928CE012
:101E30008F938FE492E09F938F930E941B1E0FB6A7
:101E4000F894DEBF0FBECDBF26960FB6F894DEBF66
:101E50000FBECDBFDF91CF911F910F91FF90EF90FB
:101E6000DF90CF90BF90AF909F908F907F906F90BA
:101E70005F9008956B81462F50E01603B001112446
:101E80008A81680F711DCE0105960E94BE208E8149
:101E90001F928F938D811F928F93812F012E000CA3
:101EA000990B01969F938F93FF92EF920E941B1EB6
:101EB0001F5F0FB6F894DEBF0FBECDBFE8CEFF9216
:101EC000EF920E941B1E61E0802F0E94060CDF92A1
:101ED000CF920E941B1E0F5F1F4F0F900F900F900D
:101EE0000F90EBCE9FE0981708F46FCF68CF7F92EA
:101EF0006F9284ED92E09F938F930E941B1E0F9030
:101F00000F900F900F9085CF1F925F921F930F93AA
:101F10000E941B1E0F900F900F900F906ACFFC0134
:101F200090810180F281E02DF8948181292F209504
:101F30008223818378943DE7315011F18081892398
:101F4000D9F3F8948281822382838181892B8183D2
:101F50007894ACEBB3E01197F1F7F8948181822388
:101F60008183A8E8B0E01197F1F78081982381E0A0
:101F700009F080E07894E0E3F3E03197F1F7089519
:101F800080E008958F929F92AF92BF92CF92DF929E
:101F9000EF92FF920F931F93CF93DF938C01EB018E
:101FA00080916E0190916F010E948F0F811102C08C
:101FB00090E03EC0B80180916E0190916F010E9447
:101FC000B30840E06EEB80916E0190916F010E942A
:101FD0007F088E015E0189E0A80EB11C80906E0121
:101FE00090906F0188E0C82ED12CF12CEE24E39460
:101FF000C4010E942C088111FE28EE0CE1E0CE1AEB
:10200000D108B1F7F801F1928F01EA15FB0531F71C
:1020100080916E0190916F010E948F0F813041F687
:1020200068E0CE010E94150891E028852813C0CFF2
:10203000892FDF91CF911F910F91FF90EF90DF904B
:10204000CF90BF90AF909F908F900895CF93DF93E4
:10205000CDB7DEB729970FB6F894DEBF0FBECDBF60
:10206000BE016F5F7F4F0E94C20F882331F08D81C8
:102070008F33A9F020F48F31A1F080E007C08F35B5
:1020800021F08F37D1F78CE001C08BE029960FB695
:10209000F894DEBF0FBECDBFDF91CF9108958AE0E7
:1020A000F5CF89E0F3CFBF92CF92DF92EF92FF920C
:1020B0000F931F93CF93DF93EC01B62EC72E8D8520
:1020C000811105C0CE010E948F0F81110EC01B86A9
:1020D0001D861C8680E0DF91CF911F910F91FF90AC
:1020E000EF90DF90CF90BF90089540E060EFCE0179
:1020F0000E947F0801E0E12CD12C11E0CE010E946A
:102100002C08F82ECE010E942C0891E0F91218C07C
:10211000813099F51134D8F2DB86D11002C081E00C
:102120008D878B81882399F22396EB2DFC2DCF018F
:10213000089629912193E817F907D9F781E0CBCFC9
:10214000EE2DF0E0F8120FC08B851817A0F4DE0119
:10215000AE0FBF1F13968C91802379F4F12C1930A8
:1021600008F41C87D12EEC0FFD1F8381902F9095D2
:10217000892383830AC08113F1CFFE01EE0DF11D87
:102180008381802B8383FF24F3946F2DCE010E94E3
:1021900050081F5F000F11F4E39401E087E08E15F3
:1021A00008F0ACCFB7CFFF920F931F93CF93DF937D
:1021B0008C01F62EE0916E01F0916F011386158669
:1021C0001486128611861086178216821582148252
:1021D0001382C0E0B80180916E0190916F010E945E
:1021E0005310D82F882329F0FC1629F0CF5FFC1656
:1021F00088F7D0E008C067E0C8010E941508F80120
:1022000097818913F3CF8D2FDF91CF911F910F917C
:10221000FF9008952F923F924F925F926F927F921C
:102220008F929F92AF92BF92CF92DF92EF92FF92E6
:102230000F931F93CF93DF93CDB7DEB76C970FB695
:10224000F894DEBF0FBECDBF20916C012A8F10E045
:1022500000E0F0E82F2EADEF3A2EBDE24B2EBAE0B3
:102260005B2E89EE682E89E0782E4E014AE1840EBD
:10227000911C9DEAC92E99E0D92E26EEA22E29E0C6
:10228000B22E5A8D051708F0A8C0602FCE014296D5
:102290000E94D3100B8F1C8F882309F491C0602FEC
:1022A000CE010A960E94D310811143C060E070E015
:1022B0008EEF92EC20E030E040E251E40E94B92140
:1022C0000E941D21F62EE72E262E372E5F924F926A
:1022D0000E941B1E8F2D9E2D0E94590A2C8D2F931C
:1022E0004B8D4F93EF92FF927F926F920E941B1E35
:1022F000CE0142967C010FB6F894DEBF0FBECDBF73
:10230000F70181917F011F928F93DF92CF920E94FC
:102310001B1E0F900F900F900F90E814F90481F797
:10232000BF92AF920E941B1E0F900F900F5F1F4F26
:10233000A8CFBE016F5F7F4FCE010A960E94C20FE9
:10234000882309F4B3CF6A8170E0762F6627770F70
:10235000770F770F298188E0289F90011124262B81
:10236000372B8A858031D1F4688570E08F81FB013D
:10237000E81BF109CF019695982F882797958795A7
:102380000E944E22CB014097B90153E0660F771FA0
:102390005A95E1F760789C01260F371F2138F4EE3B
:1023A0003F070CF483CFB901330F880B990B0E94C0
:1023B000552120E030E040E05CE30E94B9217ACF73
:1023C0001F930F9342EB59E05F934F930E941B1EA4
:1023D0000F900F900F900F90A9CF20920201309292
:1023E0000301C1016C960FB6F894DEBF0FBECDBFDE
:1023F000DF91CF911F910F91FF90EF90DF90CF90E1
:10240000BF90AF909F908F907F906F905F904F9014
:102410003F902F9008958F929F92AF92BF92CF924C
:10242000DF92EF92FF9280916E0190916F010E9476
:102430008F0F40E06CEC80916E0190916F010E94D3
:102440007F084091680164E480916E0190916F0172
:102450000E947F0880916A01882309F441C0E091BD
:102460006901E9506EEE72E0E33038F4F0E0EE0F0F
:10247000FF1FEB5CFE4F6081718180916B018823AF
:10248000C1F180916801811134C08FB7F8948090B8
:10249000640190906501A0906601B09067018FBFC4
:1024A0006B01770FEE08FF0880916E0190916F012C
:1024B0000E942C088130A1F02FB7F894809164011C
:1024C00090916501A0916601B09167012FBF8C19B1
:1024D0009D09AE09BF0988159905AA05BB0520F31A
:1024E000FF90EF90DF90CF90BF90AF909F908F9034
:1024F0000895072E000C880B990BFF90EF90DF904A
:10250000CF90BF90AF909F908F900C94E2074F9226
:102510005F926F927F928F929F92AF92BF92CF9273
:10252000DF92EF92FF920F931F93CF93DF938C0173
:102530004A013901EC01F12CE12C2C0186EA480E0C
:10254000511C88E6A82E80E0B82EF201808191818E
:10255000E816F9069CF090E080E0DF91CF911F91A2
:102560000F91FF90EF90DF90CF90BF90AF909F9032
:102570008F907F906F905F904F900895CE80DF8016
:1025800092E08916910464F0A6010D2C000C660BF4
:10259000770BF301828193810E94B617892BB9F4DE
:1025A0008D858F938C858F93DF92CF92BF92AF9260
:1025B000F80185818F9384818F930E94D81D8DB7F8
:1025C0009EB708960FB6F8949EBF0FBE8DBF9FEFC3
:1025D000E91AF90A2896B9CFF8940E940B12789458
:1025E0002FE78FE492E1215080409040E1F700C056
:1025F00000000E94FD0A0E94850A0E940A110E94A2
:10260000560990E080E008958F929F92AF92BF921A
:10261000CF92DF92EF92FF920F931F93CF93DF93AE
:1026200000D0CDB7DEB74A01590187E299E04230C8
:1026300051050CF484C04230510509F47CC0F50109
:10264000848195810E94761DF82EF8E08EE099E055
:10265000FF1508F474C0EE24EA94EF0CF501C28073
:10266000D3804BE059E0052E000C660B770BC601BA
:102670000E94B6178C01892B09F068C0F5E08F160F
:1026800091040CF49FC1FF2009F457C0F501868125
:1026900097810E94761D6C01F501808591850E94CD
:1026A000761D5C018E2D0E2C000C990BF89426E003
:1026B000289FF001299FF00D1124E458FE4FC0829D
:1026C000A1827894F8948081898381818A83609142
:1026D0002501462F50E02E2D2603B0011124E09055
:1026E00024016E0D711DCE0101960E94CE207894BA
:1026F000BB24BF92AF92DD24DF92CF921F92FF9254
:102700008EED98E09F938F930E941B1E0FB6F89456
:10271000DEBF0FBECDBFC8010F900F90DF91CF91EC
:102720001F910F91FF90EF90DF90CF90BF90AF90EF
:102730009F908F900895F12C8ECF89EB96E09F9318
:102740008F930E941B1E0F900F90D6C049ED58E04A
:10275000052E000C660B770BC6010E94B6178C0184
:10276000892B01F5FF2049F3F501868197810E94AD
:10277000761D6C0199279F938F931F92FF928FEA8A
:1027800098E09F938F930E941B1E20E04FE06C2DDA
:102790008E2D0E94300D0F900F900F900F900F9084
:1027A0000F90B9CF4AEA58E0052E000C660B770B64
:1027B000C6010E94B6178C01892B81F41F92FF92EB
:1027C0008DE898E09F938F930E941B1E8E2D0E9490
:1027D000880B0F900F900F900F909DCF49E858E015
:1027E000052E000C660B770BC6010E94B6178C01F4
:1027F000892BF9F4F4E08F1691040CF47DC0F501F7
:10280000868197810E94761D6C0199279F938F93F3
:102810001F92FF928CE598E09F938F930E941B1E5E
:102820002C2D46E060E08E2D0E94300D0E94700934
:10283000B2CF45E558E0052E000C660B770BC601BC
:102840000E94B6178C01892BB9F5F5E08F1691041B
:102850000CF452C0F501868197810E94761D6C01AF
:10286000F501808591850E94761D282F082E000C89
:10287000330BA90137FF04C044275527421B530BD4
:10288000B42E87FF02C06894B7F81F92BF923F939F
:102890008F93C60199279F938F931F92FF9282E295
:1028A00098E09F938F930E941B1E2B2D48E06C2D68
:1028B0008E2D0E94300D2ACF4BE158E0052E000CE2
:1028C000660B770BC6010E94B6178C01892BA9F500
:1028D00097E09E15A0F41F9288E08F931F921F929D
:1028E00080EE97E09F938F930E941B1E0F900F9096
:1028F0000F900F900F900F9001E010E00CCFF0922E
:10290000220180912201809326014091240150E010
:1029100070E060E083E291E00E94CE201F92FF927F
:1029200085EB97E09F938F930E941B1E8DE597E0A8
:102930009F938F930E941B1E2ECF48E557E0052ED4
:10294000000C660B770BC6010E94B6178C01892B11
:1029500079F41F92FF928FE297E09F938F930E94EA
:102960001B1E20E04EE060E08E2D0E94300D31CF26
:102970004AE257E0052E000C660B770BC6010E9459
:10298000B6178C01892B19F40E94BB0DC4CE45E209
:1029900057E0052E000C660B770BC6010E94B61798
:1029A0008C0180E097E00115110509F0C8CE0E9466
:1029B00070098AE197E09F938F930E941B1E0F90EE
:1029C0000F90A9CE02E010E0A6CE6F927F928F9278
:1029D0009F92AF92BF92CF92DF92EF92FF920F93AE
:1029E0001F93CF93DF93CDB7DEB7C254D1090FB693
:1029F000F894DEBF0FBECDBFB82E5D9ACE01019612
:102A00007C0180E4F70111928A95E9F7F6E0BF9E18
:102A10008001112404581E4F8CE0F8018583680161
:102A200098012B5F3F4FD9018C919191890F8C9325
:102A3000E217F307C9F72396FFAEEEAE2397109285
:102A40003D0184E090E02AEA2396EEADFFAD2397A6
:102A5000AF014F5F5F4F23965FAF4EAF2397208349
:102A6000019791F79CE0892E912CBE016F5B7F4FFF
:102A700090E080E00E948009F1E08F1A9108A9F7A8
:102A8000BE016F5B7F4F81E090E00E9480090A5F8A
:102A90001F4FF601A1906F0188E0682E712C912CD8
:102AA000812C8A2D8078BE016F5B7F4F90E00E9461
:102AB00080098A2D881F8827881F8826AA0CF1E0A4
:102AC0006F1A710871F7BE016F5B7F4FC4010E94DE
:102AD00080090C151D05E9F6BE016F5B7F4F90E084
:102AE00080E00E948009BE016F5B7F4F90E080E034
:102AF0000E94800923960EAD1FAD23970E191F0962
:102B00000F5F1F4F602FC7010E94C00A8FE097E23E
:102B10000197F1F700C00000602FC7010E94C00AB2
:102B20005D9885E790E09F938F930E941B1E60E065
:102B30008B2D0E94060C83E790E09F938F930E9459
:102B40001B1E0F900F900F900F90CE5BDF4F0FB6B4
:102B5000F894DEBF0FBECDBFDF91CF911F910F91D3
:102B6000FF90EF90DF90CF90BF90AF909F908F90AD
:102B70007F906F9008951F920F920FB60F921124BD
:102B80002F933F938F939F93AF93BF938091640153
:102B900090916501A0916601B091670130915F014C
:102BA00026E0230F2D3758F50296A11DB11D209365
:102BB0005F018093640190936501A0936601B093D7
:102BC00067018091600190916101A0916201B091D3
:102BD00063010196A11DB11D809360019093610175
:102BE000A0936201B0936301BF91AF919F918F91C8
:102BF0003F912F910F900FBE0F901F90189529E8CD
:102C0000230F0396A11DB11DD2CF1F920F920FB6B5
:102C10000F9211242F923F924F925F926F927F9268
:102C20008F929F92AF92BF92CF92DF92EF92FF92DC
:102C30000F931F932F933F934F935F936F937F93C4
:102C40008F939F93AF93BF93CF93DF93EF93FF93B4
:102C500080914D0190914E01A0914F01B091500192
:102C60000196A11DB11D80934D0190934E01A0933B
:102C70004F01B093500140914B0150914C01809114
:102C8000470190914801A0914901B0914A0170E03B
:102C900060E0885F984FAF4FBF4F481759076A07EA
:102CA0007B07A0F18091470190914801A0914901D3
:102CB000B0914A0120914B0130914C011F92C7EF16
:102CC000CF93BF93AF939F938F933F932F9387E8B7
:102CD00096E09F938F930E941B1E1F92CF938DE3CC
:102CE00096E09F938F930E941B1E27EF46E060E0C3
:102CF0008FEF0E94300D0E9470095E9A8DB79EB7CB
:102D00000E960FB6F8949EBF0FBE8DBF8091200126
:102D100090912101892B09F020C15B9A712C86E0EA
:102D2000682E9BE6C92E95E0D92E2DEAA22E25E02D
:102D3000B22E35E0432E4EED842E45E0942E50E227
:102D4000552E6EED362E74EF272E809122017816C7
:102D50006CF15B9880914B0190914C01019690939E
:102D60004C0180934B01FF91EF91DF91CF91BF9187
:102D7000AF919F918F917F916F915F914F913F9113
:102D80002F911F910F91FF90EF90DF90CF90BF9008
:102D9000AF909F908F907F906F905F904F903F90FB
:102DA0002F900F900FBE0F901F901895E72C072CB7
:102DB000000CFF086E9C80016F9C100D11240458BC
:102DC0001E4FF801818193819F70E701C15CDE4F46
:102DD0009C30C9F4888180FF05C088818483872D59
:102DE0000E94E514888181508883833050F43882B2
:102DF0006E9CF0016F9CF00D1124E458FE4F53823D
:102E000024827394A2CF93819F709F3041F41882E3
:102E1000872D0E94E514F80153821482F2CF877047
:102E200090E028812F5F288348819C012E513F4FDD
:102E30004217130639F47110E4CFF8940E940B1274
:102E40007894DFCF48819C012C513F4F42171306E5
:102E500009F073C0711024C00E94FD0A0E94850A07
:102E60000E940A110E94560920913E01893791055E
:102E70000CF044C0211112C020914B0130914C0143
:102E80003F932F939F938F939F928F920E941B1E2D
:102E90000F900F900F900F900F900F9040923E0167
:102EA00080913E01882309F4ACCF6E9CF0016F9CA9
:102EB000F00D1124E458FE4F83818F70863009F0A5
:102EC000A0CF8481893F08F09CCF1F92F9EFFF9338
:102ED0008FEFE81AF80AFF92EF92DF92CF920E94EA
:102EE0001B1E29EF46E060E0872D0E94300D0F90F9
:102EF0000F900F900F900F900F9083CF213091F48F
:102F000020914B0130914C013F932F939F938F93CE
:102F1000BF92AF920E941B1E0F900F900F900F90C8
:102F20000F900F9080913E01882309F4B9CF8091D2
:102F30003E01815080933E01B3CF28818A519F4F3B
:102F40002817190609F05DCF1882872D0E94E51415
:102F5000F80183818068838354CF8FE096E09F934C
:102F60008F930E941B1E0F900F90FDCEFA01DC0183
:102F70008D910590801911F40020D1F7990B0895D7
:102F8000CF93DF93CDB7DEB76F970FB6F894DEBF60
:102F90000FBECDBF789484B5826084BD84B5816056
:102FA00084BD85B5826085BD85B5816085BD809114
:102FB0006E00816080936E0010928100809181008C
:102FC0008260809381008091810081608093810084
:102FD000809180008160809380008091B100846046
:102FE0008093B1008091B00081608093B0008091A7
:102FF0007A00846080937A0080917A008260809366
:103000007A0080917A008E7F80937A0080917A0096
:10301000806880937A001092C10004B714BE86E1E4
:1030200085B988E388B983E28BB98CEE84B98FEFD8
:1030300087B98EEF8AB912E01093C0001092C100D8
:103040001092C2008091C20086608093C20080E12D
:103050008093C4001092C50082E191E09093010337
:1030600080930003909303038093020384E091E034
:103070009093FF028093FE0288E18093C1005B9AE7
:103080005E9A5D9A1F9281E08F9382E89EE09F9303
:103090008F930E941B1E89EB9DE09F938F930E944C
:1030A0001B1E1F928AE78F9382E18F931F9282EA01
:1030B0009DE09F938F930E941B1E1F920F938DE89C
:1030C0009DE09F938F930E941B1E0E94FD0A109209
:1030D00080008CE08093810088E09DE390938900DC
:1030E0008093880010936F0078948AE69DE09F9308
:1030F0008F930E941B1E8FE59AEE0197F1F700C097
:1031000000002A9A1CBC1DBC80E58CBD80E00E949A
:10311000EF08082F0F7181E00E94EF08182F1F7130
:103120001F921F931F920F9385E19BE09F938F93B4
:103130000E941B1E0FB6F894DEBF0FBECDBF083035
:1031400019F4163009F413C183EE9AE09F938F931C
:103150000E941B1E8FEF9FEF90932101809320010F
:1031600082E59DE09F938F930E941B1E0F900F900E
:103170000F900F90CC24CA94DC2CF8940E946D0D13
:10318000182FE82E082E000CFF087894F7FEA2C135
:103190008BE99BE09F938F930E941B1E0F900F90D3
:1031A0000E94BB0D80910003909101032091FE02CB
:1031B0003091FF023093AF012093AE019093B101A3
:1031C0008093B00189E39DE09093AD018093AC01C1
:1031D00040EE5BE067E872E188EF9BE00E94E8095F
:1031E00046E95CE064E073E185E39DE00E94E80964
:1031F00046E75CE06CEE72E182E99CE00E94E8093F
:1032000047E55CE06BE17AE082E79CE00E94E80938
:10321000CD2859F58091220118163CF50E947009BD
:1032200086E39CE09F938F930E941B1E8FEF0E946A
:10323000880B86E29CE09F938F930E941B1E1F9237
:1032400084EF8F938DEF9BE09F938F930E941B1EC3
:1032500024EF46E060E08FEF0E94300D0E9470097D
:103260000FB6F894DEBF0FBECDBF87EB9EE09F93F5
:103270008F930E941B1EE0916E01F0916F011386E7
:10328000158614861286118610861782168215827C
:103290001482138210926C0110926D010F900F90A6
:1032A00001E0BE01615F7F4F80916E0190916F01DF
:1032B0000E945310882309F453C167E0CE010F9692
:1032C0000E9415089E898913ECCF809168018111B5
:1032D00028C080916E0190916F010E948F0FBE01F6
:1032E000615F7F4F80916E0190916F010E94B308E2
:1032F00040E064EB80916E0190916F010E947F0825
:1033000080916E0190916F010E942C08182F80917E
:103310006E0190916F010E948F0F111102C00093F6
:103320006801109169018F85803109F474C3CE0161
:103330000F960E942610811708F001C18091690143
:103340008093690180916C018F5F80936C018F8500
:10335000883239F008F0FDC0803119F0823209F06E
:10336000A0CF80916D018F5F80936D019ACF8FEB1D
:103370009AE09F938F930E941B1E60E887E00E9453
:1033800008090F900F901999FECF0E94D80889EA7A
:103390009AE09F938F930E941B1E0E94140960E085
:1033A00088E00E94080963E785E70E94080960E059
:1033B00074E686E70E94F70861E08AE70E94080940
:1033C00063E289E70E94080970E060E083E70E94F9
:1033D000F70861E281E70E94080965EF78E28EE66E
:1033E0000E94F70860E280E70E9408096FE08DE61E
:1033F0000E9408098EE0E7E2F1E0DE0111960190FB
:103400000D928A95E1F72A988CE90E94D2088E01E4
:103410000F5F1F4F7E01FBE0EF0EF11C0F900F902E
:10342000F80181918F010E94D208E016F106C1F7E0
:103430002A9A2A988AEA0E94D2088B850E94D2088A
:103440002A9A2A988CEA0E94D2088C850E94D20877
:103450008D850E94D2088E850E94D2082A9A60E645
:1034600089E60E94080960E185E30E94080966E098
:1034700083E30E9408092A9886EB0E94D2088CEC0C
:103480000E94D2088CEC0E94D2088CEC0E94D208D8
:103490008CEC0E94D2082A9A60E080E30E9408091E
:1034A00065E18BE00E94080962E18CE00E94080956
:1034B00010922101109220018DE39DE09F938F9344
:1034C0000E941B1E5B985D985E980F900F90D12C08
:1034D000C12C53CEFF928F938EE69BE09F938F93E8
:1034E0000E941B1E109322010F900F900F900F90BF
:1034F00010E000E0B6E09B2E86E4A82E8BE0B82E0C
:103500000E151F050CF04CCE909EF001919EF00D13
:103510001124E458FE4F918180810F5F1F4F1F924D
:103520009F931F928F931F930F93BF92AF920E940E
:103530001B1E0FB6F894DEBF0FBECDBFE1CF8F8547
:10354000803111F48CE0FCCECE010F960E94261043
:10355000F7CE8B3309F405CF823409F0A2CE01CF28
:103560008CE080936901F12CE12C0FE5EFE7DE2E72
:10357000FFE1CF2EAFE3BA2E10916C01812F90E0C6
:10358000E816F9060CF0A2C06E2DCE0148960E94F6
:10359000D310109169011D3018F11CE0888D803125
:1035A00019F1CE0148960E942610811709F486C0B1
:1035B000BE01615F7F4FCE0148960E94C20F8823F3
:1035C00009F47CC0888D803109F478C01B3009F47F
:1035D00079C01C3059F01A3009F076C0BB8A07C098
:1035E0001930E0F619E0DACF8CE0DFCFDB8A80918A
:1035F0006E0190916F010E948F0FBE01685E7F4F38
:1036000080916E0190916F010E94B30840E06EE4DA
:1036100080916E0190916F010E947F0840E069895E
:1036200080916E0190916F010E947F0840E06A894D
:1036300080916E0190916F010E947F08888D80318A
:1036400041F040E06B8980916E0190916F010E9482
:103650007F0880916E0190916F010E948F0FBE01D3
:10366000685E7F4F80916E0190916F010E94B30858
:103670004091680168E480916E0190916F010E9411
:103680007F0864E170E080E090E00E94E2078091B2
:103690006801882331F06AE070E080E090E00E94E9
:1036A000E20780916E0190916F010E948F0F8091CF
:1036B0006901811708F4812F809369019FEFE91A4E
:1036C000F90A5ACF0B8B93CFCB8A91CF9F931F933D
:1036D00084E99EE09F938F930E941B1E5B980F903E
:1036E0000F900F900F9080E08117B1F0EFEFF1EEA7
:1036F00024E0E150F0402040E1F700C000005B9A78
:103700003FE798E3E1E031509040E040E1F700C04E
:1037100000005B988F5FE8CF80E09FE09F938F93DE
:103720000E941B1E0F900F9054E5452E52E0552E1F
:10373000CC24C394D12C73EF672E7EE0772E60915A
:10374000B0017091B1018091AC019091AD010E94E6
:10375000F31D6091B0017091B1018DEF9EE00E9468
:10376000F31D5092DB024092DA02D092D902C0924D
:10377000D8021092D5021092D4028091AE0190919D
:10378000AF010E949C1DF82E0091D6021091D70225
:103790000115110541F4FAE08F1709F4B6C02DE0C8
:1037A000821709F4B2C038E0F31609F45CC08FE167
:1037B0008F150CF455C09AE0F912DFCF8091D40236
:1037C0009091D5028F379105C1F28091D8029091E6
:1037D000D902409791F26091B0017091B1018F2DA3
:1037E0000F2C000C990B0E9430208091D6029091F2
:1037F000D702892B09F081C0F0E2FF1204C1F12C3D
:103800008091D4029091D5029C0124553E4FF9013C
:10381000E855FF4FF0820097E9F0FF20D9F02955D5
:103820003F4FF9012081211115C02091D80230911C
:10383000D902A9014F5F5F4F5093D9024093D8023C
:10384000220F331FF901E652FD4F9C012C5A3D4FC8
:103850003183208301969093D5028093D4028DCF3B
:10386000EFE7FE12ABCF8091D4029091D502892B65
:1038700009F483CF6091B0017091B10188E090E0CC
:103880000E9430206091B0017091B10180E290E01F
:103890000E9430206091B0017091B10188E090E009
:1038A0000E9430202091D4023091D502A9014150CC
:1038B00051095093D5024093D402CA0184559E4FBA
:1038C000452BB1F0FC01E855FF4F4081442381F0C6
:1038D0002E5A3D4FF901208121110AC02091D802B2
:1038E0003091D902215031093093D9022093D80266
:1038F00088559F4FFC01108240CF22E2F21280CF08
:103900001092D7021092D6027ACFE091D402F091B1
:10391000D502EC5AFD4F10826091B0017091B10157
:103920008AE090E00E9430208091D4029091D502EC
:10393000892B09F404CFA0905202B09053028090DA
:10394000DA029090DB022CEAE22E21E0F22E0A1538
:103950001B050CF045C0F70146815781052E000C70
:10396000660B770BC4010E94B617F8E0EF0EF11C4E
:1039700098012F5F3F4F892B09F043C04091D80237
:103980005091D902F80183E0EE0FFF1F8A95E1F70D
:10399000E455FE4F6285738593E0220F331F9A959D
:1039A000E1F7F901E455FE4F0190F081E02D2AED99
:1039B00032E08CEA91E00995009791F09F938F9304
:1039C0007F926F928091B1018F938091B0018F931C
:1039D0000E94D81D0F900F900F900F900F900F9096
:1039E00080915202909153020817190709F0A7CE4F
:1039F0006091B0017091B10182EE9EE00E94F31DD2
:103A00009ECE8901A4CF22E2F212FACED092D70242
:103A1000C092D602B2CE1D3008F090CC93CDCF9399
:103A2000DF9347E75AE0FA01649183E69AE0FC01EC
:103A300024912223C1F030E0220F331FF901E35B10
:103A4000F54FA591B491F901ED5BF54FC591D49176
:103A50007FB7F8943C91262F209532233C933881F0
:103A6000232328837FBFFA01449140935101FC0135
:103A70008491E82FF0E0EE0FFF1FE95AF54F859192
:103A80009491909353018093520110925C01109293
:103A90005E0110925D0110925B0110925A0110922A
:103AA000590110925801109257011092560110922C
:103AB00055011092540181E591E090936F0180933C
:103AC0006E0110926C0110926D011092680189E0F4
:103AD0008093690181E080936A0180936B01109269
:103AE0007B0110927A01DF91CF910895FC01882724
:103AF0009927E89421912032E9F3293010F02E30F3
:103B0000C8F32B3241F02D3239F4689404C00E947E
:103B1000941D820F911D219120532A30C0F31EF471
:103B2000909581959F4F08957AE0979F902D879F5C
:103B3000802D910D11240895CF93DF93EC012B81FB
:103B400020FF1AC026FF0CC02F7B2B838E819F8104
:103B500001969F838E838A8190E0DF91CF910895B3
:103B600022FF18C0E881F9818081082E000C990B92
:103B7000009729F420622B838FEF9FEFEECF3196D1
:103B8000F983E8832E813F812F5F3F4F3F832E8350
:103B90009927E3CFEA85FB85099597FFF3CF2B8122
:103BA000019621F080E2822B8B83E6CF80E1FBCF70
:103BB000B0E0A0E0EEEDFDE10C94F4200F8118855B
:103BC000F801838188608383AE01455F5F4F69851B
:103BD0007A85C8010E94401EF8012381277F238334
:103BE000E4E00C941021EF92FF920F931F93CF9378
:103BF000DF938C017B01DB0113968C91D0E0C0E058
:103C000081FD0FC0CFEFDFEF10C0D7011896ED9107
:103C1000FC91B7010995892B11F0CFEFDFEF0F5F12
:103C20001F4FF80184918111F0CFCE01CDB7DEB7DF
:103C3000E6E00C940E21B0E0A0E0E1E2FEE10C949D
:103C4000F420AE01495F5F4FDA016D917D91AD01C6
:103C50000EEF12E0F80182819381DC0113962C9122
:103C60001397286013962C930E94401ED801129639
:103C7000ED91FC912381277F2383E4E00C941021B4
:103C8000ABE0B0E0E6E4FEE10C94E6207C013B0111
:103C90008A01FC0117821682838181FFC8C1CE018F
:103CA00001965C01F7019381F30193FD859193FFE8
:103CB00081913F01882309F453C1853239F493FD82
:103CC000859193FF81913F01853229F4B70190E0FE
:103CD0000E943020E7CF912C212C312CFFE1F315ED
:103CE00038F08B3211F190F4803209F1833229F1EE
:103CF00037FC3CC020ED280F2A3050F536FE20C09E
:103D00008AE0989E200D1124922E06C08D3291F0EB
:103D1000803371F7689430F8F30193FD859193FF38
:103D200081913F018111DACF21C0689431F8689404
:103D300032F8F2CF689433F8EFCF689434F8ECCFD0
:103D4000EAE02E9E200D1124222E689435F8E4CF4F
:103D50008E3229F436FC04C1689436F8DDCF8C36F7
:103D600019F4689437F8D8CF8836B1F2982F9F7D30
:103D700095549330E0F08336A1F18337C1F1833558
:103D800009F063C02801F2E04F0E511CF801C08019
:103D9000D180692D70E036FC02C06FEF7FEFC60165
:103DA0000E941A204C01689437F882010AC00C5F07
:103DB0001F4FFFE3F98388248394912C6501E894D5
:103DC00037F833FE2DC0522C8114910471F5552023
:103DD00009F468CFB70180E290E00E9430205A9445
:103DE000F6CFF801808189830E5F1F4FE4CF280151
:103DF000F2E04F0E511CF801C080D180692D70E0B7
:103E000036FC02C06FEF7FEFC6010E9425204C01F7
:103E10008201D5CFB70180E290E00E9430202A9441
:103E20002814190409F0B0F7CECFF60137FC8591BC
:103E300037FE81916F01B70190E00E943020511050
:103E40005A94F1E08F1A9108BFCF843619F0893661
:103E500009F077C0F80137FE6BC060817181828103
:103E600093810C5F1F4FF32DFF763F2E97FF09C004
:103E700090958095709561957F4F8F4F9F4F689477
:103E800037F82AE030E0A5010E946020C82ECA1849
:103E90008C2C432C36FE0CC0E89440F8C91440F436
:103EA00034FE05C032FC03C0F32DFE7E4F2E892C5C
:103EB00044FE95C0FE01EC0DF11D8081803309F0B8
:103EC00087C0242D297E422E842D8870582E43FCD5
:103ED00095C040FE8FC09C2C821418F42C0C922CA0
:103EE000981844FE91C0B70180E390E00E94302012
:103EF00042FE09C088E790E041FE02C088E590E0FC
:103F0000B7010E943020C91408F48AC0CA94D12C89
:103F10009FEFC91AD90ACA0CDB1CF60182916F0106
:103F2000B70190E00E943020AC14BD04B1F74FCF30
:103F300060817181072E000C880B990B0E5F1F4F5B
:103F400092CFD32CE894D4F82AE030E0853739F1C9
:103F5000232D297FD22E8F3601F148F48835A9F020
:103F6000F701868197812B96E2E10C94022180373C
:103F700049F08837A9F7D4FE02C06894D2F820E14E
:103F800030E00DC06894D4F8F6CF34FE03C0822F21
:103F90008660D82E20E132E002C028E030E0F8014F
:103FA000D7FE0FC060817181828193810C5F1F4FAA
:103FB000A5010E946020C82ECA183D2CE89437F84D
:103FC00067CF6081718190E080E00E5F1F4FF0CF7E
:103FD00042FC02C0839478CF8394839475CF842D60
:103FE000867809F471CFF6CFB70180E290E00E94A5
:103FF000302083948214C0F3512C73CF522C581864
:10400000821408F46ECFF8CF842D867809F47BCF24
:104010008BE241FE80E247FC8DE2B70190E071CF78
:10402000B70180E390E00E9430209A946CCF8FEF2C
:104030009FEF99CFFC010590615070400110D8F7B7
:10404000809590958E0F9F1F0895FC0161507040E0
:1040500001900110D8F7809590958E0F9F1F0895BD
:104060000F931F93CF93DF93182F092FEB018B81B1
:1040700081FD09C01FEF0FEF812F902FDF91CF91AE
:104080001F910F91089582FF14C02E813F818C8172
:104090009D81281739073CF4E881F981CF01019609
:1040A0009983888310838E819F8101969F838E835D
:1040B000E3CFE885F985812F0995892BA1F3DACF24
:1040C000FA01AA27283051F1203181F1E8946F9349
:1040D0006E7F6E5F7F4F8F4F9F4FAF4FB1E03ED0EF
:1040E000B4E03CD0670F781F891F9A1FA11D680F8D
:1040F000791F8A1F911DA11D6A0F711D811D911DC0
:10410000A11D20D009F468943F912AE0269F112434
:104110003019305D3193DEF6CF010895462F477098
:10412000405D4193B3E00FD0C9F7F6CF462F4F70F3
:10413000405D4A3318F0495D31FD4052419302D051
:10414000A9F7EACFB4E0A6959795879577956795F7
:10415000BA95C9F700976105710508959B01AC01F7
:104160000A2E06945795479537952795BA95C9F71E
:10417000620F731F841F951FA01D0895DC01CB01E2
:10418000FC01F999FECF06C0F2BDE1BDF89A319667
:1041900000B40D9241505040B8F70895DC01CB01B6
:1041A00003C02D910E94D92041505040D0F708956E
:1041B000262FF999FECF1FBA92BD81BD20BD0FB643
:1041C000F894FA9AF99A0FBE019608952F923F92A9
:1041D0004F925F926F927F928F929F92AF92BF9217
:1041E000CF92DF92EF92FF920F931F93CF93DF93C3
:1041F000CDB7DEB7CA1BDB0B0FB6F894DEBF0FBE20
:10420000CDBF09942A88398848885F846E847D846C
:104210008C849B84AA84B984C884DF80EE80FD806E
:104220000C811B81AA81B981CE0FD11D0FB6F894E4
:10423000DEBF0FBECDBFED0108950E94242168941A
:10424000B1110C94B32108950E94982188F09F57D2
:1042500098F0B92F9927B751B0F0E1F0660F771FAA
:10426000881F991F1AF0BA95C9F714C0B13091F0A0
:104270000E94B221B1E008950C94B221672F782FEB
:104280008827B85F39F0B93FCCF386957795679565
:10429000B395D9F73EF490958095709561957F4FD1
:1042A0008F4F9F4F0895E89409C097FB3EF4909577
:1042B0008095709561957F4F8F4F9F4F9923A9F0FF
:1042C000F92F96E9BB279395F6958795779567958E
:1042D000B795F111F8CFFAF4BB0F11F460FF1BC0D2
:1042E0006F5F7F4F8F4F9F4F16C0882311F096E965
:1042F00011C0772321F09EE8872F762F05C0662313
:1043000071F096E8862F70E060E02AF09A95660FCB
:10431000771F881FDAF7880F9695879597F9089584
:1043200057FD9058440F551F59F05F3F71F0479566
:10433000880F97FB991F61F09F3F79F0879508954B
:10434000121613061406551FF2CF4695F1DF08C06A
:10435000161617061806991FF1CF86957105610587
:1043600008940895E894BB2766277727CB0197F92F
:1043700008950E94CC210C943D220E942F2238F0F7
:104380000E94362220F0952311F00C9426220C94E2
:104390002C2211240C94B3210E94902170F3959F3C
:1043A000C1F3950F50E0551F629FF001729FBB272C
:1043B000F00DB11D639FAA27F00DB11DAA1F649FC8
:1043C0006627B00DA11D661F829F2227B00DA11D7B
:1043D000621F739FB00DA11D621F839FA00D611D01
:1043E000221F749F3327A00D611D231F849F600D22
:1043F000211D822F762F6A2F11249F5750409AF04B
:10440000F1F088234AF0EE0FFF1FBB1F661F771FD6
:10441000881F91505040A9F79E3F510580F00C94A1
:1044200026220C94B3215F3FE4F3983ED4F38695A3
:1044300077956795B795F795E7959F5FC1F7FE2B41
:10444000880F911D9695879597F9089597F99F671D
:1044500080E870E060E008959FEF80EC089500240C
:104460000A941616170618060906089500240A94D9
:1044700012161306140605060895092E0394000C5F
:1044800011F4882352F0BB0F40F4BF2B11F460FFEE
:1044900004C06F5F7F4F8F4F9F4F089597FB072E8C
:1044A00016F4009407D077FD09D00E94922207FCF1
:1044B00005D03EF4909581959F4F08957095619534
:1044C0007F4F0895052E97FB1EF400940E947922D9
:1044D00057FD07D00E94A62207FC03D04EF40C948F
:1044E000792250954095309521953F4F4F4F5F4F22
:1044F000089590958095709561957F4F8F4F9F4F50
:104500000895EE0FFF1F0590F491E02D09940E948D
:10451000C822A59F900DB49F900DA49F800D911D62
:1045200011240895AA1BBB1B51E107C0AA1FBB1F82
:10453000A617B70710F0A61BB70B881F991F5A952F
:10454000A9F780959095BC01CD010895A1E21A2E9E
:10455000AA1BBB1BFD010DC0AA1FBB1FEE1FFF1F27
:10456000A217B307E407F50720F0A21BB30BE40B77
:10457000F50B661F771F881F991F1A9469F76095BE
:104580007095809590959B01AC01BD01CF01089578
:10459000A29FB001B39FC001A39F700D811D112484
:1045A000911DB29F700D811D1124911D0895F894E5
:0245B000FFCF3B
:1045B200010180FD00000001000000000000CC09A4
:1045C20000000000000200000000D6090000000008
:1045D20001000101040208C1400A039600DA7400D6
:0C45E200DC2428FA295E00BC00770100F0
:107800000C94343C0C94513C0C94513C0C94513CE1
:107810000C94513C0C94513C0C94513C0C94513CB4
:107820000C94513C0C94513C0C94513C0C94513CA4
:107830000C94513C0C94513C0C94513C0C94513C94
:107840000C94513C0C94513C0C94513C0C94513C84
:107850000C94513C0C94513C0C94513C0C94513C74
:107860000C94513C0C94513C11241FBECFEFD8E036
:10787000DEBFCDBF11E0A0E0B1E0EAE8FFE702C063
:1078800005900D92A230B107D9F712E0A2E0B1E065
:1078900001C01D92AD30B107E1F70E942D3D0C945F
:1078A000C33F0C94003C982F95959595959595958B
:1078B000905D8F708A307CF0282F295A8091C0000B
:1078C00085FFFCCF9093C6008091C00085FFFCCF60
:1078D0002093C6000895282F205DF0CF982F809127
:1078E000C00085FFFCCF9093C6000895EF92FF92F1
:1078F0000F931F93EE24FF2487018091C00087FD22
:1079000017C00894E11CF11C011D111D81E2E8164D
:1079100081EAF80687E0080780E0180770F3E09135
:107920000401F091050109958091C00087FFE9CF1E
:107930008091C6001F910F91FF90EF9008950E94D3
:10794000763C982F8091C00085FFFCCF9093C600B5
:1079500091362CF490330CF09053892F089597555D
:10796000892F08951F930E949F3C182F0E949F3CCF
:107970001295107F810F1F9108951F93182F882350
:1079800021F00E94763C1150E1F71F9108951F935A
:10799000182F0E94763C803249F0809103018F5F5E
:1079A000809303018530C1F01F9108958091C0003C
:1079B00085FFFCCF84E18093C6008091C00085FFE5
:1079C000FCCF1093C6008091C00085FFFCCF80E102
:1079D0008093C6001F910895E0910401F091050184
:1079E00009951F9108950E94763C803241F0809164
:1079F00003018F5F80930301853081F008958091AA
:107A0000C00085FFFCCF84E18093C6008091C00058
:107A100085FFFCCF80E18093C6000895E0910401CA
:107A2000F09105010995089548EC50E08823A1F0F4
:107A30002D9A28EE33E0FA013197F1F721503040CA
:107A4000D1F72D9828EE33E0FA013197F1F7215064
:107A50003040D1F7815061F708953F924F925F9285
:107A60006F927F928F929F92AF92BF92CF92DF924E
:107A7000EF92FF920F931F93CF93DF93000082E06A
:107A80008093C00080E18093C4001092C50088E11B
:107A90008093C10086E08093C2005098589A259A3E
:107AA00081E00E94143D24E1F22E9EE1E92E85E959
:107AB000D82E0FE0C02E10E1B12EAA24A394B1E479
:107AC0009B2EA6E58A2EF2E57F2EE0E26E2E79E46B
:107AD000572E63E5462E50E5352E0E94763C8033C6
:107AE000B1F18133B9F1803409F46FC0813409F404
:107AF00076C0823409F485C0853409F488C08035A5
:107B000031F1823521F1813511F1853509F485C0D6
:107B1000863509F48DC0843609F496C0843709F49B
:107B200003C1853709F472C1863709F466C08091B4
:107B300003018F5F80930301853079F6E0910401A2
:107B4000F091050109950E94763C803351F60E9420
:107B5000F33CC3CF0E94763C803249F78091C0004D
:107B600085FFFCCFF092C6008091C00085FFFCCF5E
:107B70009092C6008091C00085FFFCCF8092C60025
:107B80008091C00085FFFCCF7092C6008091C0003C
:107B900085FFFCCF6092C6008091C00085FFFCCFBE
:107BA0005092C6008091C00085FFFCCF4092C60075
:107BB0008091C00085FFFCCF3092C6008091C0004C
:107BC00085FFFCCFB092C60088CF0E94763C8638F5
:107BD00008F4BDCF0E94763C0E94F33C7ECF0E9409
:107BE000763C803809F49CC0813809F40BC1823896
:107BF00009F430C1883909F48FC080E00E94C73C85
:107C00006CCF84E10E94BD3C0E94F33C66CF85E0CE
:107C10000E94BD3C0E94F33C60CF0E94763C809362
:107C200006010E94763C809307010E94F33C55CFE9
:107C30000E94763C803309F411C183E00E94BD3C70
:107C400080E00E94C73C49CF0E94763C80930902A5
:107C50000E94763C8093080280910C028E7F809374
:107C60000C020E94763C853409F409C18091080217
:107C700090910902892B89F000E010E00E94763C87
:107C8000F801E85FFE4F80830F5F1F4F809108026D
:107C9000909109020817190788F30E94763C8032F8
:107CA00009F045CF80910C0280FFF5C0609106017C
:107CB00070910701660F771F7093070160930601AB
:107CC000A0910802B09109021097C9F0E8E0F1E034
:107CD0009B01AD014E0F5F1FF999FECF32BD21BD53
:107CE000819180BDFA9AF99A2F5F3F4FE417F5070B
:107CF00099F76A0F7B1F70930701609306018091CB
:107D0000C00085FFFCCFF092C6008091C00085FFC7
:107D1000FCCFB092C600E1CE83E00E94C73CDDCE2E
:107D200082E00E94C73CD9CE0E94763C8093090233
:107D30000E94763C80930802809106019091070191
:107D4000880F991F90930701809306010E94763C4B
:107D5000853409F49AC080910C028E7F80930C02C6
:107D60000E94763C803209F0B8CE8091C00085FF39
:107D7000FCCFF092C600A0910802B09109021097C2
:107D8000C1F180910C02082F0170182F1695117007
:107D9000E0910601F0910701AF014F5F5F4FBA011B
:107DA00020E030E00023B1F4112339F49491809164
:107DB000C00085FFFCCF9093C6002F5F3F4FCB01E3
:107DC0000196FA012A173B0780F4BC014F5F5F4F11
:107DD000002351F3F999FECFF2BDE1BDF89A90B5B9
:107DE0008091C00085FFFCCFE6CF709307016093C0
:107DF00006018091C00085FDE5CE8091C00085FF21
:107E0000F8CFE0CE81E00E94C73C67CE0E94763C6E
:107E1000803209F08CCE8091C00085FFFCCFF092BB
:107E2000C6008091C00085FFFCCFE092C600809123
:107E3000C00085FFFCCFD092C6008091C00085FFB6
:107E4000FCCFC092C6008091C00085FFFCCFB092ED
:107E5000C60043CE80E10E94C73C3FCE0E94763CE4
:107E60000E94763C182F0E94763C112309F483C0AF
:107E7000113009F484C08FE00E94C73C2ECE80915F
:107E80000C02816080930C02F1CE80910C02816023
:107E900080930C0265CF809107018823880F880B9F
:107EA0008A2180930B028091060190910701880F2F
:107EB000991F90930701809306018091080280FF2B
:107EC00009C08091080290910902019690930902DD
:107ED00080930802F894F999FECF1127E0910601EA
:107EE000F0910701C8E0D1E0809108029091090269
:107EF000103091F40091570001700130D9F303E084
:107F000000935700E8950091570001700130D9F3B4
:107F100001E100935700E8950990199000915700EE
:107F200001700130D9F301E000935700E8951395F3
:107F3000103498F011270091570001700130D9F3E7
:107F400005E000935700E89500915700017001305B
:107F5000D9F301E100935700E8953296029709F0B2
:107F6000C7CF103011F00296E5CF11248091C000E8
:107F700085FFC5CEC8CE8EE10E94C73CAECD85E957
:0A7F80000E94C73CAACDF894FFCF81
:027F8A00800075
:040000030000780081
:00000001FF
