:100000000C94D1070C94F9070C94F9070C94F90798
:100010000C94F9070C94F9070C94F9070C94F90760
:100020000C94F9070C94F9070C94F9070C94C51675
:100030000C94F9070C94F9070C94F9070C94F90740
:100040000C947B160C94F9070C94F9070C94F9079F
:100050000C94F9070C94F9070C94F9070C94F90720
:100060000C94F9070C94F90725313653202D2025DF
:10007000530A000A004C4F47204648542030205273
:10008000464D5F54582000636D64203078256875B4
:1000900020657874203078256875005445535400E5
:1000A00053594E432025750044455343414C450068
:1000B0004F46465345542025640056414C56455FF3
:1000C0005345542025750056414C56455F434C4FCF
:1000D00053450056414C56455F4F50454E005359CD
:1000E0004E435F53455420257500454E41424C45D3
:1000F0005F4C4F575F424154545F5741524E494EF7
:100100004720004558542000525054200020686376
:100110003D272575202575273D27256875202568ED
:10012000752720636D644C3D27307825687527203E
:10013000636D64553D273078256875272065787490
:100140003D2730782568752720006772703D272588
:100150006427206164723D27257527200027200031
:10016000464C473D2700272000434D443D27004C87
:100170004F4720464854203120454550524F4D208E
:1001800047726F75703D272575272068633D2725C9
:1001900075202575273D2725687520256875270A50
:1001A0000067726F757073206E756D202025750A5B
:1001B0000067726F75705F73697A65202025750A14
:1001C000006865616465725F73697A652025750AE8
:1001D0000076657273696F6E202020202025750AD5
:1001E000004C4F4720464854203120454550524F3F
:1001F0004D20486561646572206D69736D6174633B
:1002000068210A000A2A2A2A20454550524F4D20CB
:1002100064617461207265706F72743A0A005345AC
:100220005454494E47533A204648545F4652454538
:100230005A494E475F54454D503D25642C20464851
:10024000545F465245455A494E475F5345545F56A1
:10025000414C55453D307825582C20465245455A4D
:10026000494E475F494E49545F434F554E543D25D3
:10027000753B204648545F50414E49435F54494DB9
:10028000454F55543D25755B7469636B735D2C2038
:100290004648545F50414E49435F5345545F564171
:1002A0004C55453D307825580A004C4F472046486C
:1002B00054203120524144494F204641494C454445
:1002C000207374617475732069732025642E0A008D
:1002D0004C4F4720464854203120524144494F203A
:1002E0006F6B0A004C617374206B6E6F776E2074B5
:1002F000656D703A2025642F31302C20667265655B
:100300007A696E67206D6F64653A2025750A00462C
:100310007265657A696E67212000557074696D6534
:10032000205B7469636B735D3A2025753B206C61BB
:10033000737420656E7120636F6D6D616E642061F2
:10034000743A2025750A0050616E696321200046C9
:10035000726565206D656D2069732025750A000A38
:100360002A2A2A20546563686E6963616C2072656D
:10037000706F72743A0A000A004C4F472046485486
:1003800020312052464D5F545120000A2A2A2A204B
:100390004D6573736167657320656E71756575650D
:1003A000643A0A004E756D626572206F662067724E
:1003B0006F757073206D6178696D756D3A202020BE
:1003C000202020202025750A004E756D6265722060
:1003D0006F662067726F7570732063757272656ED9
:1003E000746C7920757365643A2025750A000A2AB1
:1003F0002A2A2043757272656E742073657474695D
:100400006E6773207265706F72743A0A00434C49CC
:100410002050414E4943204F4646004C4F4720460E
:10042000485420302050414E4943204F46462074C6
:1004300069636B3D27257527206C6173745F656E5A
:10044000713D2725752720706F733D272575270A75
:10045000000A004C4F472046485420302052464D59
:100460005F545120004C4F472046485420312052C1
:10047000464D5F54582053594E432053796E6320A4
:1004800067726F757020256420636F6D706C657482
:10049000650A004C4F472046485420312052464DB3
:1004A0005F54582053594E432057616974696E67F1
:1004B00020666F722067726F7570202564207379D3
:1004C0006E632E2E2E0A004C4F4720464854203192
:1004D0002052464D5F54582053594E432053796E55
:1004E00063206F6620616C6C2067726F757073207B
:1004F000636F6D706C6574650A004C4F4720464809
:100500005420312052464D5F54582053594E4320B9
:1005100057616974696E6720666F7220414C4C2088
:1005200067726F7570732073796E632E2E2E0A00BA
:10053000256C642E256C6400756E6B6E6F776E0093
:100540004D534720564343204C4F43414C20766146
:100550006C75653D27256C642720756E69743D2791
:100560006D5627206465765F747970653D276D331D
:100570003238270A002720756E69743D27432720EB
:100580006465765F747970653D276D333238270A6C
:10059000004D534720544D50204C4F43414C207642
:1005A000616C75653D27004C4F472046485420300C
:1005B00020465245455A494E4720545820656E669C
:1005C0006F7263696E672067726F75703D2725755E
:1005D000272076616C7665206F70656E696E672086
:1005E000746F20307825580A004C4F4720464854F5
:1005F000203020465245455A494E47204C454156E9
:1006000045206C6173745431303D27256420746932
:10061000636B3D27257527270A004C4F4720464826
:1006200054203020465245455A494E4720454E54A5
:100630004552206C6173745431303D272564272066
:100640007469636B3D272575270A00434C49206672
:1006500068745F7469636B2069676E6F7265642C80
:100660002020726164696F206E6F7420696E7469F6
:10067000616C697A65642E0A00434C492050414EF2
:100680004943204F4E2073657474696E6720616C16
:100690006C2067726F7570732076616C7665207060
:1006A0006F736974696F6E7320746F20307825588A
:1006B000203A206D65737361676520656E7175659D
:1006C0007565642E0A004C4F472046485420302060
:1006D00050414E4943204F4E207469636B3D27259E
:1006E0007527206C6173745F656E713D27257527D2
:1006F00020706F733D272575270A00434C4920431E
:100700006F6D6D616E64206E6F7420737570706FA5
:100710007274656420666F7220414C4C2067726F62
:100720007570732E20506C656173652073706563FE
:100730006966792067726F7570206E756D6265727B
:100740000A00434C4920556E6B6E6F776E206668C9
:100750007420636F6D6D616E642E0A00434C4920F6
:1007600049444C452E0A0069646C6500696E666FE9
:1007700000434C492052657175657374696E67203A
:1007800067726F75702025752076616C76652074B0
:1007900065737420626565700A0062656570004C5F
:1007A0004F4720464854203220434C4920506C6526
:1007B00061736520736574757020686F6D65206363
:1007C0006F64657320666F72206E65772067726F45
:1007D000757073212043616C6C3A206668742068E0
:1007E00063203C67726F75703E203C6863313E2029
:1007F0003C6863323E0A00434C49204E756D626589
:1008000072206F66206163746976652067726F7508
:1008100070732069732073657420746F2025752EA2
:100820000A00434C49204572726F723A20257520A8
:100830006973206F7574206F66207468652072611B
:100840006E6765205B312C204648545F47524F55F8
:1008500050535F44494D3D25755D2E0A0067726F08
:1008600075707300434C492053657474696E67203A
:1008700067726F75702025752076616C766520250E
:1008800075206F666673657420746F202564203D43
:1008900020307825780A006F666673657400434CD3
:1008A000492053657474696E672067726F75702094
:1008B00025752076616C766520706F736974696F39
:1008C0006E20746F20307825580A007365746800B4
:1008D0007365740073657470007365746800736584
:1008E0007400434C492053796E63696E67206772C8
:1008F0006F75702025752076616C7665730A0073BC
:10090000796E6300434C4920526571756573746953
:100910006E672067726F75702025752076616C7622
:10092000652025752070616972696E670A007061C3
:10093000697200434C4920486F6D6520636F6465A0
:10094000206F662067726F75702025752077617340
:100950002073657420746F20257520257568633DAC
:10096000272575202575273D27256875202568755D
:10097000272E0A0068636800686368006863640083
:10098000686300434C4920496E76616C6964206756
:10099000726F7570206E616D652E0A00434C4920A0
:1009A0004D697373696E6720706172616D657465FE
:1009B000722E0A0046726565206D656D2069732090
:1009C00025750A0023205061636B657420746F6F76
:1009D000206C617267650A002720756E69743D2777
:1009E0004327207261773D27257827206465765F4D
:1009F000747970653D277369343433270A004D5389
:100A00004720544D50204C4F43414C2076616C752B
:100A1000653D270025642E256400756E6B6E6F772B
:100A20006E0025303258004C4F4720544D50203036
:100A30002044616C6C61732064657669636520692C
:100A40006E646578202575206973206E6F7420614F
:100A50007661696C61626C652E0A00270A002720A6
:100A6000756E69743D274327207261773D2725788D
:100A700027206465765F747970653D27445331386B
:100A800078323027206465765F696E6465783D272B
:100A9000257527206465765F616464726573733DB4
:100AA00027004D534720544D50204C4F43414C207C
:100AB00076616C75653D2700000000002500280068
:100AC0002B0000000000240027002A000000000086
:100AD0002300260029000404040404040404020280
:100AE00002020202030303030303010204081020AD
:100AF0004080010204081020010204081020005E5A
:100B0000BCE2613FDD83C29C7E20A3FD1F41009DAE
:100B100023BE46DB65F88C11AF32CA57E9744C4FDF
:100B20004720464854203220524144494F20446FC8
:100B30006E650A004C4F47204648542032205241EF
:100B400044494F20526573657474696E6720726101
:100B500064696F2E2E2E0A004C4F472046485420C1
:100B60003120524144494F204552524F523A20556C
:100B70006E737570706F727465642F6D69737369CD
:100B80006E6720726164696F0A004C4F47204648C7
:100B900054203120524144494F20466F756E6420E5
:100BA00064657669636520747970652025642076B4
:100BB000657273696F6E2025640A004C4F472046AA
:100BC0004854203120454550524F4D2047726F7593
:100BD0007020256420484320697320256420256403
:100BE0002E0A00436F6E666967206C6F61646564EE
:100BF0002066726F6D20656570726F6D2C202564A4
:100C00002067726F75707320666F756E642E0A00B0
:100C10004C4F4720464854203120454550524F4DB7
:100C200020696E636F73697374656E7420636F6E91
:100C300066696775726174696F6E206461746120A2
:100C400066726F6D20454550524F4D2069676E6F3B
:100C50007265640A004C69737420617661696C6125
:100C6000626C6520636F6D6D616E64730068656CA6
:100C70007000434C492053657474696E6720616C41
:100C80006C2067726F75702076616C766573207466
:100C90006F20307825582E2E2E0A00434C492053C1
:100CA000796E6320646F6E652E0A00434C492053B1
:100CB000796E63696E6720616C6C2067726F757006
:100CC0002076616C7665732E2E2E0A006D656D2080
:100CD0002D206765742066726565206D656D6F7285
:100CE0007920696E666F006D656D00746D70202DE2
:100CF0002072656164207468652074656D7065722A
:100D000061747572657300746D7000666874206735
:100D1000726F757073203C6E756D5F6F665F677282
:100D20006F7570733E207C206863203C6772703E54
:100D3000203C6863313E203C6863323E207C20705A
:100D4000616972203C6772703E205B3C76616C7614
:100D5000653E5D207C2073796E63205B3C6772701A
:100D60003E5D207C206F666673657420203C677250
:100D7000703E203C76616C76653E203C76616C75F9
:100D8000653E207C20736574203C6772703E203C79
:100D9000706F733E207C2062656570203C677270C6
:100DA0003E207C20696E666F2000666874004648AD
:100DB00054004C4F4720464854203120524144496A
:100DC0004F204F4B0A0A004C4F47204648542031D1
:100DD00020524144494F204641494C45440A004C69
:100DE0004F4720464854203220524144494F204525
:100DF0006E61626C696E6720726164696F2E2E2E5F
:100E00000A00526573657420737461747573203DB4
:100E100020307825580A0053797374656D20636C0F
:100E20006F636B203D20256C7520487A0A000A0A02
:100E30004648542076616C766520636F6D6D756EE3
:100E400069636174696F6E206578616D706C65208F
:100E5000666F722052464D32322F32330A284329B0
:100E60002032303133204D696B6520537469726CC8
:100E7000696E670A687474703A2F2F7777772E6DD2
:100E8000696B65737469726C696E672E636F2E751A
:100E90006B0A0A28432920323031332048796E65A5
:100EA0006B20426172616E0A68747470733A2F2FFE
:100EB0006769746875622E636F6D2F48796E656B14
:100EC000426172616E2F46485438560A0A536B6568
:100ED000746368206461746520616E642074696D58
:100EE000654A616E20323520323032302031323A5C
:100EF00034363A34340A004465627567206C65768E
:100F0000656C203D2025750A0044616C6C6173207E
:100F100073656E736F7273207365742075702C2007
:100F20002575206465766963657320666F756E64E8
:100F30002E0A0044616C6C61732054656D7065729B
:100F400061747572653A2053657474696E672075B3
:100F5000702073656E736F72732E2E2E0A00556E9D
:100F60006B6E6F776E20636F6D6D616E640A004506
:100F700072726F722025640A003E2000434C4920A3
:100F800052656164790A0A00436F6D6D616E642079
:100F900072656769737472792066756C6C0A0000FB
:100FA000B11D11241FBECFEFD8E0DEBFCDBF11E0D1
:100FB000A0E0B1E0ECE5F9E402C005900D92AC339D
:100FC000B107D9F723E0ACE3B1E001C01D92A63030
:100FD000B207E1F717E0C1EDD7E004C02197FE01A9
:100FE0000E949224C03DD107C9F70E947D180C943D
:100FF000AC240C9400003FB7F8948091600190916C
:101000006101A0916201B091630126B5A89B05C062
:101010002F3F19F00196A11DB11D3FBFBA2FA92F77
:10102000982F8827BC01CD01620F711D811D911D74
:1010300043E0660F771F881F991F4A95D1F70895DF
:101040008F929F92AF92BF92CF92DF92EF92FF92D8
:101050006B017C010E94FB074B015C01C114D104B0
:10106000E104F104B9F00E94FB07681979098A09C3
:101070009B09683E73408105910580F321E0C21A07
:10108000D108E108F10888EE880E83E0981EA11CC3
:10109000B11CE4CFFF90EF90DF90CF90BF90AF9066
:1010A0009F908F900895DC0180E0615090F09D91B9
:1010B0009827E92FEF70F0E0E250F54F2491E92FE7
:1010C000E295EF70F0E0E25FF44FE491822F8E271B
:1010D000ECCF0895DC012C911196ED91FC91F894E0
:1010E0008181822B81839281322F30959323928349
:1010F00082E090E00197F1F781818323818380E191
:1011000090E00197F1F790817894E6E6F0E031976E
:10111000F1F7922381E009F480E00895FC019081C9
:101120000180F281E02D292F209560FF14C0F894F2
:101130008281822382838181892B8183A0E1B0E037
:101140001197F1F78281982B928378948AE690E048
:101150000197F1F70895F894828182238283818137
:10116000892B8183AEE7B0E01197F1F78281982B4C
:101170009283789486E090E0EBCFDF92EF92FF923B
:101180000F931F93CF93DF93EC01D62EE42E08E04C
:1011900010E0FF24F39461E08D2D8F2109F460E0CD
:1011A000CE010E948E08FF0C01501109A1F7E11039
:1011B00010C0F894E981FA81918188818095892312
:1011C0008183E981FA819281888180958923828354
:1011D0007894DF91CF911F910F91FF90EF90DF9066
:1011E0000895EF92FF920F931F93CF93DF938C019B
:1011F0007B0140E065E50E94BD08E70188E0E80E5C
:10120000F11C699140E0C8010E94BD08CE15DF05C0
:10121000C1F7DF91CF911F910F91FF90EF9008954B
:10122000CF93DF9300D0CDB7DEB72091FA02309193
:10123000FB02CE0101962115310559F486509340E9
:101240009A83898389819A810F900F90DF91CF9142
:101250000895821B930BE091FC02F091FD0230E0B7
:1012600020E0309751F02E5F3F4F40815181240F95
:10127000351F0280F381E02DF4CF820F931FE0CF62
:101280008EBD0DB407FEFDCF8EB50895CF93DF93CD
:101290002A9883E00E94400980E00E944009C82FFC
:1012A000D0E0DC2FCC2780E00E9440092A9A9E01E2
:1012B000282BC901DF91CF9108952A980E944009F7
:1012C00080E00E9440092A9A0895CF93DF93EB01B2
:1012D0002A9880680E9440098D2F0E9440098C2F17
:1012E0000E9440092A9ADF91CF910895CF93C62F8B
:1012F0002A9880680E9440098C2F0E9440092A9AEF
:10130000CF91089560E087E00E94760962E088E06E
:101310000E94760960E088E00E94760961E088E03A
:101320000E94760960E088E00E9476090E944609E2
:1013300070E060E085E00C94650988EC80937C00A7
:1013400065E070E080E090E00E94200880917A00E3
:10135000806480937A0080917A0086FDFCCF809132
:1013600078002091790030E0322F2227032E000CE4
:10137000440B550B282B2D57310941095109A3E383
:10138000B4E00E94DD220895CF93DF93C091020163
:10139000D09103010E949D0928EE33E040E050E027
:1013A0000E947324C901C0382DEFD20721F0C8175D
:1013B000D9070CF4CE01DF91CF9108950F931F93BD
:1013C00000914701109148014091490150914A0113
:1013D00060914B0170914C0130E020E0485F584F24
:1013E0006F4F7F4F81E090E00417150726073707FE
:1013F00010F490E080E01F910F910895CF93DF9358
:10140000DB014CE024E030E0892B19F048E326E0D2
:1014100030E080913C01C8E0D0E050E090913D0187
:10142000BE01691B7109F901621773072CF49091D1
:101430003D01FE01E91BF1092E1B3F0B0E2E01C0E1
:10144000880F0A94EAF7BA01022E02C075956795D3
:101450000A94E2F7862B90913D01E90FE0933D015C
:1014600090913D01983071F4ED91FC91119780833A
:101470006D917C9111976F5F7F4F11967C936E9366
:1014800010923D012115310549F680933C01DF9111
:10149000CF9108958091C00087FFFCCF8091C60056
:1014A000082E000C990B08958A3039F49091C000F1
:1014B00095FFFCCF9DE09093C6009091C00095FFF2
:1014C000FCCF8093C60090E080E008952091520206
:1014D000309153022431310559F488E89FE09F93FD
:1014E0008F930E94DD1F0F900F908FEF9FEF089555
:1014F000F901A3E0EE0FFF1FAA95E1F7E455FE4FB7
:1015000097838683558744872F5F3F4FD90183E0B8
:10151000AA0FBB1F8A95E1F7A455BE4F6D937C932C
:1015200013861286309353022093520290E080E09B
:1015300008950E9410099F938F9384EB99E09F93E5
:101540008F930E94DD1F0F900F900F900F9090E0EF
:1015500080E008959C0120388DEF380749F48AE136
:101560009AE09F938F930E94DD1F0F900F90089534
:10157000C9016AE070E00E945F2446EF4603C001A3
:10158000479F900D1124820F931F9F938F937F93FA
:101590006F9384E19AE09F938F930E94DD1F0F90D9
:1015A0000F900F900F900F900F900895CF93DF93AF
:1015B000F89460E78FE00E94760960E282E10E9481
:1015C000760960E88FE00E9476098FE00E945D094D
:1015D00081E10E945D097894C0E8DDEF8F3F31F032
:1015E00095E0899FE0011124C058D2408EEF99E028
:1015F0009F938F930E94DD1FCE010E94AA0ADF9362
:10160000CF9388ED99E09F938F930E94DD1F0F90F9
:101610000F900F900F900F900F90CE01DF91CF9110
:101620000895FF920F931F93CF93DF93F82ED92F36
:10163000C62F613480F084EC99E09F938F930E94D1
:10164000DD1F0F900F908FEF9FEFDF91CF911F91D4
:101650000F91FF9008950E9482092A988FEF0E94AF
:1016600040090F2D1D2FC15098F42A9A60E074E0B4
:1016700085E00E9465090E94460969E087E00E94B2
:1016800076091999FECF0E94820990E080E0DDCFB3
:10169000F80181918F010E944009E5CFCF92DF923E
:1016A000EF92FF920F931F93CF93DF930E949D09B8
:1016B0006B017C018EE480937C0065E070E080E04B
:1016C00090E00E94200880917A00806480937A00E4
:1016D00080917A0086FDFCCF80917800209179007E
:1016E00030E0322F2227032E000C440B550B282B01
:1016F00060E070E381E190E00E947324E901142F1F
:10170000052F81E995E09F938F930E94DD1F0F9035
:101710000F9080E8C8168DEFD8068FEFE806F80620
:1017200049F588E395E09F938F930E94DD1F0F900A
:101730000F9085E795E09F938F930E94DD1F0F9395
:101740001F93DF93CF9380E495E09F938F930E9444
:10175000DD1F8DB79EB708960FB6F8949EBF0FBEDB
:101760008DBFDF91CF911F910F91FF90EF90DF9090
:10177000CF900895C701B60120E137E240E050E084
:101780000E9473249F938F937F936F935F934F93E4
:101790003F932F9380E395E09F938F930E94DD1FEB
:1017A0008DB79EB70A960FB6F8949EBF0FBE8DBF39
:1017B000C0CF0F931F93CF93DF938F3F09F468C07F
:1017C000F894082F082E000C110BF6E08F02E001B0
:1017D0001124C458DE4F1A828CE28B831C82F801DC
:1017E000E15CFE4F81EF808378940F5F1F4F1F9362
:1017F0000F9383E994E09F938F930E94DD1F0F90D6
:101800000F900F900F902396888187FFFDCF1F9335
:101810000F9385E694E09F938F930E94DD1F0F90B6
:101820000F900F900F90DF91CF911F910F9108951E
:10183000F894282F082E000C330B429FF001439F91
:10184000F00D1124E458FE4F128253831482215C60
:101850003E4FF901608378948F5F90912201891740
:101860003CF38AEF94E09F938F930E94DD1F0F90CB
:101870000F9036E020E080912201281774F087EC69
:1018800094E09F938F930E94DD1F0F900F90CBCF1A
:1018900080E046E05CE261EFE0CF2303F001112439
:1018A000E458FE4F838187FFE5CF2F5FE4CF0E948E
:1018B000DE09892B49F18091490190914A01A0915B
:1018C0004B01B0914C0120914701309148011F928A
:1018D00047EF4F93BF93AF939F938F933F932F9374
:1018E0008BE194E09F938F930E94DD1F8DE094E045
:1018F0009F938F930E94DD1F8DB79EB70C960FB6F6
:10190000F8949EBF0FBE8DBF809147019091480112
:10191000B0E0A0E08093490190934A01A0934B016D
:10192000B0934C015E980895FF920F931F93CF934D
:10193000DF93082FF62E89E691E09F938F930E9404
:10194000DD1FC02F002E000CDD0B86E00802800199
:10195000112404581E4F8C9FF0018D9FF00D11240F
:10196000E458FE4F83818F700F900F908F3008F0F6
:10197000F1C0E82FF0E0E154F34F0C949224CE0C28
:101980006E0D770DAA0DAA0DAA0D7A0DAA0D880D60
:10199000AA0D960DAA0D990DAA0DA70D86E08C9F94
:1019A000F0018D9FF00D1124E458FE4F84811F92A9
:1019B0008F938EED90E09F938F930E94DD1F0F9089
:1019C0000F900F900F9086E691E09F938F930E9467
:1019D000DD1F80E691E09F938F930E94DD1F0F90A3
:1019E0000F900F900F90F801838187FF08C088E067
:1019F00091E09F938F930E94DD1F0F900F90F8014D
:101A0000838185FF08C083E091E09F938F930E94BC
:101A1000DD1F0F900F90F801838184FF08C08AEECC
:101A200090E09F938F930E94DD1F0F900F908DE5A4
:101A300091E09F938F930E94DD1F86E08C9F800131
:101A40008D9F100D112404581E4FF80182811F92A2
:101A50008F932196DF93CF938AE491E09F938F93A6
:101A60000E94DD1FEDB7FEB738960FB6F894FEBFA3
:101A70000FBEEDBFF1E0FF122BC0F801948183810E
:101A8000238161815081418130811F929F9390E039
:101A900074E0959587957A95E1F79F938F932F70D2
:101AA0001F922F931F926F931F925F931F924F93DA
:101AB0001F923F938DE091E09F938F930E94DD1FD3
:101AC0008DB79EB740960FB6F8949EBF0FBE8DBFE0
:101AD000DF91CF911F910F91FF90089583ED90E0DA
:101AE0009F938F930E94DD1F0F900F906CCF87EC18
:101AF00090E0F6CF86E08C9FF0018D9FF00D1124D1
:101B0000E458FE4F84811F928F938AEB90E053CF6D
:101B100086E08C9FF0018D9FF00D1124E458FE4F5C
:101B200084811F928F9380EB90E045CF88EA90E00C
:101B3000D7CF86E08C9FF0018D9FF00D1124E458E3
:101B4000FE4F84811F928F9380EA90E034CF8BE91F
:101B500090E0C6CF96E09C9FF0019D9FF00D112470
:101B6000E458FE4F94811F929F931F928F9387E8B2
:101B700090E09F938F930E94DD1F0F900F900F9026
:101B80000F900F900F901FCF0F931F93CF93DF9362
:101B9000D82F062FC42F122F5B9A8F3F89F1F8940C
:101BA00086E0D802F0011124E458FE4F6283C0623F
:101BB000C3832483789483E594E09F938F930E945A
:101BC000DD1F60E08D2F0E94940C81E594E09F93CF
:101BD0008F930E94DD1F0F900F900F900F900BC0FE
:101BE000212F4C2F602F8D2F0E94C40DDF5F80911D
:101BF0002201D817ACF3DF91CF911F910F91089577
:101C0000D0E0F5CF0F931F93CF93DF9300D000D098
:101C100000D0CDB7DEB74091240150E070E060E025
:101C2000CE0101960E9483228981813061F49A81DC
:101C300080912401981307C09B818091250110E0B9
:101C400006E09817E1F08EEF9FEF1FC06B81462FE3
:101C500050E01603B00111248A81680F711DCE0176
:101C600005960E9483228E819D811002F00111242D
:101C7000E458FE4FF8949083818378941F5F8C81A1
:101C8000181724F3082E000C990B26960FB6F8941B
:101C9000DEBF0FBECDBFDF91CF911F910F91089591
:101CA000CF92DF92EF92FF920F931F93CF93DF9328
:101CB00000D000D000D0CDB7DEB78EEE93E09F937A
:101CC0008F930E94DD1F80912201282F082E000C87
:101CD000330B3F938F9389EC93E09F938F930E94F4
:101CE000DD1F1F9288E08F9384EA93E09F938F9388
:101CF0000E94DD1F84E092E09F938F930E94DD1F7E
:101D00004091240150E070E060E0CE0101960E9415
:101D100083220FB6F894DEBF0FBECDBF898181301C
:101D200051F49A8180912401981305C09B81809180
:101D30002501981741F081EE91E09F938F930E94C7
:101D4000DD1F0F900F9089811F928F9381ED91E09D
:101D50009F938F930E94DD1F8A811F928F9381EC46
:101D600091E09F938F930E94DD1F8B811F928F9331
:101D700081EB91E09F938F930E94DD1F8C81282F30
:101D8000082E000C330B3F938F9381EA91E09F93D1
:101D90008F930E94DD1F0FB6F894DEBF0FBECDBF3C
:101DA00010E02FE6E22E21E0F22E8C8118170CF4C1
:101DB000B5C08BE893E09F938F930E94DD1F0F9037
:101DC0000F9010E000E089E7E82E83E0F82E97E717
:101DD000C92E93E0D92E80912201082E000C990B78
:101DE000081719070CF4C3C08FE593E09F938F93F6
:101DF0000E94DD1F0E9410099F938F938FE493E050
:101E00009F938F930E94DD1F0E94DE090F900F9019
:101E10000F900F900F900F90892B41F087E493E083
:101E20009F938F930E94DD1F0F900F908091490127
:101E300090914A01A0914B01B0914C012091470132
:101E400030914801BF93AF939F938F933F932F930C
:101E50008AE193E09F938F930E94DD1F80913E0162
:101E60000FB6F894DEBF0FBECDBF882341F08FE0E0
:101E700093E09F938F930E94DD1F0F900F9010911E
:101E80003E010E94C4091F921F939F938F9384EE7B
:101E900092E09F938F930E94DD1F0E944E0B8091D2
:101EA0002001909121010F900F900F900F900F90B3
:101EB0000F90009709F06EC080ED92E09F938F9392
:101EC0000E94DD1F0F900F901F9287EF8F9387E086
:101ED0008F9388E08F931F9285E08F931F9289EFF5
:101EE0008F931F928CE08F938EE192E09F938F935C
:101EF0000E94DD1F0FB6F894DEBF0FBECDBF269641
:101F00000FB6F894DEBF0FBECDBFDF91CF911F910A
:101F10000F91FF90EF90DF90CF9008956B81462F47
:101F200050E01603B00111248A81680F711DCE01A3
:101F300005960E9483229E818D811F929F931F92FE
:101F40008F931F929F931F928F93812F012E000CCE
:101F5000990B01969F938F93FF92EF920E94DD1F42
:101F60001F5F0FB6F894DEBF0FBECDBF1ECFFF922E
:101F7000EF920E94DD1F61E0802F0E94940CDF929F
:101F8000CF920E94DD1F0F5F1F4F0F900F900F9099
:101F90000F9021CF9F938F938AEA92E09F938F9324
:101FA0000E94DD1F0F900F900F900F908DCFFC01BE
:101FB00090810180F281E02DF8948181292F209574
:101FC0008223818378943DE7315011F18081892308
:101FD000D9F3F8948281822382838181892B818342
:101FE0007894ACEBB3E01197F1F7F89481818223F8
:101FF0008183A8E8B0E01197F1F78081982381E010
:1020000009F080E07894E0E3F3E03197F1F7089588
:1020100080E008958F929F92AF92BF92CF92DF920D
:10202000EF92FF920F931F93CF93DF938C01EB01FD
:1020300080916E0190916F010E94D70F811102C0B3
:1020400090E03EC0B80180916E0190916F010E94B6
:10205000F10840E06EEB80916E0190916F010E945B
:10206000BD088E015E0189E0A80EB11C80906E0152
:1020700090906F0188E0C82ED12CF12CEE24E394CF
:10208000C4010E946A088111FE28EE0CE1E0CE1A1C
:10209000D108B1F7F801F1928F01EA15FB0531F78C
:1020A00080916E0190916F010E94D70F813041F6AF
:1020B00068E0CE010E94530891E028852813C0CF24
:1020C000892FDF91CF911F910F91FF90EF90DF90BB
:1020D000CF90BF90AF909F908F900895CF93DF9354
:1020E000CDB7DEB729970FB6F894DEBF0FBECDBFD0
:1020F000BE016F5F7F4F0E940A10882331F08D81EF
:102100008F33A9F020F48F31A1F080E007C08F3524
:1021100021F08F37D1F78CE001C08BE029960FB604
:10212000F894DEBF0FBECDBFDF91CF9108958AE056
:10213000F5CF89E0F3CFBF92CF92DF92EF92FF927B
:102140000F931F93CF93DF93EC01B62EC72E8D858F
:10215000811105C0CE010E94D70F81110EC01B86D0
:102160001D861C8680E0DF91CF911F910F91FF901B
:10217000EF90DF90CF90BF90089540E060EFCE01E8
:102180000E94BD0801E0E12CD12C11E0CE010E949B
:102190006A08F82ECE010E946A0891E0F91218C070
:1021A000813099F51134D8F2DB86D11002C081E07C
:1021B0008D878B81882399F22396EB2DFC2DCF01FF
:1021C000089629912193E817F907D9F781E0CBCF39
:1021D000EE2DF0E0F8120FC08B851817A0F4DE0189
:1021E000AE0FBF1F13968C91802379F4F12C193018
:1021F00008F41C87D12EEC0FFD1F8381902F909542
:10220000892383830AC08113F1CFFE01EE0DF11DF6
:102210008381802B8383FF24F3946F2DCE010E9452
:102220008E081F5F000F11F4E39401E087E08E1524
:1022300008F0ACCFB7CFFF920F931F93CF93DF93EC
:102240008C01F62EE0916E01F0916F0113861586D8
:1022500014861286118610861782168215821482C1
:102260001382C0E0B80180916E0190916F010E94CD
:102270009B10D82F882329F0FC1629F0CF5FFC167D
:1022800088F7D0E008C067E0C8010E945308F80151
:1022900097818913F3CF8D2FDF91CF911F910F91EC
:1022A000FF9008952F923F924F925F926F927F928C
:1022B0008F929F92AF92BF92CF92DF92EF92FF9256
:1022C0000F931F93CF93DF93CDB7DEB76C970FB605
:1022D000F894DEBF0FBECDBF20916C012A8F10E0B5
:1022E00000E0F0E82F2EADEF3A2EB2EA4B2EBAE026
:1022F0005B2E8EE5682E8AE0782E4E014AE1840E30
:10230000911C92E2C92E9AE0D92E2BE5A22E2AE04A
:10231000B22E5A8D051708F0A8C0602FCE01429644
:102320000E941B110B8F1C8F882309F491C0602F12
:10233000CE010A960E941B11811143C060E070E03B
:102340008EEF92EC20E030E040E251E40E94CA239C
:102350000E942E23F62EE72E262E372E5F924F92C6
:102360000E94DD1F8F2D9E2D0E94AA0A2C8D2F9377
:102370004B8D4F93EF92FF927F926F920E94DD1FE1
:10238000CE0142967C010FB6F894DEBF0FBECDBFE2
:10239000F70181917F011F928F93DF92CF920E946C
:1023A000DD1F0F900F900F900F90E814F90481F744
:1023B000BF92AF920E94DD1F0F900F900F5F1F4FD3
:1023C000A8CFBE016F5F7F4FCE010A960E940A1010
:1023D000882309F4B3CF6A8170E0762F6627770FE0
:1023E000770F770F298188E0289F90011124262BF1
:1023F000372B8A858031D1F4688570E08F81FB01AD
:10240000E81BF109CF019695982F88279795879516
:102410000E945F24CB014097B90153E0660F771FFC
:102420005A95E1F760789C01260F371F2138F4EEAA
:102430003F070CF483CFB901330F880B990B0E942F
:10244000662320E030E040E05CE30E94CA237ACFBC
:102450001F930F9347E25AE05F934F930E94DD1F53
:102460000F900F900F900F90A9CF20920201309201
:102470000301C1016C960FB6F894DEBF0FBECDBF4D
:10248000DF91CF911F910F91FF90EF90DF90CF9050
:10249000BF90AF909F908F907F906F905F904F9084
:1024A0003F902F9008958F929F92AF92BF92CF92BC
:1024B000DF92EF92FF9280916E0190916F010E94E6
:1024C000D70F40E06CEC80916E0190916F010E94FB
:1024D000BD084091680164E480916E0190916F01A4
:1024E0000E94BD0880916A01882309F441C0E091EF
:1024F0006901E9506EEE72E0E33038F4F0E0EE0F7F
:10250000FF1FEB5CFE4F6081718180916B0188231E
:10251000C1F180916801811134C08FB7F894809027
:10252000640190906501A0906601B09067018FBF33
:102530006B01770FEE08FF0880916E0190916F019B
:102540000E946A088130A1F02FB7F894809164014D
:1025500090916501A0916601B09167012FBF8C1920
:102560009D09AE09BF0988159905AA05BB0520F389
:10257000FF90EF90DF90CF90BF90AF909F908F90A3
:102580000895072E000C880B990BFF90EF90DF90B9
:10259000CF90BF90AF909F908F900C9420084F9257
:1025A0005F926F927F928F929F92AF92BF92CF92E3
:1025B000DF92EF92FF920F931F93CF93DF938C01E3
:1025C0004A013901EC01F12CE12C2C0186EA480E7C
:1025D000511C88E6A82E80E0B82EF20180819181FE
:1025E000E816F9069CF090E080E0DF91CF911F9112
:1025F0000F91FF90EF90DF90CF90BF90AF909F90A2
:102600008F907F906F905F904F900895CE80DF8085
:1026100092E08916910464F0A6010D2C000C660B63
:10262000770BF301828193810E947318892BB9F48F
:102630008D858F938C858F93DF92CF92BF92AF92CF
:10264000F80185818F9384818F930E949A1F8DB7A3
:102650009EB708960FB6F8949EBF0FBE8DBF9FEF32
:10266000E91AF90A2896B9CFF8940E94531278947F
:102670002FE78FE492E1215080409040E1F700C0C5
:1026800000000E944E0B0E94D60A0E9452110E9426
:10269000C40990E080E008958F929F92AF92BF921C
:1026A000CF92DF92EF92FF920F931F93CF93DF931E
:1026B00000D0CDB7DEB74A0159018CE999E042302C
:1026C00051050CF4B4C04230510509F4ACC0F50119
:1026D000848195810E942F1FD82EF8E083E899E02D
:1026E000FD1508F4A4C0CC24CA94CD0CF501E280F9
:1026F000F38040E859E0052E000C660B770BC7010C
:102700000E947318892BB9F04CE759E0052E000C94
:10271000660B770BC7010E947318892B61F048E79D
:1027200059E0052E000C660B770BC7010E94731849
:10273000892B09F08EC002E010E0F5E08F169104BD
:102740000CF461C0DD2009F470C044E759E0052EA7
:10275000000C660B770BC7010E947318F5012681E8
:102760003781892B09F06AC040E150E070E060E0F9
:10277000C9010E94181E162F40E150E070E060E091
:10278000F501808591850E94181E062F8C2D0C2C3A
:10279000000C990BF89426E0289FF001299FF00D7A
:1027A0001124E458FE4F108301837894F8948081BB
:1027B000898381818A8360912501462F50E02C2DE9
:1027C0002603B0011124C09024016C0D711DCE01AF
:1027D00001960E94932278941F920F931F921F9349
:1027E0001F920F931F921F931F92DF9283E399E032
:1027F0009F938F930E94DD1F0FB6F894DEBF0FBE2C
:10280000CDBF10E000E0C8010F900F90DF91CF9195
:102810001F910F91FF90EF90DF90CF90BF90AF90FE
:102820009F908F900895D12C5ECF8BEF96E09F9371
:102830008F930E94DD1F0F900F9021C1C9010E944C
:102840002F1F182FF501808591850E942F1F082FBB
:102850009DCF4EE259E0052E000C660B770BC701A9
:102860000E9473188C01892B01F5DD20F1F2F5012E
:10287000868197810E942F1F7C0199279F938F93B8
:102880001F92DF9284E099E09F938F930E94DD1F57
:1028900020E04FE06E2D8C2D0E94C40D0F900F9004
:1028A0000F900F900F900F90AECF4FEF58E0052E86
:1028B000000C660B770BC7010E9473188C01892BE3
:1028C00081F41F92DF9282EE98E09F938F930E9493
:1028D000DD1F8C2D0E94D90B0F900F900F900F9041
:1028E00092CF4EED58E0052E000C660B770BC7011A
:1028F0000E947318892BB9F049ED58E0052E000CA1
:10290000660B770BC7010E947318892B61F044EDA9
:1029100058E0052E000C660B770BC7010E94731858
:10292000892B09F044C0F4E08F1691040CF4A7C081
:1029300040ED58E0052E000C660B770BC7010E9496
:102940007318F50106811781892B29F4C8010E94AB
:102950002F1F182F13C04BEC58E0052E000C660BF0
:10296000770BC7010E947318892B81F740E150E073
:1029700070E060E0C8010E94181E162F1F921F937E
:102980001F92DF928EE998E09F938F930E94DD1F44
:10299000212F46E060E08C2D0E94C40D0E94570C50
:1029A0000F900F900F900F900F900F902ACF47E944
:1029B00058E0052E000C660B770BC7010E947318B8
:1029C0008C01892BE1F5F5E08F1691040CF457C0CA
:1029D000F501868197810E942F1F7C01F50180857A
:1029E00091850E942F1F282F082E000C330BA90160
:1029F00037FF04C044275527421B530BB42E87FFD3
:102A000002C06894B7F81F92BF923F938F93C7019B
:102A100099279F938F931F92DF9284E698E09F936C
:102A20008F930E94DD1F2B2D48E06E2D8C2D0E9470
:102A3000C40D0FB6F894DEBF0FBECDBFE4CE4DE59A
:102A400058E0052E000C660B770BC7010E94731827
:102A50008C01892BA9F597E09C15A0F41F9288E0C2
:102A60008F931F921F9282E298E09F938F930E9410
:102A7000DD1F0F900F900F900F900F900F9001E0BF
:102A800010E0C1CED09222018091220180932601D4
:102A90004091240150E070E060E083E291E00E9408
:102AA00093221F92DF9287EF97E09F938F930E946C
:102AB000DD1F8FE997E09F938F930E94DD1FEECE7D
:102AC0004AE957E0052E000C660B770BC7010E9400
:102AD00073188C01892B79F41F92DF9281E797E0BC
:102AE0009F938F930E94DD1F20E04EE060E08C2DCD
:102AF0000E94C40DF1CE4CE657E0052E000C660B8B
:102B0000770BC7010E9473188C01892B19F40E945E
:102B1000500E79CE47E657E0052E000C660B770B7A
:102B2000C7010E9473188C0182E497E0011511051A
:102B300009F07DCE0E94570C8CE597E09F938F9310
:102B40000E94DD1F0F900F905ECE6F927F928F924A
:102B50009F92AF92BF92CF92DF92EF92FF920F932C
:102B60001F93CF93DF93CDB7DEB7C254D1090FB611
:102B7000F894DEBF0FBECDBFB82E5D9ACE01019690
:102B80007C0180E4F70111928A95E9F7F6E0BF9E97
:102B90008001112404581E4F8CE0F80185836801E0
:102BA00098012B5F3F4FD9018C919191890F8C93A4
:102BB000E217F307C9F72396FFAEEEAE2397109204
:102BC0003D0184E090E02AEA2396EEADFFAD239725
:102BD000AF014F5F5F4F23965FAF4EAF23972083C8
:102BE000019791F79CE0892E912CBE016F5B7F4F7E
:102BF00090E080E00E94FE09F1E08F1A9108A9F7A9
:102C0000BE016F5B7F4F81E090E00E94FE090A5F8A
:102C10001F4FF601A1906F0188E0682E712C912C56
:102C2000812C8A2D8078BE016F5B7F4F90E00E94DF
:102C3000FE098A2D881F8827881F8826AA0CF1E0A4
:102C40006F1A710871F7BE016F5B7F4FC4010E945C
:102C5000FE090C151D05E9F6BE016F5B7F4F90E084
:102C600080E00E94FE09BE016F5B7F4F90E080E034
:102C70000E94FE0923960EAD1FAD23970E191F0962
:102C80000F5F1F4F602FC7010E94110B8FE097E26B
:102C90000197F1F700C00000602FC7010E94110BDF
:102CA0005D9885E790E09F938F930E94DD1F60E021
:102CB0008B2D0E94940C83E790E09F938F930E944A
:102CC000DD1F0F900F900F900F90CE5BDF4F0FB670
:102CD000F894DEBF0FBECDBFDF91CF911F910F9152
:102CE000FF90EF90DF90CF90BF90AF909F908F902C
:102CF0007F906F9008951F920F920FB60F9211243C
:102D00002F933F938F939F93AF93BF9380916401D1
:102D100090916501A0916601B091670130915F01CA
:102D200026E0230F2D3758F50296A11DB11D2093E3
:102D30005F018093640190936501A0936601B09355
:102D400067018091600190916101A0916201B09151
:102D500063010196A11DB11D8093600190936101F3
:102D6000A0936201B0936301BF91AF919F918F9146
:102D70003F912F910F900FBE0F901F90189529E84B
:102D8000230F0396A11DB11DD2CF1F920F920FB634
:102D90000F9211242F923F924F925F926F927F92E7
:102DA0008F929F92AF92BF92CF92DF92EF92FF925B
:102DB0000F931F932F933F934F935F936F937F9343
:102DC0008F939F93AF93BF93CF93DF93EF93FF9333
:102DD00080914D0190914E01A0914F01B091500111
:102DE0000196A11DB11D80934D0190934E01A093BA
:102DF0004F01B09350015B9A0E94DE09892B09F4C0
:102E000040C08091490190914A01A0914B01B0913D
:102E10004C0120914701309148011F92C7EFCF9399
:102E2000BF93AF939F938F933F932F9386EC96E03E
:102E30009F938F930E94DD1F1F92CF9389E796E0A7
:102E40009F938F930E94DD1F27EF46E060E08FEF96
:102E50000E94C40D8091470190914801B0E0A0E02C
:102E60008093490190934A01A0934B01B0934C0188
:102E70005E9A8DB79EB70E960FB6F8949EBF0FBEA2
:102E80008DBF8091200190912101892B09F413C1FC
:102E90005E9A8BE496E09F938F930E94DD1F0F90C4
:102EA0000F903AC0E72C072C000CFF086E9C8001A5
:102EB0006F9C100D112404581E4FF80181819381DD
:102EC0009F70E701C15CDE4F9C3009F049C08881EA
:102ED00080FF05C088818483872D0E94A515888185
:102EE00081508883833050F438826E9CF0016F9C4F
:102EF000F00D1124E458FE4F538224827394809184
:102F0000220178167CF28091470190914801019648
:102F100090934801809347015B98FF91EF91DF9177
:102F2000CF91BF91AF919F918F917F916F915F9161
:102F30004F913F912F911F910F91FF90EF90DF9054
:102F4000CF90BF90AF909F908F907F906F905F9049
:102F50004F903F902F900F900FBE0F901F9018959D
:102F600093819F709F3041F41882872D0E94A51590
:102F7000F80153821482C2CF877090E028812F5FBE
:102F8000288348819C012E513F4F4217130639F484
:102F90007110B4CFF8940E9453127894AFCF488147
:102FA0009C012C513F4F4217130609F074C0711059
:102FB00025C00E944E0B0E94D60A0E9452110E9408
:102FC000C40920913E01893791050CF045C02111BB
:102FD00012C020914701309148013F932F939F9356
:102FE0008F939F928F920E94DD1F0F900F900F90F2
:102FF0000F900F900F9040923E015E9A80913E019B
:10300000882309F47BCF6E9CF0016F9CF00D112496
:10301000E458FE4F83818F70863009F06FCF848132
:10302000893F08F06BCF1F92F9EFFF938FEFE81AFB
:10303000F80AFF92EF92DF92CF920E94DD1F29EFF4
:1030400046E060E0872D0E94C40D0F900F900F9016
:103050000F900F900F9052CF213091F420914701A3
:10306000309148013F932F939F938F93BF92AF92DC
:103070000E94DD1F0F900F900F900F900F900F90F8
:1030800080913E01882309F4B9CF80913E0181509F
:1030900080933E01B3CF28818A519F4F281719068C
:1030A00009F02CCF1882872D0E94A515F801838185
:1030B0008068838323CF712C86E0682E97EAC92E1F
:1030C00095E0D92E29EEA22E25E0B22E35E0432E32
:1030D0004AE1842E46E0942E50E2552E6EED362EB7
:1030E00074EF272E0CCFFA01DC018D910590801929
:1030F00011F40020D1F7990B0895CF93DF93CDB74A
:10310000DEB76F970FB6F894DEBF0FBECDBF7894D1
:1031100084B5826084BD84B5816084BD85B58260DC
:1031200085BD85B5816085BD80916E00816080938D
:103130006E001092810080918100826080938100F6
:103140008091810081608093810080918000816006
:10315000809380008091B10084608093B100809161
:10316000B00081608093B00080917A008460809389
:103170007A0080917A00826080937A0080917A0050
:103180008E7F80937A0080917A00806880937A00A5
:103190001092C10004B714BE86E185B988E388B9EE
:1031A0008BE68BB98CEE84B98FEF87B98EEF8AB935
:1031B00012E01093C0001092C1001092C2008091E2
:1031C000C20086608093C20080E18093C4001092A8
:1031D000C50082E191E090930103809300039093F6
:1031E00003038093020384E091E09093FF028093B5
:1031F000FE0288E18093C1005B9A5E9A5D9A1F92FD
:1032000081E08F9387EF9EE09F938F930E94DD1F55
:103210008EE29EE09F938F930E94DD1F1F928AE7AC
:103220008F9382E18F931F9287E19EE09F938F930C
:103230000E94DD1F1F920F9382E09EE09F938F9369
:103240000E94DD1F0E944E0B109280008CE0809344
:10325000810088E09DE3909389008093880010931B
:103260006F0078948FED9DE09F938F930E94DD1FF8
:103270008FE59AEE0197F1F700C000002A9A1CBC76
:103280001DBC80E58CBD80E00E945D09082F0F7198
:1032900081E00E945D09182F1F711F921F931F92DA
:1032A0000F938AE89BE09F938F930E94DD1F0FB6D8
:1032B000F894DEBF0FBECDBF083019F4163009F404
:1032C00013C188E59BE09F938F930E94DD1F8FEFD2
:1032D0009FEF909321018093200187EC9DE09F93C5
:1032E0008F930E94DD1F0F900F900F900F90CC24B2
:1032F000CA94DC2CF8940E94020E182FE82E082E97
:10330000000CFF087894F7FEA2C180E19CE09F9337
:103310008F930E94DD1F0F900F900E94500E80919E
:103320000003909101032091FE023091FF0230933F
:10333000AF012093AE019093B1018093B0018EEA6A
:103340009DE09093AD018093AC0145E55CE06FECAE
:1033500072E18DE69CE00E94660A4BE05DE06CE461
:1033600073E18AEA9DE00E94660A4BEE5CE064E34A
:1033700073E187E09DE00E94660A4CEC5CE069E93D
:103380007AE087EE9CE00E94660ACD2859F580918C
:10339000220118163CF50E94570C8BEA9CE09F9383
:1033A0008F930E94DD1F8FEF0E94D90B8BE99CE069
:1033B0009F938F930E94DD1F1F9284EF8F9382E76C
:1033C0009CE09F938F930E94DD1F24EF46E060E016
:1033D0008FEF0E94C40D0E94570C0FB6F894DEBF09
:1033E0000FBECDBF83E39FE09F938F930E94DD1FAD
:1033F000E0916E01F0916F01138615861486128696
:1034000011861086178216821582148213821092FA
:103410006C0110926D010F900F9001E0BE01615F91
:103420007F4F80916E0190916F010E949B108823C5
:1034300009F453C167E0CE010F960E9453089E899C
:103440008913ECCF80916801811128C080916E01B1
:1034500090916F010E94D70FBE01615F7F4F8091F5
:103460006E0190916F010E94F10840E064EB809141
:103470006E0190916F010E94BD0880916E01909144
:103480006F010E946A08182F80916E0190916F0160
:103490000E94D70F111102C00093680110916901B9
:1034A0008F85803109F459C3CE010F960E946E10AA
:1034B000811708F001C180916901809369018091B1
:1034C0006C018F5F80936C018F85883239F008F032
:1034D000FDC0803119F0823209F0A0CF80916D01DA
:1034E0008F5F80936D019ACF84E39BE09F938F93CE
:1034F0000E94DD1F60E887E00E9476090F900F9020
:103500001999FECF0E9446098EE19BE09F938F930D
:103510000E94DD1F0E94820960E088E00E94760917
:1035200063E785E70E94760960E074E686E70E941B
:10353000650961E08AE70E94760963E289E70E94F3
:10354000760970E060E083E70E94650961E281E747
:103550000E94760965EF78E28EE60E94650960E2D6
:1035600080E70E9476096FE08DE60E9476098EE082
:10357000E7E2F1E0DE01119601900D928A95E1F704
:103580002A988CE90E9440098E010F5F1F4F7E012F
:10359000FBE0EF0EF11C0F900F90F80181918F016D
:1035A0000E9440090E151F05C1F72A9A2A988AEA37
:1035B0000E9440098B850E9440092A9A2A988CEA29
:1035C0000E9440098C850E9440098D850E94400917
:1035D0008E850E9440092A9A60E689E60E94760953
:1035E00060E185E30E94760966E083E30E94760944
:1035F0002A9886EB0E9440098CEC0E9440098CECD2
:103600000E9440098CEC0E9440098CEC0E94400909
:103610002A9A60E080E30E94760965E18BE00E94CF
:10362000760962E18CE00E947609109221011092E5
:10363000200182EB9DE09F938F930E94DD1F5B989A
:103640005D985E980F900F90D12CC12C53CEFF92B5
:103650008F9383EE9BE09F938F930E94DD1F1093C7
:1036600022010F900F900F900F9010E000E0B6E055
:103670009B2E8BEBA82E8BE0B82E0E151F050CF0A1
:103680004CCE909EF001919EF00D1124E458FE4F17
:10369000918180810F5F1F4F1F929F931F928F9385
:1036A0001F930F93BF92AF920E94DD1F0FB6F89445
:1036B000DEBF0FBECDBFE1CF8F85803111F48CE02E
:1036C000FCCECE010F960E946E10F7CE8B3309F41C
:1036D00005CF823409F0A2CE01CF8CE0809369013E
:1036E000F12CE12C0FE5EFE7DE2EFFE1CF2EAFE36B
:1036F000BA2E80916C0190E0E816F9060CF0A2C099
:103700006E2DCE0148960E941B11109169011D304B
:1037100018F11CE0888D803119F1CE0148960E9485
:103720006E10811709F486C0BE01615F7F4FCE0124
:1037300048960E940A10882309F47CC0888D803145
:1037400009F478C01B3009F479C01C3059F01A30E4
:1037500009F076C0BB8A07C01930E0F619E0DACF6D
:103760008CE0DFCFDB8A80916E0190916F010E9427
:10377000D70FBE01685E7F4F80916E0190916F01FF
:103780000E94F10840E06EE480916E0190916F011B
:103790000E94BD0840E0698980916E0190916F019F
:1037A0000E94BD0840E06A8980916E0190916F018E
:1037B0000E94BD08888D803141F040E06B89809186
:1037C0006E0190916F010E94BD0880916E019091F1
:1037D0006F010E94D70FBE01685E7F4F80916E011E
:1037E00090916F010E94F1084091680168E4809116
:1037F0006E0190916F010E94BD0864E170E080E06D
:1038000090E00E94200880916801882331F06AE0EE
:1038100070E080E090E00E94200880916E0190911D
:103820006F010E94D70F80916901811708F4812FE1
:1038300080936901FFEFEF1AFF0A5BCF0B8B93CFE9
:10384000CB8A91CF9F938F9389E09FE09F938F9333
:103850000E94DD1F8CE79FE09F938F930E94DD1FE6
:103860000F900F900F900F900F900F9054E5452EF2
:1038700052E0552ECC24C394D12C7FE6672E7FE0F6
:10388000772E6091B0017091B1018091AC0190915F
:10389000AD010E94B51F6091B0017091B10189E73F
:1038A0009FE00E94B51F5092DB024092DA02D09254
:1038B000D902C092D8021092D5021092D4028091FF
:1038C000AE019091AF010E945E1FF82E0091D602CA
:1038D0001091D7020115110541F42AE0821709F46D
:1038E000B6C08DE0F81609F4B2C098E0F91609F4F4
:1038F0005CC0EFE1EF150CF455C0FAE0FF12DFCF2A
:103900008091D4029091D5028F379105C1F28091B8
:10391000D8029091D902409791F26091B0017091D4
:10392000B1018F2D0F2C000C990B0E94F521809175
:10393000D6029091D702892B09F081C0F0E2FF12E4
:1039400004C1F12C8091D4029091D5029C012455A0
:103950003E4FF901E855FF4FF0820097E9F0FF2054
:10396000D9F029553F4FF9012081211115C020912F
:10397000D8023091D902A9014F5F5F4F5093D9020D
:103980004093D802220F331FF901E652FD4F9C01EC
:103990002C5A3D4F3183208301969093D50280931A
:1039A000D4028DCF2FE7F212ABCF8091D402909149
:1039B000D502892B09F483CF6091B0017091B101D8
:1039C00088E090E00E94F5216091B0017091B10112
:1039D00080E290E00E94F5216091B0017091B10108
:1039E00088E090E00E94F5212091D4023091D50228
:1039F000A901415051095093D5024093D402CA0104
:103A000084559E4F452BB1F0FC01E855FF4F408196
:103A1000442381F02E5A3D4FF901208121110AC023
:103A20002091D8023091D902215031093093D90226
:103A30002093D80288559F4FFC01108240CF22E28C
:103A4000F21280CF1092D7021092D6027ACFE09174
:103A5000D402F091D502EC5AFD4F10826091B00172
:103A60007091B1018AE090E00E94F5218091D4022A
:103A70009091D502892B09F404CFA0905202B09006
:103A800053028090DA029090DB022CEAE22E21E0D1
:103A9000F22E0A151B050CF045C0F701468157812F
:103AA000052E000C660B770BC4010E947318F8E01A
:103AB000EF0EF11C98012F5F3F4F892B09F043C097
:103AC0004091D8025091D902F80183E0EE0FFF1F18
:103AD0008A95E1F7E455FE4F6285738593E0220FE6
:103AE000331F9A95E1F7F901E455FE4F0190F081FB
:103AF000E02D2AED32E08CEA91E00995009791F0F3
:103B00009F938F937F926F928091B1018F93809159
:103B1000B0018F930E949A1F0F900F900F900F90FB
:103B20000F900F908091520290915302081719073D
:103B300009F0A7CE6091B0017091B1018EE59FE0D0
:103B40000E94B51F9ECE8901A4CF22E2F212FACEC6
:103B5000D092D702C092D602B2CE1D3008F0ABCCC4
:103B6000AECDCF93DF934CEE5AE0FA01649188ED2D
:103B70009AE0FC0124912223C1F030E0220F331F90
:103B8000F901EE53F54FA591B491F901E854F54FC1
:103B9000C591D4917FB7F8943C91262F209532237C
:103BA0003C933881232328837FBFFA0144914093BB
:103BB0005101FC018491E82FF0E0EE0FFF1FE45368
:103BC000F54F8591949190935301809352011092F7
:103BD0005C0110925E0110925D0110925B011092E7
:103BE0005A011092590110925801109257011092E7
:103BF0005601109255011092540181E591E0909385
:103C00006F0180936E0110926C0110926D01109201
:103C1000680189E08093690181E080936A01809363
:103C20006B0110927B0110927A01DF91CF91089580
:103C3000B0E0A0E0EEE1FEE10C94E9225C016B0152
:103C40007A016115710519F0FB0191838083E114FC
:103C5000F10451F0C7010297839730F040E030E063
:103C600020E090E072C05E01E5012196F50110812F
:103C7000812F90E00E944D1F892BA9F71D3201F57D
:103C80002196F501118101E0E114F10409F4DAC093
:103C9000F0E1EF16F10409F082C0103359F4888185
:103CA0008F7D883509F076C0198122960260F0E197
:103CB000EF2EF12C812C912CA12C88E0B82E8CC0F9
:103CC0001B3221F4E5012296F501118100E0DCCFE1
:103CD000EAE0EE16F10409F4BBC0F0E1EF16F104DE
:103CE00009F06DC0E7CF78E0E72EF12C812C912C04
:103CF000A12C60E1B62E70C03FE9310F3A3128F4B3
:103D000039EA332E80C021E09AC0302F3170C114BF
:103D1000D10431F0222309F12197F601D183C08328
:103D200027FF21C060E070E080E090E8311104C01E
:103D30006FEF7FEF8FEF9FE722E230E030930503D4
:103D400020930403462F372F282F642F732F822FA1
:103D5000CDB7DEB7E1E10C94052301FF04C0229743
:103D6000F601D183C083332341F0909580957095FF
:103D700061957F4F8F4F9F4FE5CF97FFE3CF82E253
:103D800090E090930503809304036FEF7FEF8FEF34
:103D90009FE7D8CF10E3E114F10409F4A4CF28E0A1
:103DA000E216F10409F4A2CF0CF092CF812C912CF1
:103DB000A12CE0E4BE2E82E0E816F10469F060E098
:103DC00070E080E090E897010F2C000C440B550B3D
:103DD0000E94BB2249015A0120E060E070E0CB0163
:103DE00027010F2C000C66087708FE0150ED352ED8
:103DF000310E39E0331540F43FEB310F3A3108F022
:103E00007BCF49EC342E310E3E141F040CF07DCFD5
:103E100027FD15C086169706A806B90678F0A301F7
:103E200092010E94AB22630D711D811D911D6130B5
:103E30007105810520E8920708F465CF2FEF2196E0
:103E40001081D3CF103309F42ACF2AE0E22EF12CCF
:103E50009CEC892E982CA82C9CE0B92EBDCFFC019F
:103E600088279927E89421912032E9F3293010F02E
:103E70002E30C8F32B3241F02D3239F4689404C04F
:103E80000E94561F820F911D219120532A30C0F3AA
:103E90001EF4909581959F4F089591110C94DC210B
:103EA000803219F089508550C8F708957AE0979FBD
:103EB000902D879F802D910D11240895CF93DF932E
:103EC000EC012B8120FF1AC026FF0CC02F7B2B8317
:103ED0008E819F8101969F838E838A8190E0DF91FE
:103EE000CF91089522FF18C0E881F9818081082EC2
:103EF000000C990B009729F420622B838FEF9FEF22
:103F0000EECF3196F983E8832E813F812F5F3F4FBB
:103F10003F832E839927E3CFEA85FB85099597FF99
:103F2000F3CF2B81019621F080E2822B8B83E6CFA9
:103F300080E1FBCFB0E0A0E0E0EAFFE10C94F622E4
:103F40000F811885F801838188608383AE01455F06
:103F50005F4F69857A85C8010E940220F80123819C
:103F6000277F2383E4E00C941223EF92FF920F93B8
:103F70001F93CF93DF938C017B01DB0113968C9110
:103F8000D0E0C0E081FD0FC0CFEFDFEF10C0D70160
:103F90001896ED91FC91B7010995892B11F0CFEF9F
:103FA000DFEF0F5F1F4FF80184918111F0CFCE0139
:103FB000CDB7DEB7E6E00C941023B0E0A0E0E3EE6E
:103FC000FFE10C94F622AE01495F5F4FDA016D917B
:103FD0007D91AD010EEF12E0F80182819381DC0149
:103FE00013962C911397286013962C930E9402200D
:103FF000D8011296ED91FC912381277F2383E4E081
:104000000C941223ABE0B0E0E8E0F0E20C94E8227C
:104010007C013B018A01FC0117821682838181FFAA
:10402000C8C1CE0101965C01F7019381F30193FDB4
:10403000859193FF81913F01882309F453C1853213
:1040400039F493FD859193FF81913F01853229F4E5
:10405000B70190E00E94F521E7CF912C212C312C63
:10406000FFE1F31538F08B3211F190F4803209F151
:10407000833229F137FC3CC020ED280F2A3050F55F
:1040800036FE20C08AE0989E200D1124922E06C094
:104090008D3291F0803371F7689430F8F30193FD1D
:1040A000859193FF81913F018111DACF21C06894FE
:1040B00031F8689432F8F2CF689433F8EFCF68940F
:1040C00034F8ECCFEAE02E9E200D1124222E6894C5
:1040D00035F8E4CF8E3229F436FC04C1689436F802
:1040E000DDCF8C3619F4689437F8D8CF8836B1F222
:1040F000982F9F7D95549330E0F08336A1F183375C
:10410000C1F1833509F063C02801F2E04F0E511C64
:10411000F801C080D180692D70E036FC02C06FEFDD
:104120007FEFC6010E94DF214C01689437F88201BD
:104130000AC00C5F1F4FFFE3F98388248394912CFE
:104140006501E89437F833FE2DC0522C8114910498
:1041500071F5552009F468CFB70180E290E00E9424
:10416000F5215A94F6CFF801808189830E5F1F4FA5
:10417000E4CF2801F2E04F0E511CF801C080D1803D
:10418000692D70E036FC02C06FEF7FEFC6010E9420
:10419000EA214C018201D5CFB70180E290E00E9474
:1041A000F5212A942814190409F0B0F7CECFF601AE
:1041B00037FC859137FE81916F01B70190E00E9435
:1041C000F52151105A94F1E08F1A9108BFCF84362F
:1041D00019F0893609F077C0F80137FE6BC06081AD
:1041E0007181828193810C5F1F4FF32DFF763F2EEB
:1041F00097FF09C090958095709561957F4F8F4F7F
:104200009F4F689437F82AE030E0A5010E942522EC
:10421000C82ECA188C2C432C36FE0CC0E89440F8EB
:10422000C91440F434FE05C032FC03C0F32DFE7EF9
:104230004F2E892C44FE95C0FE01EC0DF11D8081AE
:10424000803309F087C0242D297E422E842D88706A
:10425000582E43FC95C040FE8FC09C2C821418F44D
:104260002C0C922C981844FE91C0B70180E390E08A
:104270000E94F52142FE09C088E790E041FE02C09D
:1042800088E590E0B7010E94F521C91408F48AC0BE
:10429000CA94D12C9FEFC91AD90ACA0CDB1CF601AB
:1042A00082916F01B70190E00E94F521AC14BD042A
:1042B000B1F74FCF60817181072E000C880B990BED
:1042C0000E5F1F4F92CFD32CE894D4F82AE030E051
:1042D000853739F1232D297FD22E8F3601F148F40D
:1042E0008835A9F0F701868197812B96E2E10C943D
:1042F0000423803749F08837A9F7D4FE02C06894B8
:10430000D2F820E130E00DC06894D4F8F6CF34FE46
:1043100003C0822F8660D82E20E132E002C028E060
:1043200030E0F801D7FE0FC06081718182819381F6
:104330000C5F1F4FA5010E942522C82ECA183D2CD4
:10434000E89437F867CF6081718190E080E00E5F7C
:104350001F4FF0CF42FC02C0839478CF83948394A4
:1043600075CF842D867809F471CFF6CFB70180E23E
:1043700090E00E94F52183948214C0F3512C73CFF6
:10438000522C5818821408F46ECFF8CF842D8678FA
:1043900009F47BCF8BE241FE80E247FC8DE2B7015E
:1043A00090E071CFB70180E390E00E94F5219A94EC
:1043B0006CCF8FEF9FEF99CF992788270895FC0145
:1043C0000590615070400110D8F7809590958E0F40
:1043D0009F1F0895FC016150704001900110D8F7B3
:1043E000809590958E0F9F1F08950F931F93CF93E5
:1043F000DF93182F092FEB018B8181FD09C01FEF7F
:104400000FEF812F902FDF91CF911F910F91089582
:1044100082FF14C02E813F818C819D81281739072E
:104420003CF4E881F981CF01019699838883108358
:104430008E819F8101969F838E83E3CFE885F985E6
:10444000812F0995892BA1F3DACFFA01AA27283009
:1044500051F1203181F1E8946F936E7F6E5F7F4F51
:104460008F4F9F4FAF4FB1E03ED0B4E03CD0670FCD
:10447000781F891F9A1FA11D680F791F8A1F911D20
:10448000A11D6A0F711D811D911DA11D20D009F470
:1044900068943F912AE0269F11243019305D3193B2
:1044A000DEF6CF010895462F4770405D4193B3E09B
:1044B0000FD0C9F7F6CF462F4F70405D4A3318F042
:1044C000495D31FD4052419302D0A9F7EACFB4E0F3
:1044D000A6959795879577956795BA95C9F70097AB
:1044E0006105710508959B01AC010A2E069457954C
:1044F000479537952795BA95C9F7620F731F841FA3
:10450000951FA01D0895DC01CB01FC01F999FECF98
:1045100006C0F2BDE1BDF89A319600B40D9241504B
:104520005040B8F70895DC01CB0103C02D910E94E3
:104530009E2241505040D0F70895262FF999FECF82
:104540001FBA92BD81BD20BD0FB6F894FA9AF99AB0
:104550000FBE01960895DB018F939F930E94DD2289
:10456000BF91AF91A29F800D911DA39F900DB29F0F
:10457000900D11240895A1E21A2EAA1BBB1BFD0168
:104580000DC0AA1FBB1FEE1FFF1FA217B307E40732
:10459000F50720F0A21BB30BE40BF50B661F771F8A
:1045A000881F991F1A9469F760957095809590956A
:1045B0009B01AC01BD01CF0108950E941F23A59F5F
:1045C000900DB49F900DA49F800D911D112408950E
:1045D0002F923F924F925F926F927F928F929F9213
:1045E000AF92BF92CF92DF92EF92FF920F931F9301
:1045F000CF93DF93CDB7DEB7CA1BDB0B0FB6F894B2
:10460000DEBF0FBECDBF09942A88398848885F84F1
:104610006E847D848C849B84AA84B984C884DF8062
:10462000EE80FD800C811B81AA81B981CE0FD11D46
:104630000FB6F894DEBF0FBECDBFED010895A29F67
:10464000B001B39FC001A39F700D811D1124911D66
:10465000B29F700D811D1124911D08950E94352374
:104660006894B1110C94C42308950E94A92388F082
:104670009F5798F0B92F9927B751B0F0E1F0660F26
:10468000771F881F991F1AF0BA95C9F714C0B13067
:1046900091F00E94C323B1E008950C94C323672FC7
:1046A000782F8827B85F39F0B93FCCF38695779596
:1046B0006795B395D9F73EF490958095709561957F
:1046C0007F4F8F4F9F4F0895E89409C097FB3EF4AA
:1046D00090958095709561957F4F8F4F9F4F99234F
:1046E000A9F0F92F96E9BB279395F69587957795CD
:1046F0006795B795F111F8CFFAF4BB0F11F460FF8D
:104700001BC06F5F7F4F8F4F9F4F16C0882311F0E4
:1047100096E911C0772321F09EE8872F762F05C0F8
:10472000662371F096E8862F70E060E02AF09A9593
:10473000660F771F881FDAF7880F9695879597F988
:10474000089557FD9058440F551F59F05F3F71F081
:104750004795880F97FB991F61F09F3F79F08795E8
:104760000895121613061406551FF2CF4695F1DF71
:1047700008C0161617061806991FF1CF8695710501
:10478000610508940895E894BB2766277727CB0135
:1047900097F908950E94DD230C944E240E94402432
:1047A00038F00E94472420F0952311F00C94372410
:1047B0000C943D2411240C94C4230E94A12370F373
:1047C000959FC1F3950F50E0551F629FF001729FB6
:1047D000BB27F00DB11D639FAA27F00DB11DAA1FC5
:1047E000649F6627B00DA11D661F829F2227B00D12
:1047F000A11D621F739FB00DA11D621F839FA00D9D
:10480000611D221F749F3327A00D611D231F849FEC
:10481000600D211D822F762F6A2F11249F57504043
:104820009AF0F1F088234AF0EE0FFF1FBB1F661FBE
:10483000771F881F91505040A9F79E3F510580F087
:104840000C9437240C94C4235F3FE4F3983ED4F3D4
:10485000869577956795B795F795E7959F5FC1F72B
:10486000FE2B880F911D9695879597F9089597F9D6
:104870009F6780E870E060E008959FEF80EC089506
:1048800000240A941616170618060906089500242F
:104890000A9412161306140605060895092E0394A9
:1048A000000C11F4882352F0BB0F40F4BF2B11F41D
:1048B00060FF04C06F5F7F4F8F4F9F4F089597FB3E
:1048C000072E16F4009407D077FD09D00E94982493
:1048D00007FC05D03EF4909581959F4F0895709503
:1048E00061957F4F0895052E97FB1EF400940E945A
:1048F0008A2457FD07D00E94BB2207FC03D04EF448
:104900000C948A2450954095309521953F4F4F4FF8
:104910005F4F089590958095709561957F4F8F4F6B
:104920009F4F0895EE0FFF1F0590F491E02D09941D
:10493000AA1BBB1B51E107C0AA1FBB1FA617B707C5
:1049400010F0A61BB70B881F991F5A95A9F78095E1
:0C4950009095BC01CD010895F894FFCFB4
:10495C00010180FD000000010000000000004A0A77
:10496C0000000000000200000000540A00000000DB
:10497C0001000101040208C1400A039600DA740028
:0C498C00DC2428FA295E00BC0077010042
:00000001FF
